Archive member included to satisfy reference by file (symbol)

d:/programme/siliconlabs/simplicitystudio/v5/developer/toolchains/gnu_arm/10.2_2020q4/bin/../lib/gcc/arm-none-eabi/10.2.1/thumb/v7e-m+fp/softfp\libgcc.a(_aeabi_ldivmod.o)
                              ./gecko_sdk_3.2.3/platform/emdrv/ustimer/src/ustimer.o (__aeabi_ldivmod)
d:/programme/siliconlabs/simplicitystudio/v5/developer/toolchains/gnu_arm/10.2_2020q4/bin/../lib/gcc/arm-none-eabi/10.2.1/thumb/v7e-m+fp/softfp\libgcc.a(_aeabi_uldivmod.o)
                              ./gecko_sdk_3.2.3/platform/emdrv/ustimer/src/ustimer.o (__aeabi_uldivmod)
d:/programme/siliconlabs/simplicitystudio/v5/developer/toolchains/gnu_arm/10.2_2020q4/bin/../lib/gcc/arm-none-eabi/10.2.1/thumb/v7e-m+fp/softfp\libgcc.a(_udivmoddi4.o)
                              d:/programme/siliconlabs/simplicitystudio/v5/developer/toolchains/gnu_arm/10.2_2020q4/bin/../lib/gcc/arm-none-eabi/10.2.1/thumb/v7e-m+fp/softfp\libgcc.a(_aeabi_ldivmod.o) (__udivmoddi4)
d:/programme/siliconlabs/simplicitystudio/v5/developer/toolchains/gnu_arm/10.2_2020q4/bin/../lib/gcc/arm-none-eabi/10.2.1/thumb/v7e-m+fp/softfp\libgcc.a(_dvmd_tls.o)
                              d:/programme/siliconlabs/simplicitystudio/v5/developer/toolchains/gnu_arm/10.2_2020q4/bin/../lib/gcc/arm-none-eabi/10.2.1/thumb/v7e-m+fp/softfp\libgcc.a(_aeabi_ldivmod.o) (__aeabi_ldiv0)
d:/programme/siliconlabs/simplicitystudio/v5/developer/toolchains/gnu_arm/10.2_2020q4/bin/../lib/gcc/arm-none-eabi/10.2.1/../../../../arm-none-eabi/lib/thumb/v7e-m+fp/softfp\libc_nano.a(lib_a-exit.o)
                              d:/programme/siliconlabs/simplicitystudio/v5/developer/toolchains/gnu_arm/10.2_2020q4/bin/../lib/gcc/arm-none-eabi/10.2.1/../../../../arm-none-eabi/lib/thumb/v7e-m+fp/softfp/crt0.o (exit)
d:/programme/siliconlabs/simplicitystudio/v5/developer/toolchains/gnu_arm/10.2_2020q4/bin/../lib/gcc/arm-none-eabi/10.2.1/../../../../arm-none-eabi/lib/thumb/v7e-m+fp/softfp\libc_nano.a(lib_a-impure.o)
                              d:/programme/siliconlabs/simplicitystudio/v5/developer/toolchains/gnu_arm/10.2_2020q4/bin/../lib/gcc/arm-none-eabi/10.2.1/../../../../arm-none-eabi/lib/thumb/v7e-m+fp/softfp\libc_nano.a(lib_a-exit.o) (_global_impure_ptr)
d:/programme/siliconlabs/simplicitystudio/v5/developer/toolchains/gnu_arm/10.2_2020q4/bin/../lib/gcc/arm-none-eabi/10.2.1/../../../../arm-none-eabi/lib/thumb/v7e-m+fp/softfp\libc_nano.a(lib_a-init.o)
                              d:/programme/siliconlabs/simplicitystudio/v5/developer/toolchains/gnu_arm/10.2_2020q4/bin/../lib/gcc/arm-none-eabi/10.2.1/../../../../arm-none-eabi/lib/thumb/v7e-m+fp/softfp/crt0.o (__libc_init_array)
d:/programme/siliconlabs/simplicitystudio/v5/developer/toolchains/gnu_arm/10.2_2020q4/bin/../lib/gcc/arm-none-eabi/10.2.1/../../../../arm-none-eabi/lib/thumb/v7e-m+fp/softfp\libc_nano.a(lib_a-malloc.o)
                              ./ZOE-M8Q_functions.o (malloc)
d:/programme/siliconlabs/simplicitystudio/v5/developer/toolchains/gnu_arm/10.2_2020q4/bin/../lib/gcc/arm-none-eabi/10.2.1/../../../../arm-none-eabi/lib/thumb/v7e-m+fp/softfp\libc_nano.a(lib_a-memcpy-stub.o)
                              ./ZOE-M8Q_functions.o (memcpy)
d:/programme/siliconlabs/simplicitystudio/v5/developer/toolchains/gnu_arm/10.2_2020q4/bin/../lib/gcc/arm-none-eabi/10.2.1/../../../../arm-none-eabi/lib/thumb/v7e-m+fp/softfp\libc_nano.a(lib_a-memset.o)
                              d:/programme/siliconlabs/simplicitystudio/v5/developer/toolchains/gnu_arm/10.2_2020q4/bin/../lib/gcc/arm-none-eabi/10.2.1/../../../../arm-none-eabi/lib/thumb/v7e-m+fp/softfp/crt0.o (memset)
d:/programme/siliconlabs/simplicitystudio/v5/developer/toolchains/gnu_arm/10.2_2020q4/bin/../lib/gcc/arm-none-eabi/10.2.1/../../../../arm-none-eabi/lib/thumb/v7e-m+fp/softfp\libc_nano.a(lib_a-nano-freer.o)
                              d:/programme/siliconlabs/simplicitystudio/v5/developer/toolchains/gnu_arm/10.2_2020q4/bin/../lib/gcc/arm-none-eabi/10.2.1/../../../../arm-none-eabi/lib/thumb/v7e-m+fp/softfp\libc_nano.a(lib_a-malloc.o) (_free_r)
d:/programme/siliconlabs/simplicitystudio/v5/developer/toolchains/gnu_arm/10.2_2020q4/bin/../lib/gcc/arm-none-eabi/10.2.1/../../../../arm-none-eabi/lib/thumb/v7e-m+fp/softfp\libc_nano.a(lib_a-nano-mallocr.o)
                              d:/programme/siliconlabs/simplicitystudio/v5/developer/toolchains/gnu_arm/10.2_2020q4/bin/../lib/gcc/arm-none-eabi/10.2.1/../../../../arm-none-eabi/lib/thumb/v7e-m+fp/softfp\libc_nano.a(lib_a-malloc.o) (_malloc_r)
d:/programme/siliconlabs/simplicitystudio/v5/developer/toolchains/gnu_arm/10.2_2020q4/bin/../lib/gcc/arm-none-eabi/10.2.1/../../../../arm-none-eabi/lib/thumb/v7e-m+fp/softfp\libc_nano.a(lib_a-printf.o)
                              ./spidrv_zoe.o (printf)
d:/programme/siliconlabs/simplicitystudio/v5/developer/toolchains/gnu_arm/10.2_2020q4/bin/../lib/gcc/arm-none-eabi/10.2.1/../../../../arm-none-eabi/lib/thumb/v7e-m+fp/softfp\libc_nano.a(lib_a-sbrkr.o)
                              d:/programme/siliconlabs/simplicitystudio/v5/developer/toolchains/gnu_arm/10.2_2020q4/bin/../lib/gcc/arm-none-eabi/10.2.1/../../../../arm-none-eabi/lib/thumb/v7e-m+fp/softfp\libc_nano.a(lib_a-nano-mallocr.o) (_sbrk_r)
d:/programme/siliconlabs/simplicitystudio/v5/developer/toolchains/gnu_arm/10.2_2020q4/bin/../lib/gcc/arm-none-eabi/10.2.1/../../../../arm-none-eabi/lib/thumb/v7e-m+fp/softfp\libc_nano.a(lib_a-findfp.o)
                              d:/programme/siliconlabs/simplicitystudio/v5/developer/toolchains/gnu_arm/10.2_2020q4/bin/../lib/gcc/arm-none-eabi/10.2.1/../../../../arm-none-eabi/lib/thumb/v7e-m+fp/softfp\libc_nano.a(lib_a-printf.o) (__sinit)
d:/programme/siliconlabs/simplicitystudio/v5/developer/toolchains/gnu_arm/10.2_2020q4/bin/../lib/gcc/arm-none-eabi/10.2.1/../../../../arm-none-eabi/lib/thumb/v7e-m+fp/softfp\libc_nano.a(lib_a-fwalk.o)
                              d:/programme/siliconlabs/simplicitystudio/v5/developer/toolchains/gnu_arm/10.2_2020q4/bin/../lib/gcc/arm-none-eabi/10.2.1/../../../../arm-none-eabi/lib/thumb/v7e-m+fp/softfp\libc_nano.a(lib_a-findfp.o) (_fwalk)
d:/programme/siliconlabs/simplicitystudio/v5/developer/toolchains/gnu_arm/10.2_2020q4/bin/../lib/gcc/arm-none-eabi/10.2.1/../../../../arm-none-eabi/lib/thumb/v7e-m+fp/softfp\libc_nano.a(lib_a-lock.o)
                              d:/programme/siliconlabs/simplicitystudio/v5/developer/toolchains/gnu_arm/10.2_2020q4/bin/../lib/gcc/arm-none-eabi/10.2.1/../../../../arm-none-eabi/lib/thumb/v7e-m+fp/softfp\libc_nano.a(lib_a-findfp.o) (__retarget_lock_init_recursive)
d:/programme/siliconlabs/simplicitystudio/v5/developer/toolchains/gnu_arm/10.2_2020q4/bin/../lib/gcc/arm-none-eabi/10.2.1/../../../../arm-none-eabi/lib/thumb/v7e-m+fp/softfp\libc_nano.a(lib_a-mlock.o)
                              d:/programme/siliconlabs/simplicitystudio/v5/developer/toolchains/gnu_arm/10.2_2020q4/bin/../lib/gcc/arm-none-eabi/10.2.1/../../../../arm-none-eabi/lib/thumb/v7e-m+fp/softfp\libc_nano.a(lib_a-nano-freer.o) (__malloc_lock)
d:/programme/siliconlabs/simplicitystudio/v5/developer/toolchains/gnu_arm/10.2_2020q4/bin/../lib/gcc/arm-none-eabi/10.2.1/../../../../arm-none-eabi/lib/thumb/v7e-m+fp/softfp\libc_nano.a(lib_a-nano-vfprintf.o)
                              d:/programme/siliconlabs/simplicitystudio/v5/developer/toolchains/gnu_arm/10.2_2020q4/bin/../lib/gcc/arm-none-eabi/10.2.1/../../../../arm-none-eabi/lib/thumb/v7e-m+fp/softfp\libc_nano.a(lib_a-printf.o) (_vfprintf_r)
d:/programme/siliconlabs/simplicitystudio/v5/developer/toolchains/gnu_arm/10.2_2020q4/bin/../lib/gcc/arm-none-eabi/10.2.1/../../../../arm-none-eabi/lib/thumb/v7e-m+fp/softfp\libc_nano.a(lib_a-nano-vfprintf_i.o)
                              d:/programme/siliconlabs/simplicitystudio/v5/developer/toolchains/gnu_arm/10.2_2020q4/bin/../lib/gcc/arm-none-eabi/10.2.1/../../../../arm-none-eabi/lib/thumb/v7e-m+fp/softfp\libc_nano.a(lib_a-nano-vfprintf.o) (_printf_i)
d:/programme/siliconlabs/simplicitystudio/v5/developer/toolchains/gnu_arm/10.2_2020q4/bin/../lib/gcc/arm-none-eabi/10.2.1/../../../../arm-none-eabi/lib/thumb/v7e-m+fp/softfp\libc_nano.a(lib_a-reent.o)
                              d:/programme/siliconlabs/simplicitystudio/v5/developer/toolchains/gnu_arm/10.2_2020q4/bin/../lib/gcc/arm-none-eabi/10.2.1/../../../../arm-none-eabi/lib/thumb/v7e-m+fp/softfp\libc_nano.a(lib_a-sbrkr.o) (errno)
d:/programme/siliconlabs/simplicitystudio/v5/developer/toolchains/gnu_arm/10.2_2020q4/bin/../lib/gcc/arm-none-eabi/10.2.1/../../../../arm-none-eabi/lib/thumb/v7e-m+fp/softfp\libc_nano.a(lib_a-stdio.o)
                              d:/programme/siliconlabs/simplicitystudio/v5/developer/toolchains/gnu_arm/10.2_2020q4/bin/../lib/gcc/arm-none-eabi/10.2.1/../../../../arm-none-eabi/lib/thumb/v7e-m+fp/softfp\libc_nano.a(lib_a-findfp.o) (__sread)
d:/programme/siliconlabs/simplicitystudio/v5/developer/toolchains/gnu_arm/10.2_2020q4/bin/../lib/gcc/arm-none-eabi/10.2.1/../../../../arm-none-eabi/lib/thumb/v7e-m+fp/softfp\libc_nano.a(lib_a-wbuf.o)
                              d:/programme/siliconlabs/simplicitystudio/v5/developer/toolchains/gnu_arm/10.2_2020q4/bin/../lib/gcc/arm-none-eabi/10.2.1/../../../../arm-none-eabi/lib/thumb/v7e-m+fp/softfp\libc_nano.a(lib_a-nano-vfprintf.o) (__swbuf_r)
d:/programme/siliconlabs/simplicitystudio/v5/developer/toolchains/gnu_arm/10.2_2020q4/bin/../lib/gcc/arm-none-eabi/10.2.1/../../../../arm-none-eabi/lib/thumb/v7e-m+fp/softfp\libc_nano.a(lib_a-writer.o)
                              d:/programme/siliconlabs/simplicitystudio/v5/developer/toolchains/gnu_arm/10.2_2020q4/bin/../lib/gcc/arm-none-eabi/10.2.1/../../../../arm-none-eabi/lib/thumb/v7e-m+fp/softfp\libc_nano.a(lib_a-stdio.o) (_write_r)
d:/programme/siliconlabs/simplicitystudio/v5/developer/toolchains/gnu_arm/10.2_2020q4/bin/../lib/gcc/arm-none-eabi/10.2.1/../../../../arm-none-eabi/lib/thumb/v7e-m+fp/softfp\libc_nano.a(lib_a-wsetup.o)
                              d:/programme/siliconlabs/simplicitystudio/v5/developer/toolchains/gnu_arm/10.2_2020q4/bin/../lib/gcc/arm-none-eabi/10.2.1/../../../../arm-none-eabi/lib/thumb/v7e-m+fp/softfp\libc_nano.a(lib_a-nano-vfprintf.o) (__swsetup_r)
d:/programme/siliconlabs/simplicitystudio/v5/developer/toolchains/gnu_arm/10.2_2020q4/bin/../lib/gcc/arm-none-eabi/10.2.1/../../../../arm-none-eabi/lib/thumb/v7e-m+fp/softfp\libc_nano.a(lib_a-closer.o)
                              d:/programme/siliconlabs/simplicitystudio/v5/developer/toolchains/gnu_arm/10.2_2020q4/bin/../lib/gcc/arm-none-eabi/10.2.1/../../../../arm-none-eabi/lib/thumb/v7e-m+fp/softfp\libc_nano.a(lib_a-stdio.o) (_close_r)
d:/programme/siliconlabs/simplicitystudio/v5/developer/toolchains/gnu_arm/10.2_2020q4/bin/../lib/gcc/arm-none-eabi/10.2.1/../../../../arm-none-eabi/lib/thumb/v7e-m+fp/softfp\libc_nano.a(lib_a-fflush.o)
                              d:/programme/siliconlabs/simplicitystudio/v5/developer/toolchains/gnu_arm/10.2_2020q4/bin/../lib/gcc/arm-none-eabi/10.2.1/../../../../arm-none-eabi/lib/thumb/v7e-m+fp/softfp\libc_nano.a(lib_a-findfp.o) (_fflush_r)
d:/programme/siliconlabs/simplicitystudio/v5/developer/toolchains/gnu_arm/10.2_2020q4/bin/../lib/gcc/arm-none-eabi/10.2.1/../../../../arm-none-eabi/lib/thumb/v7e-m+fp/softfp\libc_nano.a(lib_a-fvwrite.o)
                              d:/programme/siliconlabs/simplicitystudio/v5/developer/toolchains/gnu_arm/10.2_2020q4/bin/../lib/gcc/arm-none-eabi/10.2.1/../../../../arm-none-eabi/lib/thumb/v7e-m+fp/softfp\libc_nano.a(lib_a-nano-vfprintf.o) (__sfvwrite_r)
d:/programme/siliconlabs/simplicitystudio/v5/developer/toolchains/gnu_arm/10.2_2020q4/bin/../lib/gcc/arm-none-eabi/10.2.1/../../../../arm-none-eabi/lib/thumb/v7e-m+fp/softfp\libc_nano.a(lib_a-lseekr.o)
                              d:/programme/siliconlabs/simplicitystudio/v5/developer/toolchains/gnu_arm/10.2_2020q4/bin/../lib/gcc/arm-none-eabi/10.2.1/../../../../arm-none-eabi/lib/thumb/v7e-m+fp/softfp\libc_nano.a(lib_a-stdio.o) (_lseek_r)
d:/programme/siliconlabs/simplicitystudio/v5/developer/toolchains/gnu_arm/10.2_2020q4/bin/../lib/gcc/arm-none-eabi/10.2.1/../../../../arm-none-eabi/lib/thumb/v7e-m+fp/softfp\libc_nano.a(lib_a-makebuf.o)
                              d:/programme/siliconlabs/simplicitystudio/v5/developer/toolchains/gnu_arm/10.2_2020q4/bin/../lib/gcc/arm-none-eabi/10.2.1/../../../../arm-none-eabi/lib/thumb/v7e-m+fp/softfp\libc_nano.a(lib_a-wsetup.o) (__smakebuf_r)
d:/programme/siliconlabs/simplicitystudio/v5/developer/toolchains/gnu_arm/10.2_2020q4/bin/../lib/gcc/arm-none-eabi/10.2.1/../../../../arm-none-eabi/lib/thumb/v7e-m+fp/softfp\libc_nano.a(lib_a-memchr.o)
                              d:/programme/siliconlabs/simplicitystudio/v5/developer/toolchains/gnu_arm/10.2_2020q4/bin/../lib/gcc/arm-none-eabi/10.2.1/../../../../arm-none-eabi/lib/thumb/v7e-m+fp/softfp\libc_nano.a(lib_a-nano-vfprintf.o) (memchr)
d:/programme/siliconlabs/simplicitystudio/v5/developer/toolchains/gnu_arm/10.2_2020q4/bin/../lib/gcc/arm-none-eabi/10.2.1/../../../../arm-none-eabi/lib/thumb/v7e-m+fp/softfp\libc_nano.a(lib_a-memmove.o)
                              d:/programme/siliconlabs/simplicitystudio/v5/developer/toolchains/gnu_arm/10.2_2020q4/bin/../lib/gcc/arm-none-eabi/10.2.1/../../../../arm-none-eabi/lib/thumb/v7e-m+fp/softfp\libc_nano.a(lib_a-fvwrite.o) (memmove)
d:/programme/siliconlabs/simplicitystudio/v5/developer/toolchains/gnu_arm/10.2_2020q4/bin/../lib/gcc/arm-none-eabi/10.2.1/../../../../arm-none-eabi/lib/thumb/v7e-m+fp/softfp\libc_nano.a(lib_a-nano-reallocr.o)
                              d:/programme/siliconlabs/simplicitystudio/v5/developer/toolchains/gnu_arm/10.2_2020q4/bin/../lib/gcc/arm-none-eabi/10.2.1/../../../../arm-none-eabi/lib/thumb/v7e-m+fp/softfp\libc_nano.a(lib_a-fvwrite.o) (_realloc_r)
d:/programme/siliconlabs/simplicitystudio/v5/developer/toolchains/gnu_arm/10.2_2020q4/bin/../lib/gcc/arm-none-eabi/10.2.1/../../../../arm-none-eabi/lib/thumb/v7e-m+fp/softfp\libc_nano.a(lib_a-readr.o)
                              d:/programme/siliconlabs/simplicitystudio/v5/developer/toolchains/gnu_arm/10.2_2020q4/bin/../lib/gcc/arm-none-eabi/10.2.1/../../../../arm-none-eabi/lib/thumb/v7e-m+fp/softfp\libc_nano.a(lib_a-stdio.o) (_read_r)
d:/programme/siliconlabs/simplicitystudio/v5/developer/toolchains/gnu_arm/10.2_2020q4/bin/../lib/gcc/arm-none-eabi/10.2.1/../../../../arm-none-eabi/lib/thumb/v7e-m+fp/softfp\libc_nano.a(lib_a-fstatr.o)
                              d:/programme/siliconlabs/simplicitystudio/v5/developer/toolchains/gnu_arm/10.2_2020q4/bin/../lib/gcc/arm-none-eabi/10.2.1/../../../../arm-none-eabi/lib/thumb/v7e-m+fp/softfp\libc_nano.a(lib_a-makebuf.o) (_fstat_r)
d:/programme/siliconlabs/simplicitystudio/v5/developer/toolchains/gnu_arm/10.2_2020q4/bin/../lib/gcc/arm-none-eabi/10.2.1/../../../../arm-none-eabi/lib/thumb/v7e-m+fp/softfp\libc_nano.a(lib_a-isattyr.o)
                              d:/programme/siliconlabs/simplicitystudio/v5/developer/toolchains/gnu_arm/10.2_2020q4/bin/../lib/gcc/arm-none-eabi/10.2.1/../../../../arm-none-eabi/lib/thumb/v7e-m+fp/softfp\libc_nano.a(lib_a-makebuf.o) (_isatty_r)
d:/programme/siliconlabs/simplicitystudio/v5/developer/toolchains/gnu_arm/10.2_2020q4/bin/../lib/gcc/arm-none-eabi/10.2.1/../../../../arm-none-eabi/lib/thumb/v7e-m+fp/softfp\libc_nano.a(lib_a-nano-msizer.o)
                              d:/programme/siliconlabs/simplicitystudio/v5/developer/toolchains/gnu_arm/10.2_2020q4/bin/../lib/gcc/arm-none-eabi/10.2.1/../../../../arm-none-eabi/lib/thumb/v7e-m+fp/softfp\libc_nano.a(lib_a-nano-reallocr.o) (_malloc_usable_size_r)
d:/programme/siliconlabs/simplicitystudio/v5/developer/toolchains/gnu_arm/10.2_2020q4/bin/../lib/gcc/arm-none-eabi/10.2.1/../../../../arm-none-eabi/lib/thumb/v7e-m+fp/softfp\libnosys.a(close.o)
                              d:/programme/siliconlabs/simplicitystudio/v5/developer/toolchains/gnu_arm/10.2_2020q4/bin/../lib/gcc/arm-none-eabi/10.2.1/../../../../arm-none-eabi/lib/thumb/v7e-m+fp/softfp\libc_nano.a(lib_a-closer.o) (_close)
d:/programme/siliconlabs/simplicitystudio/v5/developer/toolchains/gnu_arm/10.2_2020q4/bin/../lib/gcc/arm-none-eabi/10.2.1/../../../../arm-none-eabi/lib/thumb/v7e-m+fp/softfp\libnosys.a(fstat.o)
                              d:/programme/siliconlabs/simplicitystudio/v5/developer/toolchains/gnu_arm/10.2_2020q4/bin/../lib/gcc/arm-none-eabi/10.2.1/../../../../arm-none-eabi/lib/thumb/v7e-m+fp/softfp\libc_nano.a(lib_a-fstatr.o) (_fstat)
d:/programme/siliconlabs/simplicitystudio/v5/developer/toolchains/gnu_arm/10.2_2020q4/bin/../lib/gcc/arm-none-eabi/10.2.1/../../../../arm-none-eabi/lib/thumb/v7e-m+fp/softfp\libnosys.a(isatty.o)
                              d:/programme/siliconlabs/simplicitystudio/v5/developer/toolchains/gnu_arm/10.2_2020q4/bin/../lib/gcc/arm-none-eabi/10.2.1/../../../../arm-none-eabi/lib/thumb/v7e-m+fp/softfp\libc_nano.a(lib_a-isattyr.o) (_isatty)
d:/programme/siliconlabs/simplicitystudio/v5/developer/toolchains/gnu_arm/10.2_2020q4/bin/../lib/gcc/arm-none-eabi/10.2.1/../../../../arm-none-eabi/lib/thumb/v7e-m+fp/softfp\libnosys.a(lseek.o)
                              d:/programme/siliconlabs/simplicitystudio/v5/developer/toolchains/gnu_arm/10.2_2020q4/bin/../lib/gcc/arm-none-eabi/10.2.1/../../../../arm-none-eabi/lib/thumb/v7e-m+fp/softfp\libc_nano.a(lib_a-lseekr.o) (_lseek)
d:/programme/siliconlabs/simplicitystudio/v5/developer/toolchains/gnu_arm/10.2_2020q4/bin/../lib/gcc/arm-none-eabi/10.2.1/../../../../arm-none-eabi/lib/thumb/v7e-m+fp/softfp\libnosys.a(read.o)
                              d:/programme/siliconlabs/simplicitystudio/v5/developer/toolchains/gnu_arm/10.2_2020q4/bin/../lib/gcc/arm-none-eabi/10.2.1/../../../../arm-none-eabi/lib/thumb/v7e-m+fp/softfp\libc_nano.a(lib_a-readr.o) (_read)
d:/programme/siliconlabs/simplicitystudio/v5/developer/toolchains/gnu_arm/10.2_2020q4/bin/../lib/gcc/arm-none-eabi/10.2.1/../../../../arm-none-eabi/lib/thumb/v7e-m+fp/softfp\libnosys.a(write.o)
                              d:/programme/siliconlabs/simplicitystudio/v5/developer/toolchains/gnu_arm/10.2_2020q4/bin/../lib/gcc/arm-none-eabi/10.2.1/../../../../arm-none-eabi/lib/thumb/v7e-m+fp/softfp\libc_nano.a(lib_a-writer.o) (_write)
d:/programme/siliconlabs/simplicitystudio/v5/developer/toolchains/gnu_arm/10.2_2020q4/bin/../lib/gcc/arm-none-eabi/10.2.1/../../../../arm-none-eabi/lib/thumb/v7e-m+fp/softfp\libnosys.a(_exit.o)
                              d:/programme/siliconlabs/simplicitystudio/v5/developer/toolchains/gnu_arm/10.2_2020q4/bin/../lib/gcc/arm-none-eabi/10.2.1/../../../../arm-none-eabi/lib/thumb/v7e-m+fp/softfp\libc_nano.a(lib_a-exit.o) (_exit)

Discarded input sections

 .text          0x00000000        0x0 d:/programme/siliconlabs/simplicitystudio/v5/developer/toolchains/gnu_arm/10.2_2020q4/bin/../lib/gcc/arm-none-eabi/10.2.1/thumb/v7e-m+fp/softfp/crti.o
 .data          0x00000000        0x0 d:/programme/siliconlabs/simplicitystudio/v5/developer/toolchains/gnu_arm/10.2_2020q4/bin/../lib/gcc/arm-none-eabi/10.2.1/thumb/v7e-m+fp/softfp/crti.o
 .bss           0x00000000        0x0 d:/programme/siliconlabs/simplicitystudio/v5/developer/toolchains/gnu_arm/10.2_2020q4/bin/../lib/gcc/arm-none-eabi/10.2.1/thumb/v7e-m+fp/softfp/crti.o
 .data          0x00000000        0x4 d:/programme/siliconlabs/simplicitystudio/v5/developer/toolchains/gnu_arm/10.2_2020q4/bin/../lib/gcc/arm-none-eabi/10.2.1/thumb/v7e-m+fp/softfp/crtbegin.o
 .rodata        0x00000000       0x24 d:/programme/siliconlabs/simplicitystudio/v5/developer/toolchains/gnu_arm/10.2_2020q4/bin/../lib/gcc/arm-none-eabi/10.2.1/thumb/v7e-m+fp/softfp/crtbegin.o
 .data          0x00000000        0x0 d:/programme/siliconlabs/simplicitystudio/v5/developer/toolchains/gnu_arm/10.2_2020q4/bin/../lib/gcc/arm-none-eabi/10.2.1/../../../../arm-none-eabi/lib/thumb/v7e-m+fp/softfp/crt0.o
 .bss           0x00000000        0x0 d:/programme/siliconlabs/simplicitystudio/v5/developer/toolchains/gnu_arm/10.2_2020q4/bin/../lib/gcc/arm-none-eabi/10.2.1/../../../../arm-none-eabi/lib/thumb/v7e-m+fp/softfp/crt0.o
 .ARM.extab     0x00000000        0x0 d:/programme/siliconlabs/simplicitystudio/v5/developer/toolchains/gnu_arm/10.2_2020q4/bin/../lib/gcc/arm-none-eabi/10.2.1/../../../../arm-none-eabi/lib/thumb/v7e-m+fp/softfp/crt0.o
 .group         0x00000000        0xc ./ZOE-M8Q_functions.o
 .group         0x00000000        0xc ./ZOE-M8Q_functions.o
 .group         0x00000000        0xc ./ZOE-M8Q_functions.o
 .group         0x00000000        0xc ./ZOE-M8Q_functions.o
 .group         0x00000000        0xc ./ZOE-M8Q_functions.o
 .group         0x00000000        0xc ./ZOE-M8Q_functions.o
 .group         0x00000000        0xc ./ZOE-M8Q_functions.o
 .group         0x00000000        0xc ./ZOE-M8Q_functions.o
 .group         0x00000000        0xc ./ZOE-M8Q_functions.o
 .group         0x00000000        0xc ./ZOE-M8Q_functions.o
Memory Configuration

Name             Origin             Length             Attributes
FLASH            0x00000000         0x00040000         xr
RAM              0x20000000         0x00008000         xrw
*default*        0x00000000         0xffffffff

Linker script and memory map

LOAD d:/programme/siliconlabs/simplicitystudio/v5/developer/toolchains/gnu_arm/10.2_2020q4/bin/../lib/gcc/arm-none-eabi/10.2.1/thumb/v7e-m+fp/softfp/crti.o
LOAD d:/programme/siliconlabs/simplicitystudio/v5/developer/toolchains/gnu_arm/10.2_2020q4/bin/../lib/gcc/arm-none-eabi/10.2.1/thumb/v7e-m+fp/softfp/crtbegin.o
LOAD d:/programme/siliconlabs/simplicitystudio/v5/developer/toolchains/gnu_arm/10.2_2020q4/bin/../lib/gcc/arm-none-eabi/10.2.1/../../../../arm-none-eabi/lib/thumb/v7e-m+fp/softfp/crt0.o
START GROUP
LOAD ./ZOE-M8Q_functions.o
LOAD ./app.o
LOAD ./main.o
LOAD ./spidrv_zoe.o
LOAD ./autogen/sl_board_default_init.o
LOAD ./autogen/sl_device_init_clocks.o
LOAD ./autogen/sl_event_handler.o
LOAD ./autogen/sl_simple_led_instances.o
LOAD ./autogen/sl_spidrv_init.o
LOAD ./gecko_sdk_3.2.3/hardware/board/src/sl_board_control_gpio.o
LOAD ./gecko_sdk_3.2.3/hardware/board/src/sl_board_init.o
LOAD ./gecko_sdk_3.2.3/hardware/driver/mx25_flash_shutdown/src/sl_mx25_flash_shutdown_usart/sl_mx25_flash_shutdown.o
LOAD ./gecko_sdk_3.2.3/platform/Device/SiliconLabs/EFR32FG14P/Source/GCC/startup_efr32fg14p.o
LOAD ./gecko_sdk_3.2.3/platform/Device/SiliconLabs/EFR32FG14P/Source/system_efr32fg14p.o
LOAD ./gecko_sdk_3.2.3/platform/common/src/sl_slist.o
LOAD ./gecko_sdk_3.2.3/platform/common/toolchain/src/sl_memory.o
LOAD ./gecko_sdk_3.2.3/platform/driver/leddrv/src/sl_led.o
LOAD ./gecko_sdk_3.2.3/platform/driver/leddrv/src/sl_simple_led.o
LOAD ./gecko_sdk_3.2.3/platform/emdrv/dmadrv/src/dmadrv.o
LOAD ./gecko_sdk_3.2.3/platform/emdrv/spidrv/src/spidrv.o
LOAD ./gecko_sdk_3.2.3/platform/emdrv/ustimer/src/ustimer.o
LOAD ./gecko_sdk_3.2.3/platform/emlib/src/em_assert.o
LOAD ./gecko_sdk_3.2.3/platform/emlib/src/em_cmu.o
LOAD ./gecko_sdk_3.2.3/platform/emlib/src/em_core.o
LOAD ./gecko_sdk_3.2.3/platform/emlib/src/em_emu.o
LOAD ./gecko_sdk_3.2.3/platform/emlib/src/em_gpio.o
LOAD ./gecko_sdk_3.2.3/platform/emlib/src/em_ldma.o
LOAD ./gecko_sdk_3.2.3/platform/emlib/src/em_rtcc.o
LOAD ./gecko_sdk_3.2.3/platform/emlib/src/em_system.o
LOAD ./gecko_sdk_3.2.3/platform/emlib/src/em_timer.o
LOAD ./gecko_sdk_3.2.3/platform/emlib/src/em_usart.o
LOAD ./gecko_sdk_3.2.3/platform/service/device_init/src/sl_device_init_dcdc_s1.o
LOAD ./gecko_sdk_3.2.3/platform/service/device_init/src/sl_device_init_emu_s1.o
LOAD ./gecko_sdk_3.2.3/platform/service/device_init/src/sl_device_init_hfxo_s1.o
LOAD ./gecko_sdk_3.2.3/platform/service/device_init/src/sl_device_init_lfxo_s1.o
LOAD ./gecko_sdk_3.2.3/platform/service/device_init/src/sl_device_init_nvic.o
LOAD ./gecko_sdk_3.2.3/platform/service/sleeptimer/src/sl_sleeptimer.o
LOAD ./gecko_sdk_3.2.3/platform/service/sleeptimer/src/sl_sleeptimer_hal_prortc.o
LOAD ./gecko_sdk_3.2.3/platform/service/sleeptimer/src/sl_sleeptimer_hal_rtcc.o
LOAD ./gecko_sdk_3.2.3/platform/service/system/src/sl_system_init.o
LOAD ./gecko_sdk_3.2.3/platform/service/system/src/sl_system_process_action.o
LOAD ./gecko_sdk_3.2.3/platform/service/udelay/src/sl_udelay.o
LOAD ./gecko_sdk_3.2.3/platform/service/udelay/src/sl_udelay_armv6m_gcc.o
LOAD d:/programme/siliconlabs/simplicitystudio/v5/developer/toolchains/gnu_arm/10.2_2020q4/bin/../lib/gcc/arm-none-eabi/10.2.1/thumb/v7e-m+fp/softfp\libgcc.a
LOAD d:/programme/siliconlabs/simplicitystudio/v5/developer/toolchains/gnu_arm/10.2_2020q4/bin/../lib/gcc/arm-none-eabi/10.2.1/../../../../arm-none-eabi/lib/thumb/v7e-m+fp/softfp\libc_nano.a
LOAD d:/programme/siliconlabs/simplicitystudio/v5/developer/toolchains/gnu_arm/10.2_2020q4/bin/../lib/gcc/arm-none-eabi/10.2.1/../../../../arm-none-eabi/lib/thumb/v7e-m+fp/softfp\libm.a
LOAD d:/programme/siliconlabs/simplicitystudio/v5/developer/toolchains/gnu_arm/10.2_2020q4/bin/../lib/gcc/arm-none-eabi/10.2.1/../../../../arm-none-eabi/lib/thumb/v7e-m+fp/softfp\libnosys.a
END GROUP
START GROUP
LOAD d:/programme/siliconlabs/simplicitystudio/v5/developer/toolchains/gnu_arm/10.2_2020q4/bin/../lib/gcc/arm-none-eabi/10.2.1/thumb/v7e-m+fp/softfp\libgcc.a
LOAD d:/programme/siliconlabs/simplicitystudio/v5/developer/toolchains/gnu_arm/10.2_2020q4/bin/../lib/gcc/arm-none-eabi/10.2.1/../../../../arm-none-eabi/lib/thumb/v7e-m+fp/softfp\libc_nano.a
LOAD d:/programme/siliconlabs/simplicitystudio/v5/developer/toolchains/gnu_arm/10.2_2020q4/bin/../lib/gcc/arm-none-eabi/10.2.1/../../../../arm-none-eabi/lib/thumb/v7e-m+fp/softfp\libnosys.a
END GROUP
START GROUP
LOAD d:/programme/siliconlabs/simplicitystudio/v5/developer/toolchains/gnu_arm/10.2_2020q4/bin/../lib/gcc/arm-none-eabi/10.2.1/thumb/v7e-m+fp/softfp\libgcc.a
LOAD d:/programme/siliconlabs/simplicitystudio/v5/developer/toolchains/gnu_arm/10.2_2020q4/bin/../lib/gcc/arm-none-eabi/10.2.1/../../../../arm-none-eabi/lib/thumb/v7e-m+fp/softfp\libg_nano.a
LOAD d:/programme/siliconlabs/simplicitystudio/v5/developer/toolchains/gnu_arm/10.2_2020q4/bin/../lib/gcc/arm-none-eabi/10.2.1/../../../../arm-none-eabi/lib/thumb/v7e-m+fp/softfp\libc_nano.a
END GROUP
START GROUP
LOAD d:/programme/siliconlabs/simplicitystudio/v5/developer/toolchains/gnu_arm/10.2_2020q4/bin/../lib/gcc/arm-none-eabi/10.2.1/thumb/v7e-m+fp/softfp\libgcc.a
LOAD d:/programme/siliconlabs/simplicitystudio/v5/developer/toolchains/gnu_arm/10.2_2020q4/bin/../lib/gcc/arm-none-eabi/10.2.1/../../../../arm-none-eabi/lib/thumb/v7e-m+fp/softfp\libc_nano.a
END GROUP
LOAD d:/programme/siliconlabs/simplicitystudio/v5/developer/toolchains/gnu_arm/10.2_2020q4/bin/../lib/gcc/arm-none-eabi/10.2.1/thumb/v7e-m+fp/softfp/crtend.o
LOAD d:/programme/siliconlabs/simplicitystudio/v5/developer/toolchains/gnu_arm/10.2_2020q4/bin/../lib/gcc/arm-none-eabi/10.2.1/thumb/v7e-m+fp/softfp/crtn.o

.text           0x00000000     0x6338
                0x00000000                linker_vectors_begin = .
 *(.vectors)
 .vectors       0x00000000       0xe8 ./gecko_sdk_3.2.3/platform/Device/SiliconLabs/EFR32FG14P/Source/GCC/startup_efr32fg14p.o
                0x00000000                __Vectors
                0x000000e8                linker_vectors_end = .
                0x000000e8                __Vectors_End = .
                0x000000e8                __Vectors_Size = (__Vectors_End - __Vectors)
                0x000000e8                linker_code_begin = .
 *(.text*)
 .text          0x000000e8       0x40 d:/programme/siliconlabs/simplicitystudio/v5/developer/toolchains/gnu_arm/10.2_2020q4/bin/../lib/gcc/arm-none-eabi/10.2.1/thumb/v7e-m+fp/softfp/crtbegin.o
 .text          0x00000128       0x7c d:/programme/siliconlabs/simplicitystudio/v5/developer/toolchains/gnu_arm/10.2_2020q4/bin/../lib/gcc/arm-none-eabi/10.2.1/../../../../arm-none-eabi/lib/thumb/v7e-m+fp/softfp/crt0.o
                0x00000128                _stack_init
                0x00000130                _start
                0x00000130                _mainCRTStartup
 .text.setPacketCfgPayloadSize
                0x000001a4       0x54 ./ZOE-M8Q_functions.o
                0x000001a4                setPacketCfgPayloadSize
 .text.checkAutomatic
                0x000001f8      0x188 ./ZOE-M8Q_functions.o
                0x000001f8                checkAutomatic
 .text.getMaxPayloadSize
                0x00000380       0x74 ./ZOE-M8Q_functions.o
                0x00000380                getMaxPayloadSize
 .text.calcChecksum
                0x000003f4       0x44 ./ZOE-M8Q_functions.o
                0x000003f4                calcChecksum
 .text.addToChecksum
                0x00000438       0x1c ./ZOE-M8Q_functions.o
                0x00000438                addToChecksum
 .text.spiTransfer
                0x00000454       0x44 ./ZOE-M8Q_functions.o
                0x00000454                spiTransfer
 .text.sendSpiCommand
                0x00000498       0x68 ./ZOE-M8Q_functions.o
                0x00000498                sendSpiCommand
 .text.createFileBuffer
                0x00000500       0x38 ./ZOE-M8Q_functions.o
                0x00000500                createFileBuffer
 .text.fileBufferSpaceUsed
                0x00000538       0x24 ./ZOE-M8Q_functions.o
                0x00000538                fileBufferSpaceUsed
 .text.fileBufferSpaceAvailable
                0x0000055c       0x14 ./ZOE-M8Q_functions.o
                0x0000055c                fileBufferSpaceAvailable
 .text.writeToFileBuffer
                0x00000570       0x6c ./ZOE-M8Q_functions.o
                0x00000570                writeToFileBuffer
 .text.storePacket
                0x000005dc       0x80 ./ZOE-M8Q_functions.o
                0x000005dc                storePacket
 .text.initPacketUBXCFGRATE
                0x0000065c       0x10 ./ZOE-M8Q_functions.o
                0x0000065c                initPacketUBXCFGRATE
 .text.extractLong
                0x0000066c       0x1c ./ZOE-M8Q_functions.o
                0x0000066c                extractLong
 .text.extractInt
                0x00000688        0xe ./ZOE-M8Q_functions.o
                0x00000688                extractInt
 *fill*         0x00000696        0x2 
 .text.processUBXpacket
                0x00000698      0xc5c ./ZOE-M8Q_functions.o
                0x00000698                processUBXpacket
 .text.processUBX
                0x000012f4      0x18c ./ZOE-M8Q_functions.o
                0x000012f4                processUBX
 .text.process  0x00001480      0x1f8 ./ZOE-M8Q_functions.o
                0x00001480                process
 .text.checkUbloxSpi
                0x00001678       0x94 ./ZOE-M8Q_functions.o
                0x00001678                checkUbloxSpi
 .text.checkUbloxInternal
                0x0000170c       0x10 ./ZOE-M8Q_functions.o
                0x0000170c                checkUbloxInternal
 .text.waitForACKResponse
                0x0000171c       0xe4 ./ZOE-M8Q_functions.o
                0x0000171c                waitForACKResponse
 .text.sendCommand
                0x00001800       0x2c ./ZOE-M8Q_functions.o
                0x00001800                sendCommand
 .text.getNavigationFrequencyInternal
                0x0000182c       0x44 ./ZOE-M8Q_functions.o
                0x0000182c                getNavigationFrequencyInternal
 .text.isConnected
                0x00001870        0x8 ./ZOE-M8Q_functions.o
                0x00001870                isConnected
 .text.GNSS_begin
                0x00001878       0x54 ./ZOE-M8Q_functions.o
                0x00001878                GNSS_begin
 .text.app_init
                0x000018cc       0x1c ./app.o
                0x000018cc                app_init
 .text.app_process_action
                0x000018e8       0x20 ./app.o
                0x000018e8                app_process_action
 .text.startup.main
                0x00001908       0x14 ./main.o
                0x00001908                main
 .text.initUSART1
                0x0000191c       0x9c ./spidrv_zoe.o
                0x0000191c                initUSART1
 .text.spidrv_app_zoe_init
                0x000019b8       0x18 ./spidrv_zoe.o
                0x000019b8                spidrv_app_zoe_init
 .text.spidrv_app_zoe_action
                0x000019d0       0x34 ./spidrv_zoe.o
                0x000019d0                spidrv_app_zoe_action
 .text.sl_board_default_init
                0x00001a04        0x4 ./autogen/sl_board_default_init.o
                0x00001a04                sl_board_default_init
 .text.sl_device_init_clocks
                0x00001a08       0x40 ./autogen/sl_device_init_clocks.o
                0x00001a08                sl_device_init_clocks
 .text.sl_platform_init
                0x00001a48       0x4c ./autogen/sl_event_handler.o
                0x00001a48                sl_platform_init
 .text.sl_driver_init
                0x00001a94        0xe ./autogen/sl_event_handler.o
                0x00001a94                sl_driver_init
 .text.sl_service_init
                0x00001aa2        0x4 ./autogen/sl_event_handler.o
                0x00001aa2                sl_service_init
 .text.sl_stack_init
                0x00001aa6        0x2 ./autogen/sl_event_handler.o
                0x00001aa6                sl_stack_init
 .text.sl_internal_app_init
                0x00001aa8        0x2 ./autogen/sl_event_handler.o
                0x00001aa8                sl_internal_app_init
 .text.sl_platform_process_action
                0x00001aaa        0x2 ./autogen/sl_event_handler.o
                0x00001aaa                sl_platform_process_action
 .text.sl_service_process_action
                0x00001aac        0x2 ./autogen/sl_event_handler.o
                0x00001aac                sl_service_process_action
 .text.sl_stack_process_action
                0x00001aae        0x2 ./autogen/sl_event_handler.o
                0x00001aae                sl_stack_process_action
 .text.sl_internal_app_process_action
                0x00001ab0        0x2 ./autogen/sl_event_handler.o
                0x00001ab0                sl_internal_app_process_action
 *fill*         0x00001ab2        0x2 
 .text.sl_simple_led_init_instances
                0x00001ab4        0xc ./autogen/sl_simple_led_instances.o
                0x00001ab4                sl_simple_led_init_instances
 .text.sl_spidrv_init_instances
                0x00001ac0       0x14 ./autogen/sl_spidrv_init.o
                0x00001ac0                sl_spidrv_init_instances
 .text.sl_board_disable_vcom
                0x00001ad4       0x12 ./gecko_sdk_3.2.3/hardware/board/src/sl_board_control_gpio.o
                0x00001ad4                sl_board_disable_vcom
 *fill*         0x00001ae6        0x2 
 .text.sl_board_init
                0x00001ae8       0x1c ./gecko_sdk_3.2.3/hardware/board/src/sl_board_init.o
                0x00001ae8                sl_board_init
 .text.sl_board_preinit
                0x00001b04        0xc ./gecko_sdk_3.2.3/hardware/board/src/sl_board_init.o
                0x00001b04                sl_board_preinit
 .text.cs_high  0x00001b10        0xc ./gecko_sdk_3.2.3/hardware/driver/mx25_flash_shutdown/src/sl_mx25_flash_shutdown_usart/sl_mx25_flash_shutdown.o
 .text.cs_low   0x00001b1c        0xc ./gecko_sdk_3.2.3/hardware/driver/mx25_flash_shutdown/src/sl_mx25_flash_shutdown_usart/sl_mx25_flash_shutdown.o
 .text.sl_mx25_flash_shutdown
                0x00001b28       0xfc ./gecko_sdk_3.2.3/hardware/driver/mx25_flash_shutdown/src/sl_mx25_flash_shutdown_usart/sl_mx25_flash_shutdown.o
                0x00001b28                sl_mx25_flash_shutdown
 .text.Default_Handler
                0x00001c24        0x2 ./gecko_sdk_3.2.3/platform/Device/SiliconLabs/EFR32FG14P/Source/GCC/startup_efr32fg14p.o
                0x00001c24                DebugMon_Handler
                0x00001c24                USART0_TX_IRQHandler
                0x00001c24                PRORTC_IRQHandler
                0x00001c24                I2C0_IRQHandler
                0x00001c24                HardFault_Handler
                0x00001c24                SysTick_Handler
                0x00001c24                USART1_RX_IRQHandler
                0x00001c24                PendSV_Handler
                0x00001c24                NMI_Handler
                0x00001c24                SYNTH_IRQHandler
                0x00001c24                WTIMER0_IRQHandler
                0x00001c24                CRYPTO0_IRQHandler
                0x00001c24                WDOG0_IRQHandler
                0x00001c24                USART1_TX_IRQHandler
                0x00001c24                SMU_IRQHandler
                0x00001c24                MSC_IRQHandler
                0x00001c24                ADC0_IRQHandler
                0x00001c24                UsageFault_Handler
                0x00001c24                WDOG1_IRQHandler
                0x00001c24                LEUART0_IRQHandler
                0x00001c24                FPUEH_IRQHandler
                0x00001c24                GPIO_EVEN_IRQHandler
                0x00001c24                VDAC0_IRQHandler
                0x00001c24                LETIMER0_IRQHandler
                0x00001c24                TIMER1_IRQHandler
                0x00001c24                TRNG0_IRQHandler
                0x00001c24                RFSENSE_IRQHandler
                0x00001c24                BUFC_IRQHandler
                0x00001c24                MODEM_IRQHandler
                0x00001c24                Default_Handler
                0x00001c24                RAC_SEQ_IRQHandler
                0x00001c24                FRC_PRI_IRQHandler
                0x00001c24                EMU_IRQHandler
                0x00001c24                FRC_IRQHandler
                0x00001c24                CRYOTIMER_IRQHandler
                0x00001c24                PCNT0_IRQHandler
                0x00001c24                AGC_IRQHandler
                0x00001c24                sl_app_properties
                0x00001c24                ACMP0_IRQHandler
                0x00001c24                USART0_RX_IRQHandler
                0x00001c24                MemManage_Handler
                0x00001c24                SVC_Handler
                0x00001c24                CMU_IRQHandler
                0x00001c24                RAC_RSM_IRQHandler
                0x00001c24                GPIO_ODD_IRQHandler
                0x00001c24                LESENSE_IRQHandler
                0x00001c24                PROTIMER_IRQHandler
                0x00001c24                BusFault_Handler
                0x00001c24                IDAC0_IRQHandler
 *fill*         0x00001c26        0x2 
 .text.Reset_Handler
                0x00001c28       0x2c ./gecko_sdk_3.2.3/platform/Device/SiliconLabs/EFR32FG14P/Source/GCC/startup_efr32fg14p.o
                0x00001c28                Reset_Handler
 .text.SystemMaxCoreClockGet
                0x00001c54        0x8 ./gecko_sdk_3.2.3/platform/Device/SiliconLabs/EFR32FG14P/Source/system_efr32fg14p.o
                0x00001c54                SystemMaxCoreClockGet
 .text.SystemHFClockGet
                0x00001c5c       0x54 ./gecko_sdk_3.2.3/platform/Device/SiliconLabs/EFR32FG14P/Source/system_efr32fg14p.o
                0x00001c5c                SystemHFClockGet
 .text.SystemCoreClockGet
                0x00001cb0       0x24 ./gecko_sdk_3.2.3/platform/Device/SiliconLabs/EFR32FG14P/Source/system_efr32fg14p.o
                0x00001cb0                SystemCoreClockGet
 .text.SystemHFXOClockGet
                0x00001cd4        0xc ./gecko_sdk_3.2.3/platform/Device/SiliconLabs/EFR32FG14P/Source/system_efr32fg14p.o
                0x00001cd4                SystemHFXOClockGet
 .text.SystemHFXOClockSet
                0x00001ce0       0x20 ./gecko_sdk_3.2.3/platform/Device/SiliconLabs/EFR32FG14P/Source/system_efr32fg14p.o
                0x00001ce0                SystemHFXOClockSet
 .text.SystemInit
                0x00001d00       0x1c ./gecko_sdk_3.2.3/platform/Device/SiliconLabs/EFR32FG14P/Source/system_efr32fg14p.o
                0x00001d00                SystemInit
 .text.SystemLFRCOClockGet
                0x00001d1c        0x6 ./gecko_sdk_3.2.3/platform/Device/SiliconLabs/EFR32FG14P/Source/system_efr32fg14p.o
                0x00001d1c                SystemLFRCOClockGet
 .text.SystemULFRCOClockGet
                0x00001d22        0x6 ./gecko_sdk_3.2.3/platform/Device/SiliconLabs/EFR32FG14P/Source/system_efr32fg14p.o
                0x00001d22                SystemULFRCOClockGet
 .text.SystemLFXOClockGet
                0x00001d28        0xc ./gecko_sdk_3.2.3/platform/Device/SiliconLabs/EFR32FG14P/Source/system_efr32fg14p.o
                0x00001d28                SystemLFXOClockGet
 .text._sbrk    0x00001d34       0x20 ./gecko_sdk_3.2.3/platform/common/toolchain/src/sl_memory.o
                0x00001d34                _sbrk
 .text.sl_led_init
                0x00001d54        0x6 ./gecko_sdk_3.2.3/platform/driver/leddrv/src/sl_led.o
                0x00001d54                sl_led_init
 .text.sl_led_toggle
                0x00001d5a        0x6 ./gecko_sdk_3.2.3/platform/driver/leddrv/src/sl_led.o
                0x00001d5a                sl_led_toggle
 .text.GPIO_PinOutClear
                0x00001d60       0x58 ./gecko_sdk_3.2.3/platform/driver/leddrv/src/sl_simple_led.o
 .text.GPIO_PinOutSet
                0x00001db8       0x58 ./gecko_sdk_3.2.3/platform/driver/leddrv/src/sl_simple_led.o
 .text.sl_simple_led_init
                0x00001e10       0x34 ./gecko_sdk_3.2.3/platform/driver/leddrv/src/sl_simple_led.o
                0x00001e10                sl_simple_led_init
 .text.sl_simple_led_turn_on
                0x00001e44       0x12 ./gecko_sdk_3.2.3/platform/driver/leddrv/src/sl_simple_led.o
                0x00001e44                sl_simple_led_turn_on
 .text.sl_simple_led_turn_off
                0x00001e56       0x12 ./gecko_sdk_3.2.3/platform/driver/leddrv/src/sl_simple_led.o
                0x00001e56                sl_simple_led_turn_off
 .text.sl_simple_led_toggle
                0x00001e68       0x58 ./gecko_sdk_3.2.3/platform/driver/leddrv/src/sl_simple_led.o
                0x00001e68                sl_simple_led_toggle
 .text.sl_simple_led_get_state
                0x00001ec0       0x68 ./gecko_sdk_3.2.3/platform/driver/leddrv/src/sl_simple_led.o
                0x00001ec0                sl_simple_led_get_state
 .text.DMADRV_AllocateChannel
                0x00001f28       0x60 ./gecko_sdk_3.2.3/platform/emdrv/dmadrv/src/dmadrv.o
                0x00001f28                DMADRV_AllocateChannel
 .text.DMADRV_Init
                0x00001f88       0x6c ./gecko_sdk_3.2.3/platform/emdrv/dmadrv/src/dmadrv.o
                0x00001f88                DMADRV_Init
 .text.LDMA_IRQHandler
                0x00001ff4       0x74 ./gecko_sdk_3.2.3/platform/emdrv/dmadrv/src/dmadrv.o
                0x00001ff4                LDMA_IRQHandler
 .text.GetSpiPins
                0x00002068      0x580 ./gecko_sdk_3.2.3/platform/emdrv/spidrv/src/spidrv.o
 .text.SPIDRV_Init
                0x000025e8      0x274 ./gecko_sdk_3.2.3/platform/emdrv/spidrv/src/spidrv.o
                0x000025e8                SPIDRV_Init
 .text.DelayTicksEM1.part.0
                0x0000285c       0x60 ./gecko_sdk_3.2.3/platform/emdrv/ustimer/src/ustimer.o
 .text.USTIMER_Init
                0x000028bc       0xdc ./gecko_sdk_3.2.3/platform/emdrv/ustimer/src/ustimer.o
                0x000028bc                USTIMER_Init
 .text.USTIMER_Delay
                0x00002998       0x58 ./gecko_sdk_3.2.3/platform/emdrv/ustimer/src/ustimer.o
                0x00002998                USTIMER_Delay
 .text.TIMER0_IRQHandler
                0x000029f0       0x1c ./gecko_sdk_3.2.3/platform/emdrv/ustimer/src/ustimer.o
                0x000029f0                TIMER0_IRQHandler
 .text.assertEFM
                0x00002a0c        0x2 ./gecko_sdk_3.2.3/platform/emlib/src/em_assert.o
                0x00002a0c                assertEFM
 *fill*         0x00002a0e        0x2 
 .text.setHfLeConfig
                0x00002a10       0x44 ./gecko_sdk_3.2.3/platform/emlib/src/em_cmu.o
 .text.flashWaitStateControl
                0x00002a54       0x54 ./gecko_sdk_3.2.3/platform/emlib/src/em_cmu.o
 .text.SL_Log2ToDiv
                0x00002aa8       0x1c ./gecko_sdk_3.2.3/platform/emlib/src/em_cmu.o
 .text.flashWaitStateMax
                0x00002ac4       0x24 ./gecko_sdk_3.2.3/platform/emlib/src/em_cmu.o
 .text.EMU_VScaleWait
                0x00002ae8       0x1c ./gecko_sdk_3.2.3/platform/emlib/src/em_cmu.o
 .text.EMU_VScaleGet
                0x00002b04       0x14 ./gecko_sdk_3.2.3/platform/emlib/src/em_cmu.o
 .text.syncReg  0x00002b18       0x18 ./gecko_sdk_3.2.3/platform/emlib/src/em_cmu.o
 .text.CMU_UpdateWaitStates
                0x00002b30       0x1c ./gecko_sdk_3.2.3/platform/emlib/src/em_cmu.o
                0x00002b30                CMU_UpdateWaitStates
 .text.CMU_ClockEnable
                0x00002b4c       0x90 ./gecko_sdk_3.2.3/platform/emlib/src/em_cmu.o
                0x00002b4c                CMU_ClockEnable
 .text.CMU_ClockPrescGet
                0x00002bdc       0xd4 ./gecko_sdk_3.2.3/platform/emlib/src/em_cmu.o
                0x00002bdc                CMU_ClockPrescGet
 .text.CMU_ClockDivGet
                0x00002cb0        0xa ./gecko_sdk_3.2.3/platform/emlib/src/em_cmu.o
                0x00002cb0                CMU_ClockDivGet
 *fill*         0x00002cba        0x2 
 .text.CMU_ClockSelectGet
                0x00002cbc       0xcc ./gecko_sdk_3.2.3/platform/emlib/src/em_cmu.o
                0x00002cbc                CMU_ClockSelectGet
 .text.lfClkGet
                0x00002d88       0xc8 ./gecko_sdk_3.2.3/platform/emlib/src/em_cmu.o
 .text.CMU_ClockFreqGet
                0x00002e50      0x1c0 ./gecko_sdk_3.2.3/platform/emlib/src/em_cmu.o
                0x00002e50                CMU_ClockFreqGet
 .text.CMU_LFXOPrecisionSet
                0x00003010        0xc ./gecko_sdk_3.2.3/platform/emlib/src/em_cmu.o
                0x00003010                CMU_LFXOPrecisionSet
 .text.CMU_OscillatorTuningSet
                0x0000301c       0xf4 ./gecko_sdk_3.2.3/platform/emlib/src/em_cmu.o
                0x0000301c                CMU_OscillatorTuningSet
 .text.CMU_OscillatorTuningWait
                0x00003110       0x68 ./gecko_sdk_3.2.3/platform/emlib/src/em_cmu.o
                0x00003110                CMU_OscillatorTuningWait
 .text.CMU_OscillatorTuningOptimize
                0x00003178       0x38 ./gecko_sdk_3.2.3/platform/emlib/src/em_cmu.o
                0x00003178                CMU_OscillatorTuningOptimize
 .text.CMU_OscillatorEnable
                0x000031b0      0x124 ./gecko_sdk_3.2.3/platform/emlib/src/em_cmu.o
                0x000031b0                CMU_OscillatorEnable
 .text.CMU_ClockSelectSet
                0x000032d4      0x214 ./gecko_sdk_3.2.3/platform/emlib/src/em_cmu.o
                0x000032d4                CMU_ClockSelectSet
 .text.CMU_HFXOInit
                0x000034e8       0xb8 ./gecko_sdk_3.2.3/platform/emlib/src/em_cmu.o
                0x000034e8                CMU_HFXOInit
 .text.CMU_LFXOInit
                0x000035a0       0x58 ./gecko_sdk_3.2.3/platform/emlib/src/em_cmu.o
                0x000035a0                CMU_LFXOInit
 .text.CORE_EnterAtomic
                0x000035f8        0xc ./gecko_sdk_3.2.3/platform/emlib/src/em_core.o
                0x000035f8                CORE_EnterAtomic
 .text.CORE_ExitAtomic
                0x00003604        0x6 ./gecko_sdk_3.2.3/platform/emlib/src/em_core.o
                0x00003604                CORE_ExitAtomic
 *fill*         0x0000360a        0x2 
 .text.EMU_LDOStatusGet
                0x0000360c       0x14 ./gecko_sdk_3.2.3/platform/emlib/src/em_emu.o
 .text.lpGetDevinfoVrefLowHigh
                0x00003620       0xa8 ./gecko_sdk_3.2.3/platform/emlib/src/em_emu.o
 .text.EMU_VScaleWait
                0x000036c8       0x18 ./gecko_sdk_3.2.3/platform/emlib/src/em_emu.o
 .text.lpCmpHystCalibrationLoad.constprop.0
                0x000036e0       0x78 ./gecko_sdk_3.2.3/platform/emlib/src/em_emu.o
 .text.EMU_VScaleEM01
                0x00003758       0x80 ./gecko_sdk_3.2.3/platform/emlib/src/em_emu.o
                0x00003758                EMU_VScaleEM01
 .text.EMU_VScaleEM01ByClock
                0x000037d8       0x50 ./gecko_sdk_3.2.3/platform/emlib/src/em_emu.o
                0x000037d8                EMU_VScaleEM01ByClock
 .text.EMU_EM4Init
                0x00003828       0x54 ./gecko_sdk_3.2.3/platform/emlib/src/em_emu.o
                0x00003828                EMU_EM4Init
 .text.EMU_DCDCModeSet
                0x0000387c       0x94 ./gecko_sdk_3.2.3/platform/emlib/src/em_emu.o
                0x0000387c                EMU_DCDCModeSet
 .text.EMU_DCDCOutputVoltageSet
                0x00003910      0x18c ./gecko_sdk_3.2.3/platform/emlib/src/em_emu.o
                0x00003910                EMU_DCDCOutputVoltageSet
 .text.EMU_DCDCOptimizeSlice
                0x00003a9c       0xe0 ./gecko_sdk_3.2.3/platform/emlib/src/em_emu.o
                0x00003a9c                EMU_DCDCOptimizeSlice
 .text.EMU_DCDCLnRcoBandSet
                0x00003b7c       0x44 ./gecko_sdk_3.2.3/platform/emlib/src/em_emu.o
                0x00003b7c                EMU_DCDCLnRcoBandSet
 .text.EMU_DCDCInit
                0x00003bc0      0x170 ./gecko_sdk_3.2.3/platform/emlib/src/em_emu.o
                0x00003bc0                EMU_DCDCInit
 .text.GPIO_PinOutSet
                0x00003d30       0x58 ./gecko_sdk_3.2.3/platform/emlib/src/em_gpio.o
 .text.GPIO_PinOutClear
                0x00003d88       0x58 ./gecko_sdk_3.2.3/platform/emlib/src/em_gpio.o
 .text.GPIO_PinModeSet
                0x00003de0       0xb8 ./gecko_sdk_3.2.3/platform/emlib/src/em_gpio.o
                0x00003de0                GPIO_PinModeSet
 .text.LDMA_Init
                0x00003e98       0x84 ./gecko_sdk_3.2.3/platform/emlib/src/em_ldma.o
                0x00003e98                LDMA_Init
 .text.RTCC_ChannelInit
                0x00003f1c       0x58 ./gecko_sdk_3.2.3/platform/emlib/src/em_rtcc.o
                0x00003f1c                RTCC_ChannelInit
 .text.RTCC_Enable
                0x00003f74        0xc ./gecko_sdk_3.2.3/platform/emlib/src/em_rtcc.o
                0x00003f74                RTCC_Enable
 .text.RTCC_Init
                0x00003f80       0x68 ./gecko_sdk_3.2.3/platform/emlib/src/em_rtcc.o
                0x00003f80                RTCC_Init
 .text.TIMER_Init
                0x00003fe8       0xd4 ./gecko_sdk_3.2.3/platform/emlib/src/em_timer.o
                0x00003fe8                TIMER_Init
 .text.TIMER_InitCC
                0x000040bc       0xa8 ./gecko_sdk_3.2.3/platform/emlib/src/em_timer.o
                0x000040bc                TIMER_InitCC
 .text.USART_BaudrateSyncSet
                0x00004164       0x4c ./gecko_sdk_3.2.3/platform/emlib/src/em_usart.o
                0x00004164                USART_BaudrateSyncSet
 .text.USART_Enable
                0x000041b0       0x34 ./gecko_sdk_3.2.3/platform/emlib/src/em_usart.o
                0x000041b0                USART_Enable
 .text.USART_Reset
                0x000041e4       0x64 ./gecko_sdk_3.2.3/platform/emlib/src/em_usart.o
                0x000041e4                USART_Reset
 .text.USART_InitSync
                0x00004248       0xa4 ./gecko_sdk_3.2.3/platform/emlib/src/em_usart.o
                0x00004248                USART_InitSync
 .text.USART_SpiTransfer
                0x000042ec       0x14 ./gecko_sdk_3.2.3/platform/emlib/src/em_usart.o
                0x000042ec                USART_SpiTransfer
 .text.sl_device_init_dcdc
                0x00004300       0x2c ./gecko_sdk_3.2.3/platform/service/device_init/src/sl_device_init_dcdc_s1.o
                0x00004300                sl_device_init_dcdc
 .text.sl_device_init_emu
                0x0000432c       0x1c ./gecko_sdk_3.2.3/platform/service/device_init/src/sl_device_init_emu_s1.o
                0x0000432c                sl_device_init_emu
 .text.sl_device_init_hfxo
                0x00004348       0x70 ./gecko_sdk_3.2.3/platform/service/device_init/src/sl_device_init_hfxo_s1.o
                0x00004348                sl_device_init_hfxo
 .text.sl_device_init_lfxo
                0x000043b8       0x28 ./gecko_sdk_3.2.3/platform/service/device_init/src/sl_device_init_lfxo_s1.o
                0x000043b8                sl_device_init_lfxo
 .text.sl_device_init_nvic
                0x000043e0       0x3c ./gecko_sdk_3.2.3/platform/service/device_init/src/sl_device_init_nvic.o
                0x000043e0                sl_device_init_nvic
 .text.delta_list_insert_timer
                0x0000441c       0x44 ./gecko_sdk_3.2.3/platform/service/sleeptimer/src/sl_sleeptimer.o
 .text.update_delta_list
                0x00004460       0x38 ./gecko_sdk_3.2.3/platform/service/sleeptimer/src/sl_sleeptimer.o
 .text.set_comparator_for_next_timer
                0x00004498       0x4c ./gecko_sdk_3.2.3/platform/service/sleeptimer/src/sl_sleeptimer.o
 .text.delta_list_remove_timer
                0x000044e4       0x38 ./gecko_sdk_3.2.3/platform/service/sleeptimer/src/sl_sleeptimer.o
 .text.sl_sleeptimer_init
                0x0000451c       0x74 ./gecko_sdk_3.2.3/platform/service/sleeptimer/src/sl_sleeptimer.o
                0x0000451c                sl_sleeptimer_init
 .text.process_timer_irq
                0x00004590      0x134 ./gecko_sdk_3.2.3/platform/service/sleeptimer/src/sl_sleeptimer.o
                0x00004590                process_timer_irq
 .text.CMU_PrescToLog2.constprop.0
                0x000046c4        0x4 ./gecko_sdk_3.2.3/platform/service/sleeptimer/src/sl_sleeptimer_hal_rtcc.o
 .text.sleeptimer_hal_init_timer
                0x000046c8       0x8c ./gecko_sdk_3.2.3/platform/service/sleeptimer/src/sl_sleeptimer_hal_rtcc.o
                0x000046c8                sleeptimer_hal_init_timer
 .text.sleeptimer_hal_get_counter
                0x00004754        0xc ./gecko_sdk_3.2.3/platform/service/sleeptimer/src/sl_sleeptimer_hal_rtcc.o
                0x00004754                sleeptimer_hal_get_counter
 .text.sleeptimer_hal_set_compare
                0x00004760       0x50 ./gecko_sdk_3.2.3/platform/service/sleeptimer/src/sl_sleeptimer_hal_rtcc.o
                0x00004760                sleeptimer_hal_set_compare
 .text.sleeptimer_hal_enable_int
                0x000047b0       0x1c ./gecko_sdk_3.2.3/platform/service/sleeptimer/src/sl_sleeptimer_hal_rtcc.o
                0x000047b0                sleeptimer_hal_enable_int
 .text.sleeptimer_hal_disable_int
                0x000047cc       0x30 ./gecko_sdk_3.2.3/platform/service/sleeptimer/src/sl_sleeptimer_hal_rtcc.o
                0x000047cc                sleeptimer_hal_disable_int
 .text.RTCC_IRQHandler
                0x000047fc       0x30 ./gecko_sdk_3.2.3/platform/service/sleeptimer/src/sl_sleeptimer_hal_rtcc.o
                0x000047fc                RTCC_IRQHandler
 .text.sleeptimer_hal_get_timer_frequency
                0x0000482c       0x18 ./gecko_sdk_3.2.3/platform/service/sleeptimer/src/sl_sleeptimer_hal_rtcc.o
                0x0000482c                sleeptimer_hal_get_timer_frequency
 .text.sl_system_init
                0x00004844       0x1a ./gecko_sdk_3.2.3/platform/service/system/src/sl_system_init.o
                0x00004844                sl_system_init
 .text.sl_system_process_action
                0x0000485e       0x16 ./gecko_sdk_3.2.3/platform/service/system/src/sl_system_process_action.o
                0x0000485e                sl_system_process_action
 .text.sl_udelay_wait
                0x00004874       0x30 ./gecko_sdk_3.2.3/platform/service/udelay/src/sl_udelay.o
                0x00004874                sl_udelay_wait
 *fill*         0x000048a4        0xc 
 .text          0x000048b0        0x8 ./gecko_sdk_3.2.3/platform/service/udelay/src/sl_udelay_armv6m_gcc.o
                0x000048b0                sli_delay_loop
 .text          0x000048b8       0x30 d:/programme/siliconlabs/simplicitystudio/v5/developer/toolchains/gnu_arm/10.2_2020q4/bin/../lib/gcc/arm-none-eabi/10.2.1/thumb/v7e-m+fp/softfp\libgcc.a(_aeabi_uldivmod.o)
                0x000048b8                __aeabi_uldivmod
 .text          0x000048e8      0x2d0 d:/programme/siliconlabs/simplicitystudio/v5/developer/toolchains/gnu_arm/10.2_2020q4/bin/../lib/gcc/arm-none-eabi/10.2.1/thumb/v7e-m+fp/softfp\libgcc.a(_udivmoddi4.o)
                0x000048e8                __udivmoddi4
 .text          0x00004bb8        0x4 d:/programme/siliconlabs/simplicitystudio/v5/developer/toolchains/gnu_arm/10.2_2020q4/bin/../lib/gcc/arm-none-eabi/10.2.1/thumb/v7e-m+fp/softfp\libgcc.a(_dvmd_tls.o)
                0x00004bb8                __aeabi_idiv0
                0x00004bb8                __aeabi_ldiv0
 .text.exit     0x00004bbc       0x28 d:/programme/siliconlabs/simplicitystudio/v5/developer/toolchains/gnu_arm/10.2_2020q4/bin/../lib/gcc/arm-none-eabi/10.2.1/../../../../arm-none-eabi/lib/thumb/v7e-m+fp/softfp\libc_nano.a(lib_a-exit.o)
                0x00004bbc                exit
 .text.__libc_init_array
                0x00004be4       0x48 d:/programme/siliconlabs/simplicitystudio/v5/developer/toolchains/gnu_arm/10.2_2020q4/bin/../lib/gcc/arm-none-eabi/10.2.1/../../../../arm-none-eabi/lib/thumb/v7e-m+fp/softfp\libc_nano.a(lib_a-init.o)
                0x00004be4                __libc_init_array
 .text.malloc   0x00004c2c       0x10 d:/programme/siliconlabs/simplicitystudio/v5/developer/toolchains/gnu_arm/10.2_2020q4/bin/../lib/gcc/arm-none-eabi/10.2.1/../../../../arm-none-eabi/lib/thumb/v7e-m+fp/softfp\libc_nano.a(lib_a-malloc.o)
                0x00004c2c                malloc
 .text.free     0x00004c3c       0x10 d:/programme/siliconlabs/simplicitystudio/v5/developer/toolchains/gnu_arm/10.2_2020q4/bin/../lib/gcc/arm-none-eabi/10.2.1/../../../../arm-none-eabi/lib/thumb/v7e-m+fp/softfp\libc_nano.a(lib_a-malloc.o)
                0x00004c3c                free
 .text.memcpy   0x00004c4c       0x1c d:/programme/siliconlabs/simplicitystudio/v5/developer/toolchains/gnu_arm/10.2_2020q4/bin/../lib/gcc/arm-none-eabi/10.2.1/../../../../arm-none-eabi/lib/thumb/v7e-m+fp/softfp\libc_nano.a(lib_a-memcpy-stub.o)
                0x00004c4c                memcpy
 .text.memset   0x00004c68       0x10 d:/programme/siliconlabs/simplicitystudio/v5/developer/toolchains/gnu_arm/10.2_2020q4/bin/../lib/gcc/arm-none-eabi/10.2.1/../../../../arm-none-eabi/lib/thumb/v7e-m+fp/softfp\libc_nano.a(lib_a-memset.o)
                0x00004c68                memset
 .text._free_r  0x00004c78       0x98 d:/programme/siliconlabs/simplicitystudio/v5/developer/toolchains/gnu_arm/10.2_2020q4/bin/../lib/gcc/arm-none-eabi/10.2.1/../../../../arm-none-eabi/lib/thumb/v7e-m+fp/softfp\libc_nano.a(lib_a-nano-freer.o)
                0x00004c78                _free_r
 .text._malloc_r
                0x00004d10       0xb4 d:/programme/siliconlabs/simplicitystudio/v5/developer/toolchains/gnu_arm/10.2_2020q4/bin/../lib/gcc/arm-none-eabi/10.2.1/../../../../arm-none-eabi/lib/thumb/v7e-m+fp/softfp\libc_nano.a(lib_a-nano-mallocr.o)
                0x00004d10                _malloc_r
 .text.printf   0x00004dc4       0x30 d:/programme/siliconlabs/simplicitystudio/v5/developer/toolchains/gnu_arm/10.2_2020q4/bin/../lib/gcc/arm-none-eabi/10.2.1/../../../../arm-none-eabi/lib/thumb/v7e-m+fp/softfp\libc_nano.a(lib_a-printf.o)
                0x00004dc4                iprintf
                0x00004dc4                printf
 .text._sbrk_r  0x00004df4       0x20 d:/programme/siliconlabs/simplicitystudio/v5/developer/toolchains/gnu_arm/10.2_2020q4/bin/../lib/gcc/arm-none-eabi/10.2.1/../../../../arm-none-eabi/lib/thumb/v7e-m+fp/softfp\libc_nano.a(lib_a-sbrkr.o)
                0x00004df4                _sbrk_r
 .text.std      0x00004e14       0x48 d:/programme/siliconlabs/simplicitystudio/v5/developer/toolchains/gnu_arm/10.2_2020q4/bin/../lib/gcc/arm-none-eabi/10.2.1/../../../../arm-none-eabi/lib/thumb/v7e-m+fp/softfp\libc_nano.a(lib_a-findfp.o)
 .text._cleanup_r
                0x00004e5c        0xc d:/programme/siliconlabs/simplicitystudio/v5/developer/toolchains/gnu_arm/10.2_2020q4/bin/../lib/gcc/arm-none-eabi/10.2.1/../../../../arm-none-eabi/lib/thumb/v7e-m+fp/softfp\libc_nano.a(lib_a-findfp.o)
                0x00004e5c                _cleanup_r
 .text.__sfmoreglue
                0x00004e68       0x2c d:/programme/siliconlabs/simplicitystudio/v5/developer/toolchains/gnu_arm/10.2_2020q4/bin/../lib/gcc/arm-none-eabi/10.2.1/../../../../arm-none-eabi/lib/thumb/v7e-m+fp/softfp\libc_nano.a(lib_a-findfp.o)
                0x00004e68                __sfmoreglue
 .text.__sfp_lock_acquire
                0x00004e94        0xc d:/programme/siliconlabs/simplicitystudio/v5/developer/toolchains/gnu_arm/10.2_2020q4/bin/../lib/gcc/arm-none-eabi/10.2.1/../../../../arm-none-eabi/lib/thumb/v7e-m+fp/softfp\libc_nano.a(lib_a-findfp.o)
                0x00004e94                __sfp_lock_acquire
 .text.__sfp_lock_release
                0x00004ea0        0xc d:/programme/siliconlabs/simplicitystudio/v5/developer/toolchains/gnu_arm/10.2_2020q4/bin/../lib/gcc/arm-none-eabi/10.2.1/../../../../arm-none-eabi/lib/thumb/v7e-m+fp/softfp\libc_nano.a(lib_a-findfp.o)
                0x00004ea0                __sfp_lock_release
 .text.__sinit_lock_acquire
                0x00004eac        0xc d:/programme/siliconlabs/simplicitystudio/v5/developer/toolchains/gnu_arm/10.2_2020q4/bin/../lib/gcc/arm-none-eabi/10.2.1/../../../../arm-none-eabi/lib/thumb/v7e-m+fp/softfp\libc_nano.a(lib_a-findfp.o)
                0x00004eac                __sinit_lock_acquire
 .text.__sinit_lock_release
                0x00004eb8        0xc d:/programme/siliconlabs/simplicitystudio/v5/developer/toolchains/gnu_arm/10.2_2020q4/bin/../lib/gcc/arm-none-eabi/10.2.1/../../../../arm-none-eabi/lib/thumb/v7e-m+fp/softfp\libc_nano.a(lib_a-findfp.o)
                0x00004eb8                __sinit_lock_release
 .text.__sinit  0x00004ec4       0x70 d:/programme/siliconlabs/simplicitystudio/v5/developer/toolchains/gnu_arm/10.2_2020q4/bin/../lib/gcc/arm-none-eabi/10.2.1/../../../../arm-none-eabi/lib/thumb/v7e-m+fp/softfp\libc_nano.a(lib_a-findfp.o)
                0x00004ec4                __sinit
 .text.__sfp    0x00004f34       0x8c d:/programme/siliconlabs/simplicitystudio/v5/developer/toolchains/gnu_arm/10.2_2020q4/bin/../lib/gcc/arm-none-eabi/10.2.1/../../../../arm-none-eabi/lib/thumb/v7e-m+fp/softfp\libc_nano.a(lib_a-findfp.o)
                0x00004f34                __sfp
 .text._fwalk_reent
                0x00004fc0       0x3e d:/programme/siliconlabs/simplicitystudio/v5/developer/toolchains/gnu_arm/10.2_2020q4/bin/../lib/gcc/arm-none-eabi/10.2.1/../../../../arm-none-eabi/lib/thumb/v7e-m+fp/softfp\libc_nano.a(lib_a-fwalk.o)
                0x00004fc0                _fwalk_reent
 .text.__retarget_lock_init_recursive
                0x00004ffe        0x2 d:/programme/siliconlabs/simplicitystudio/v5/developer/toolchains/gnu_arm/10.2_2020q4/bin/../lib/gcc/arm-none-eabi/10.2.1/../../../../arm-none-eabi/lib/thumb/v7e-m+fp/softfp\libc_nano.a(lib_a-lock.o)
                0x00004ffe                __retarget_lock_init_recursive
 .text.__retarget_lock_acquire_recursive
                0x00005000        0x2 d:/programme/siliconlabs/simplicitystudio/v5/developer/toolchains/gnu_arm/10.2_2020q4/bin/../lib/gcc/arm-none-eabi/10.2.1/../../../../arm-none-eabi/lib/thumb/v7e-m+fp/softfp\libc_nano.a(lib_a-lock.o)
                0x00005000                __retarget_lock_acquire_recursive
 .text.__retarget_lock_release_recursive
                0x00005002        0x2 d:/programme/siliconlabs/simplicitystudio/v5/developer/toolchains/gnu_arm/10.2_2020q4/bin/../lib/gcc/arm-none-eabi/10.2.1/../../../../arm-none-eabi/lib/thumb/v7e-m+fp/softfp\libc_nano.a(lib_a-lock.o)
                0x00005002                __retarget_lock_release_recursive
 .text.__malloc_lock
                0x00005004        0xc d:/programme/siliconlabs/simplicitystudio/v5/developer/toolchains/gnu_arm/10.2_2020q4/bin/../lib/gcc/arm-none-eabi/10.2.1/../../../../arm-none-eabi/lib/thumb/v7e-m+fp/softfp\libc_nano.a(lib_a-mlock.o)
                0x00005004                __malloc_lock
 .text.__malloc_unlock
                0x00005010        0xc d:/programme/siliconlabs/simplicitystudio/v5/developer/toolchains/gnu_arm/10.2_2020q4/bin/../lib/gcc/arm-none-eabi/10.2.1/../../../../arm-none-eabi/lib/thumb/v7e-m+fp/softfp\libc_nano.a(lib_a-mlock.o)
                0x00005010                __malloc_unlock
 .text.__sfputc_r
                0x0000501c       0x2e d:/programme/siliconlabs/simplicitystudio/v5/developer/toolchains/gnu_arm/10.2_2020q4/bin/../lib/gcc/arm-none-eabi/10.2.1/../../../../arm-none-eabi/lib/thumb/v7e-m+fp/softfp\libc_nano.a(lib_a-nano-vfprintf.o)
 .text.__sfputs_r
                0x0000504a       0x24 d:/programme/siliconlabs/simplicitystudio/v5/developer/toolchains/gnu_arm/10.2_2020q4/bin/../lib/gcc/arm-none-eabi/10.2.1/../../../../arm-none-eabi/lib/thumb/v7e-m+fp/softfp\libc_nano.a(lib_a-nano-vfprintf.o)
                0x0000504a                __sfputs_r
 *fill*         0x0000506e        0x2 
 .text._vfprintf_r
                0x00005070      0x260 d:/programme/siliconlabs/simplicitystudio/v5/developer/toolchains/gnu_arm/10.2_2020q4/bin/../lib/gcc/arm-none-eabi/10.2.1/../../../../arm-none-eabi/lib/thumb/v7e-m+fp/softfp\libc_nano.a(lib_a-nano-vfprintf.o)
                0x00005070                _vfprintf_r
                0x00005070                _vfiprintf_r
 .text._printf_common
                0x000052d0       0xda d:/programme/siliconlabs/simplicitystudio/v5/developer/toolchains/gnu_arm/10.2_2020q4/bin/../lib/gcc/arm-none-eabi/10.2.1/../../../../arm-none-eabi/lib/thumb/v7e-m+fp/softfp\libc_nano.a(lib_a-nano-vfprintf_i.o)
                0x000052d0                _printf_common
 *fill*         0x000053aa        0x2 
 .text._printf_i
                0x000053ac      0x24c d:/programme/siliconlabs/simplicitystudio/v5/developer/toolchains/gnu_arm/10.2_2020q4/bin/../lib/gcc/arm-none-eabi/10.2.1/../../../../arm-none-eabi/lib/thumb/v7e-m+fp/softfp\libc_nano.a(lib_a-nano-vfprintf_i.o)
                0x000053ac                _printf_i
 .text.__sread  0x000055f8       0x22 d:/programme/siliconlabs/simplicitystudio/v5/developer/toolchains/gnu_arm/10.2_2020q4/bin/../lib/gcc/arm-none-eabi/10.2.1/../../../../arm-none-eabi/lib/thumb/v7e-m+fp/softfp\libc_nano.a(lib_a-stdio.o)
                0x000055f8                __sread
 .text.__swrite
                0x0000561a       0x38 d:/programme/siliconlabs/simplicitystudio/v5/developer/toolchains/gnu_arm/10.2_2020q4/bin/../lib/gcc/arm-none-eabi/10.2.1/../../../../arm-none-eabi/lib/thumb/v7e-m+fp/softfp\libc_nano.a(lib_a-stdio.o)
                0x0000561a                __swrite
 .text.__sseek  0x00005652       0x24 d:/programme/siliconlabs/simplicitystudio/v5/developer/toolchains/gnu_arm/10.2_2020q4/bin/../lib/gcc/arm-none-eabi/10.2.1/../../../../arm-none-eabi/lib/thumb/v7e-m+fp/softfp\libc_nano.a(lib_a-stdio.o)
                0x00005652                __sseek
 .text.__sclose
                0x00005676        0x8 d:/programme/siliconlabs/simplicitystudio/v5/developer/toolchains/gnu_arm/10.2_2020q4/bin/../lib/gcc/arm-none-eabi/10.2.1/../../../../arm-none-eabi/lib/thumb/v7e-m+fp/softfp\libc_nano.a(lib_a-stdio.o)
                0x00005676                __sclose
 *fill*         0x0000567e        0x2 
 .text.__swbuf_r
                0x00005680       0xa4 d:/programme/siliconlabs/simplicitystudio/v5/developer/toolchains/gnu_arm/10.2_2020q4/bin/../lib/gcc/arm-none-eabi/10.2.1/../../../../arm-none-eabi/lib/thumb/v7e-m+fp/softfp\libc_nano.a(lib_a-wbuf.o)
                0x00005680                __swbuf_r
 .text._write_r
                0x00005724       0x24 d:/programme/siliconlabs/simplicitystudio/v5/developer/toolchains/gnu_arm/10.2_2020q4/bin/../lib/gcc/arm-none-eabi/10.2.1/../../../../arm-none-eabi/lib/thumb/v7e-m+fp/softfp\libc_nano.a(lib_a-writer.o)
                0x00005724                _write_r
 .text.__swsetup_r
                0x00005748       0xdc d:/programme/siliconlabs/simplicitystudio/v5/developer/toolchains/gnu_arm/10.2_2020q4/bin/../lib/gcc/arm-none-eabi/10.2.1/../../../../arm-none-eabi/lib/thumb/v7e-m+fp/softfp\libc_nano.a(lib_a-wsetup.o)
                0x00005748                __swsetup_r
 .text._close_r
                0x00005824       0x20 d:/programme/siliconlabs/simplicitystudio/v5/developer/toolchains/gnu_arm/10.2_2020q4/bin/../lib/gcc/arm-none-eabi/10.2.1/../../../../arm-none-eabi/lib/thumb/v7e-m+fp/softfp\libc_nano.a(lib_a-closer.o)
                0x00005824                _close_r
 .text.__sflush_r
                0x00005844      0x10c d:/programme/siliconlabs/simplicitystudio/v5/developer/toolchains/gnu_arm/10.2_2020q4/bin/../lib/gcc/arm-none-eabi/10.2.1/../../../../arm-none-eabi/lib/thumb/v7e-m+fp/softfp\libc_nano.a(lib_a-fflush.o)
                0x00005844                __sflush_r
 .text._fflush_r
                0x00005950       0x78 d:/programme/siliconlabs/simplicitystudio/v5/developer/toolchains/gnu_arm/10.2_2020q4/bin/../lib/gcc/arm-none-eabi/10.2.1/../../../../arm-none-eabi/lib/thumb/v7e-m+fp/softfp\libc_nano.a(lib_a-fflush.o)
                0x00005950                _fflush_r
 .text._lseek_r
                0x000059c8       0x24 d:/programme/siliconlabs/simplicitystudio/v5/developer/toolchains/gnu_arm/10.2_2020q4/bin/../lib/gcc/arm-none-eabi/10.2.1/../../../../arm-none-eabi/lib/thumb/v7e-m+fp/softfp\libc_nano.a(lib_a-lseekr.o)
                0x000059c8                _lseek_r
 .text.__swhatbuf_r
                0x000059ec       0x4a d:/programme/siliconlabs/simplicitystudio/v5/developer/toolchains/gnu_arm/10.2_2020q4/bin/../lib/gcc/arm-none-eabi/10.2.1/../../../../arm-none-eabi/lib/thumb/v7e-m+fp/softfp\libc_nano.a(lib_a-makebuf.o)
                0x000059ec                __swhatbuf_r
 *fill*         0x00005a36        0x2 
 .text.__smakebuf_r
                0x00005a38       0x80 d:/programme/siliconlabs/simplicitystudio/v5/developer/toolchains/gnu_arm/10.2_2020q4/bin/../lib/gcc/arm-none-eabi/10.2.1/../../../../arm-none-eabi/lib/thumb/v7e-m+fp/softfp\libc_nano.a(lib_a-makebuf.o)
                0x00005a38                __smakebuf_r
 *fill*         0x00005ab8        0x8 
 .text          0x00005ac0       0xa0 d:/programme/siliconlabs/simplicitystudio/v5/developer/toolchains/gnu_arm/10.2_2020q4/bin/../lib/gcc/arm-none-eabi/10.2.1/../../../../arm-none-eabi/lib/thumb/v7e-m+fp/softfp\libc_nano.a(lib_a-memchr.o)
                0x00005ac0                memchr
 .text._read_r  0x00005b60       0x24 d:/programme/siliconlabs/simplicitystudio/v5/developer/toolchains/gnu_arm/10.2_2020q4/bin/../lib/gcc/arm-none-eabi/10.2.1/../../../../arm-none-eabi/lib/thumb/v7e-m+fp/softfp\libc_nano.a(lib_a-readr.o)
                0x00005b60                _read_r
 .text._fstat_r
                0x00005b84       0x24 d:/programme/siliconlabs/simplicitystudio/v5/developer/toolchains/gnu_arm/10.2_2020q4/bin/../lib/gcc/arm-none-eabi/10.2.1/../../../../arm-none-eabi/lib/thumb/v7e-m+fp/softfp\libc_nano.a(lib_a-fstatr.o)
                0x00005b84                _fstat_r
 .text._isatty_r
                0x00005ba8       0x20 d:/programme/siliconlabs/simplicitystudio/v5/developer/toolchains/gnu_arm/10.2_2020q4/bin/../lib/gcc/arm-none-eabi/10.2.1/../../../../arm-none-eabi/lib/thumb/v7e-m+fp/softfp\libc_nano.a(lib_a-isattyr.o)
                0x00005ba8                _isatty_r
 .text._close   0x00005bc8       0x10 d:/programme/siliconlabs/simplicitystudio/v5/developer/toolchains/gnu_arm/10.2_2020q4/bin/../lib/gcc/arm-none-eabi/10.2.1/../../../../arm-none-eabi/lib/thumb/v7e-m+fp/softfp\libnosys.a(close.o)
                0x00005bc8                _close
 .text._fstat   0x00005bd8       0x10 d:/programme/siliconlabs/simplicitystudio/v5/developer/toolchains/gnu_arm/10.2_2020q4/bin/../lib/gcc/arm-none-eabi/10.2.1/../../../../arm-none-eabi/lib/thumb/v7e-m+fp/softfp\libnosys.a(fstat.o)
                0x00005bd8                _fstat
 .text._isatty  0x00005be8       0x10 d:/programme/siliconlabs/simplicitystudio/v5/developer/toolchains/gnu_arm/10.2_2020q4/bin/../lib/gcc/arm-none-eabi/10.2.1/../../../../arm-none-eabi/lib/thumb/v7e-m+fp/softfp\libnosys.a(isatty.o)
                0x00005be8                _isatty
 .text._lseek   0x00005bf8       0x10 d:/programme/siliconlabs/simplicitystudio/v5/developer/toolchains/gnu_arm/10.2_2020q4/bin/../lib/gcc/arm-none-eabi/10.2.1/../../../../arm-none-eabi/lib/thumb/v7e-m+fp/softfp\libnosys.a(lseek.o)
                0x00005bf8                _lseek
 .text._read    0x00005c08       0x10 d:/programme/siliconlabs/simplicitystudio/v5/developer/toolchains/gnu_arm/10.2_2020q4/bin/../lib/gcc/arm-none-eabi/10.2.1/../../../../arm-none-eabi/lib/thumb/v7e-m+fp/softfp\libnosys.a(read.o)
                0x00005c08                _read
 .text._write   0x00005c18       0x10 d:/programme/siliconlabs/simplicitystudio/v5/developer/toolchains/gnu_arm/10.2_2020q4/bin/../lib/gcc/arm-none-eabi/10.2.1/../../../../arm-none-eabi/lib/thumb/v7e-m+fp/softfp\libnosys.a(write.o)
                0x00005c18                _write
 .text._exit    0x00005c28        0x4 d:/programme/siliconlabs/simplicitystudio/v5/developer/toolchains/gnu_arm/10.2_2020q4/bin/../lib/gcc/arm-none-eabi/10.2.1/../../../../arm-none-eabi/lib/thumb/v7e-m+fp/softfp\libnosys.a(_exit.o)
                0x00005c28                _exit
                0x00005c2c                linker_code_end = .
 *(.init)
 .init          0x00005c2c        0x4 d:/programme/siliconlabs/simplicitystudio/v5/developer/toolchains/gnu_arm/10.2_2020q4/bin/../lib/gcc/arm-none-eabi/10.2.1/thumb/v7e-m+fp/softfp/crti.o
                0x00005c2c                _init
 .init          0x00005c30        0x8 d:/programme/siliconlabs/simplicitystudio/v5/developer/toolchains/gnu_arm/10.2_2020q4/bin/../lib/gcc/arm-none-eabi/10.2.1/thumb/v7e-m+fp/softfp/crtn.o
 *(.fini)
 .fini          0x00005c38        0x4 d:/programme/siliconlabs/simplicitystudio/v5/developer/toolchains/gnu_arm/10.2_2020q4/bin/../lib/gcc/arm-none-eabi/10.2.1/thumb/v7e-m+fp/softfp/crti.o
                0x00005c38                _fini
 .fini          0x00005c3c        0x8 d:/programme/siliconlabs/simplicitystudio/v5/developer/toolchains/gnu_arm/10.2_2020q4/bin/../lib/gcc/arm-none-eabi/10.2.1/thumb/v7e-m+fp/softfp/crtn.o
 *crtbegin.o(.ctors)
 *crtbegin?.o(.ctors)
 *(EXCLUDE_FILE(*crtend.o *crtend?.o) .ctors)
 *(SORT_BY_NAME(.ctors.*))
 *(.ctors)
 *crtbegin.o(.dtors)
 *crtbegin?.o(.dtors)
 *(EXCLUDE_FILE(*crtend.o *crtend?.o) .dtors)
 *(SORT_BY_NAME(.dtors.*))
 *(.dtors)
 *(.rodata*)
 .rodata.CSWTCH.570
                0x00005c44       0x3c ./ZOE-M8Q_functions.o
 .rodata.CSWTCH.571
                0x00005c80       0x14 ./ZOE-M8Q_functions.o
 .rodata.CSWTCH.572
                0x00005c94        0x3 ./ZOE-M8Q_functions.o
 .rodata.spidrv_app_zoe_init.str1.1
                0x00005c97       0x39 ./spidrv_zoe.o
 .rodata        0x00005cd0       0x18 ./spidrv_zoe.o
 .rodata.tx_buffer
                0x00005ce8        0xa ./spidrv_zoe.o
 *fill*         0x00005cf2        0x2 
 .rodata.sl_led_led0
                0x00005cf4       0x18 ./autogen/sl_simple_led_instances.o
                0x00005cf4                sl_led_led0
 .rodata        0x00005d0c       0x18 ./gecko_sdk_3.2.3/hardware/driver/mx25_flash_shutdown/src/sl_mx25_flash_shutdown_usart/sl_mx25_flash_shutdown.o
 .rodata.GPIO_PinOutClear.str1.1
                0x00005d24       0x6e ./gecko_sdk_3.2.3/platform/driver/leddrv/src/sl_simple_led.o
 .rodata        0x00005d92        0x4 ./gecko_sdk_3.2.3/platform/emdrv/dmadrv/src/dmadrv.o
 *fill*         0x00005d96        0x2 
 .rodata        0x00005d98       0x18 ./gecko_sdk_3.2.3/platform/emdrv/spidrv/src/spidrv.o
 .rodata.flashWaitStateControl.str1.1
                0x00005db0       0x6d ./gecko_sdk_3.2.3/platform/emlib/src/em_cmu.o
 .rodata.SL_Log2ToDiv.str1.1
                0x00005e1d       0x70 ./gecko_sdk_3.2.3/platform/emlib/src/em_cmu.o
 .rodata.CSWTCH.46
                0x00005e8d        0x6 ./gecko_sdk_3.2.3/platform/emlib/src/em_cmu.o
 .rodata.CSWTCH.47
                0x00005e93        0x4 ./gecko_sdk_3.2.3/platform/emlib/src/em_cmu.o
 .rodata.CSWTCH.48
                0x00005e97        0x4 ./gecko_sdk_3.2.3/platform/emlib/src/em_cmu.o
 .rodata.CSWTCH.67
                0x00005e9b        0x5 ./gecko_sdk_3.2.3/platform/emlib/src/em_cmu.o
 .rodata.CSWTCH.68
                0x00005ea0        0x5 ./gecko_sdk_3.2.3/platform/emlib/src/em_cmu.o
 *fill*         0x00005ea5        0x1 
 .rodata.CSWTCH.69
                0x00005ea6        0xa ./gecko_sdk_3.2.3/platform/emlib/src/em_cmu.o
 .rodata.CSWTCH.70
                0x00005eb0        0xa ./gecko_sdk_3.2.3/platform/emlib/src/em_cmu.o
 *fill*         0x00005eba        0x2 
 .rodata.flashWsTable
                0x00005ebc       0x28 ./gecko_sdk_3.2.3/platform/emlib/src/em_cmu.o
 .rodata.lpGetDevinfoVrefLowHigh.str1.1
                0x00005ee4       0x6d ./gecko_sdk_3.2.3/platform/emlib/src/em_emu.o
 .rodata.GPIO_PinOutSet.str1.1
                0x00005f51       0x6e ./gecko_sdk_3.2.3/platform/emlib/src/em_gpio.o
 .rodata.GPIO_DbgLocationSet.str1.1
                0x00005f51       0x6e ./gecko_sdk_3.2.3/platform/emlib/src/em_gpio.o
 .rodata.LDMA_EnableChannelRequest.str1.1
                0x00005fbf       0xdb ./gecko_sdk_3.2.3/platform/emlib/src/em_ldma.o
 .rodata.RTCC_ChannelInit.str1.1
                0x0000609a       0x6e ./gecko_sdk_3.2.3/platform/emlib/src/em_rtcc.o
 .rodata.TIMER_Init.str1.1
                0x00006108       0x6f ./gecko_sdk_3.2.3/platform/emlib/src/em_timer.o
 .rodata.USART_BaudrateAsyncSet.str1.1
                0x00006177       0x6f ./gecko_sdk_3.2.3/platform/emlib/src/em_usart.o
 .rodata        0x000061e6       0x10 ./gecko_sdk_3.2.3/platform/service/device_init/src/sl_device_init_dcdc_s1.o
 .rodata        0x000061f6       0x12 ./gecko_sdk_3.2.3/platform/service/device_init/src/sl_device_init_hfxo_s1.o
 .rodata        0x00006208        0x4 ./gecko_sdk_3.2.3/platform/service/device_init/src/sl_device_init_lfxo_s1.o
 .rodata.process_timer_irq.str1.1
                0x0000620c       0x81 ./gecko_sdk_3.2.3/platform/service/sleeptimer/src/sl_sleeptimer.o
 .rodata        0x0000628d       0x10 ./gecko_sdk_3.2.3/platform/service/sleeptimer/src/sl_sleeptimer_hal_rtcc.o
 *fill*         0x0000629d        0x3 
 .rodata._global_impure_ptr
                0x000062a0        0x4 d:/programme/siliconlabs/simplicitystudio/v5/developer/toolchains/gnu_arm/10.2_2020q4/bin/../lib/gcc/arm-none-eabi/10.2.1/../../../../arm-none-eabi/lib/thumb/v7e-m+fp/softfp\libc_nano.a(lib_a-impure.o)
                0x000062a0                _global_impure_ptr
 .rodata.__sf_fake_stderr
                0x000062a4       0x20 d:/programme/siliconlabs/simplicitystudio/v5/developer/toolchains/gnu_arm/10.2_2020q4/bin/../lib/gcc/arm-none-eabi/10.2.1/../../../../arm-none-eabi/lib/thumb/v7e-m+fp/softfp\libc_nano.a(lib_a-findfp.o)
                0x000062a4                __sf_fake_stderr
 .rodata.__sf_fake_stdin
                0x000062c4       0x20 d:/programme/siliconlabs/simplicitystudio/v5/developer/toolchains/gnu_arm/10.2_2020q4/bin/../lib/gcc/arm-none-eabi/10.2.1/../../../../arm-none-eabi/lib/thumb/v7e-m+fp/softfp\libc_nano.a(lib_a-findfp.o)
                0x000062c4                __sf_fake_stdin
 .rodata.__sf_fake_stdout
                0x000062e4       0x20 d:/programme/siliconlabs/simplicitystudio/v5/developer/toolchains/gnu_arm/10.2_2020q4/bin/../lib/gcc/arm-none-eabi/10.2.1/../../../../arm-none-eabi/lib/thumb/v7e-m+fp/softfp\libc_nano.a(lib_a-findfp.o)
                0x000062e4                __sf_fake_stdout
 .rodata._vfprintf_r.str1.1
                0x00006304       0x11 d:/programme/siliconlabs/simplicitystudio/v5/developer/toolchains/gnu_arm/10.2_2020q4/bin/../lib/gcc/arm-none-eabi/10.2.1/../../../../arm-none-eabi/lib/thumb/v7e-m+fp/softfp\libc_nano.a(lib_a-nano-vfprintf.o)
 .rodata._printf_i.str1.1
                0x00006315       0x22 d:/programme/siliconlabs/simplicitystudio/v5/developer/toolchains/gnu_arm/10.2_2020q4/bin/../lib/gcc/arm-none-eabi/10.2.1/../../../../arm-none-eabi/lib/thumb/v7e-m+fp/softfp\libc_nano.a(lib_a-nano-vfprintf_i.o)
 *(.eh_frame*)
 *fill*         0x00006337        0x1 
 .eh_frame      0x00006338        0x0 d:/programme/siliconlabs/simplicitystudio/v5/developer/toolchains/gnu_arm/10.2_2020q4/bin/../lib/gcc/arm-none-eabi/10.2.1/thumb/v7e-m+fp/softfp/crtbegin.o

.glue_7         0x00006338        0x0
 .glue_7        0x00006338        0x0 linker stubs

.glue_7t        0x00006338        0x0
 .glue_7t       0x00006338        0x0 linker stubs

.vfp11_veneer   0x00006338        0x0
 .vfp11_veneer  0x00006338        0x0 linker stubs

.v4_bx          0x00006338        0x0
 .v4_bx         0x00006338        0x0 linker stubs

.iplt           0x00006338        0x0
 .iplt          0x00006338        0x0 d:/programme/siliconlabs/simplicitystudio/v5/developer/toolchains/gnu_arm/10.2_2020q4/bin/../lib/gcc/arm-none-eabi/10.2.1/thumb/v7e-m+fp/softfp/crtbegin.o

.ARM.extab
 *(.ARM.extab* .gnu.linkonce.armextab.*)
                0x00006338                __exidx_start = .

.ARM.exidx      0x00006338        0x8
 *(.ARM.exidx* .gnu.linkonce.armexidx.*)
 .ARM.exidx     0x00006338        0x8 d:/programme/siliconlabs/simplicitystudio/v5/developer/toolchains/gnu_arm/10.2_2020q4/bin/../lib/gcc/arm-none-eabi/10.2.1/../../../../arm-none-eabi/lib/thumb/v7e-m+fp/softfp/crt0.o
                                 0x10 (size before relaxing)
 .ARM.exidx     0x00006340        0x0 d:/programme/siliconlabs/simplicitystudio/v5/developer/toolchains/gnu_arm/10.2_2020q4/bin/../lib/gcc/arm-none-eabi/10.2.1/thumb/v7e-m+fp/softfp\libgcc.a(_udivmoddi4.o)
                                  0x8 (size before relaxing)
                0x00006340                __exidx_end = .
                0x00006340                __etext = .

.rel.dyn        0x00006340        0x0
 .rel.iplt      0x00006340        0x0 d:/programme/siliconlabs/simplicitystudio/v5/developer/toolchains/gnu_arm/10.2_2020q4/bin/../lib/gcc/arm-none-eabi/10.2.1/thumb/v7e-m+fp/softfp/crtbegin.o
                0x20000000                . = ORIGIN (RAM)

.stack          0x20000000     0x1000
                0x20000000                __StackLimit = .
 *(.stack*)
 .stack         0x20000000        0x0 ./gecko_sdk_3.2.3/platform/Device/SiliconLabs/EFR32FG14P/Source/GCC/startup_efr32fg14p.o
 .stack         0x20000000     0x1000 ./gecko_sdk_3.2.3/platform/common/toolchain/src/sl_memory.o
                0x20001000                . = ALIGN (0x4)
                0x20001000                __StackTop = .
                0x20001000                PROVIDE (__stack = __StackTop)

.noinit
 *(.noinit*)

.data           0x20001000       0xf4 load address 0x00006340
                0x20001000                . = ALIGN (0x4)
                0x20001000                __data_start__ = .
 *(vtable)
 *(.data*)
 .data.activePacketBuffer
                0x20001000        0x1 ./ZOE-M8Q_functions.o
                0x20001000                activePacketBuffer
 *fill*         0x20001001        0x1 
 .data.maxWait  0x20001002        0x2 ./ZOE-M8Q_functions.o
                0x20001002                maxWait
 .data.packetAck
                0x20001004       0x10 ./ZOE-M8Q_functions.o
                0x20001004                packetAck
 .data.packetAuto
                0x20001014       0x10 ./ZOE-M8Q_functions.o
                0x20001014                packetAuto
 .data.packetBuf
                0x20001024       0x10 ./ZOE-M8Q_functions.o
                0x20001024                packetBuf
 .data.packetCfg
                0x20001034       0x10 ./ZOE-M8Q_functions.o
                0x20001034                packetCfg
 .data.spiPollingWait
                0x20001044        0x1 ./ZOE-M8Q_functions.o
                0x20001044                spiPollingWait
 .data.spiTransactionSize
                0x20001045        0x1 ./ZOE-M8Q_functions.o
                0x20001045                spiTransactionSize
 .data.simple_led0_context
                0x20001046        0x3 ./autogen/sl_simple_led_instances.o
                0x20001046                simple_led0_context
 *fill*         0x20001049        0x3 
 .data.sl_spidrv_exp_handle
                0x2000104c        0x4 ./autogen/sl_spidrv_init.o
                0x2000104c                sl_spidrv_exp_handle
 .data.sl_spidrv_init_exp
                0x20001050       0x1c ./autogen/sl_spidrv_init.o
                0x20001050                sl_spidrv_init_exp
 .data.SystemCoreClock
                0x2000106c        0x4 ./gecko_sdk_3.2.3/platform/Device/SiliconLabs/EFR32FG14P/Source/system_efr32fg14p.o
                0x2000106c                SystemCoreClock
 .data.SystemHFXOClock
                0x20001070        0x4 ./gecko_sdk_3.2.3/platform/Device/SiliconLabs/EFR32FG14P/Source/system_efr32fg14p.o
 .data.SystemHfrcoFreq
                0x20001074        0x4 ./gecko_sdk_3.2.3/platform/Device/SiliconLabs/EFR32FG14P/Source/system_efr32fg14p.o
                0x20001074                SystemHfrcoFreq
 .data.SystemLFXOClock
                0x20001078        0x4 ./gecko_sdk_3.2.3/platform/Device/SiliconLabs/EFR32FG14P/Source/system_efr32fg14p.o
 .data.heap_end.0
                0x2000107c        0x4 ./gecko_sdk_3.2.3/platform/common/toolchain/src/sl_memory.o
 .data.auxHfrcoFreq
                0x20001080        0x4 ./gecko_sdk_3.2.3/platform/emlib/src/em_cmu.o
 .data.lfxo_precision
                0x20001084        0x2 ./gecko_sdk_3.2.3/platform/emlib/src/em_cmu.o
 .data.cc_disabled
                0x20001086        0x1 ./gecko_sdk_3.2.3/platform/service/sleeptimer/src/sl_sleeptimer_hal_rtcc.o
 *fill*         0x20001087        0x1 
 .data._impure_ptr
                0x20001088        0x4 d:/programme/siliconlabs/simplicitystudio/v5/developer/toolchains/gnu_arm/10.2_2020q4/bin/../lib/gcc/arm-none-eabi/10.2.1/../../../../arm-none-eabi/lib/thumb/v7e-m+fp/softfp\libc_nano.a(lib_a-impure.o)
                0x20001088                _impure_ptr
 .data.impure_data
                0x2000108c       0x60 d:/programme/siliconlabs/simplicitystudio/v5/developer/toolchains/gnu_arm/10.2_2020q4/bin/../lib/gcc/arm-none-eabi/10.2.1/../../../../arm-none-eabi/lib/thumb/v7e-m+fp/softfp\libc_nano.a(lib_a-impure.o)
                0x200010ec                . = ALIGN (0x4)
                [!provide]                PROVIDE (__ram_func_section_start = .)
 *(.ram)
                [!provide]                PROVIDE (__ram_func_section_end = .)
                0x200010ec                . = ALIGN (0x4)
                0x200010ec                PROVIDE (__preinit_array_start = .)
 *(.preinit_array)
                0x200010ec                PROVIDE (__preinit_array_end = .)
                0x200010ec                . = ALIGN (0x4)
                0x200010ec                PROVIDE (__init_array_start = .)
 *(SORT_BY_NAME(.init_array.*))
 *(.init_array)
 .init_array    0x200010ec        0x4 d:/programme/siliconlabs/simplicitystudio/v5/developer/toolchains/gnu_arm/10.2_2020q4/bin/../lib/gcc/arm-none-eabi/10.2.1/thumb/v7e-m+fp/softfp/crtbegin.o
                0x200010f0                PROVIDE (__init_array_end = .)
                0x200010f0                . = ALIGN (0x4)
                [!provide]                PROVIDE (__fini_array_start = .)
 *(SORT_BY_NAME(.fini_array.*))
 *(.fini_array)
 .fini_array    0x200010f0        0x4 d:/programme/siliconlabs/simplicitystudio/v5/developer/toolchains/gnu_arm/10.2_2020q4/bin/../lib/gcc/arm-none-eabi/10.2.1/thumb/v7e-m+fp/softfp/crtbegin.o
                [!provide]                PROVIDE (__fini_array_end = .)
                0x200010f4                . = ALIGN (0x4)
                0x200010f4                __data_end__ = .

.igot.plt       0x200010f4        0x0 load address 0x00006434
 .igot.plt      0x200010f4        0x0 d:/programme/siliconlabs/simplicitystudio/v5/developer/toolchains/gnu_arm/10.2_2020q4/bin/../lib/gcc/arm-none-eabi/10.2.1/thumb/v7e-m+fp/softfp/crtbegin.o

.bss            0x200010f4      0x2f4 load address 0x00006434
                0x200010f4                . = ALIGN (0x4)
                0x200010f4                __bss_start__ = .
 *(.bss*)
 .bss           0x200010f4       0x1c d:/programme/siliconlabs/simplicitystudio/v5/developer/toolchains/gnu_arm/10.2_2020q4/bin/../lib/gcc/arm-none-eabi/10.2.1/thumb/v7e-m+fp/softfp/crtbegin.o
 .bss.currentSentence
                0x20001110        0x1 ./ZOE-M8Q_functions.o
                0x20001110                currentSentence
 *fill*         0x20001111        0x1 
 .bss.fileBufferHead
                0x20001112        0x2 ./ZOE-M8Q_functions.o
                0x20001112                fileBufferHead
 .bss.fileBufferMaxAvail
                0x20001114        0x2 ./ZOE-M8Q_functions.o
                0x20001114                fileBufferMaxAvail
 .bss.fileBufferSize
                0x20001116        0x2 ./ZOE-M8Q_functions.o
                0x20001116                fileBufferSize
 .bss.fileBufferTail
                0x20001118        0x2 ./ZOE-M8Q_functions.o
                0x20001118                fileBufferTail
 .bss.ignoreThisPayload
                0x2000111a        0x1 ./ZOE-M8Q_functions.o
                0x2000111a                ignoreThisPayload
 *fill*         0x2000111b        0x1 
 .bss.packetCfgPayloadSize
                0x2000111c        0x4 ./ZOE-M8Q_functions.o
                0x2000111c                packetCfgPayloadSize
 .bss.packetUBXCFGRATE
                0x20001120        0x4 ./ZOE-M8Q_functions.o
                0x20001120                packetUBXCFGRATE
 .bss.packetUBXESFALG
                0x20001124        0x4 ./ZOE-M8Q_functions.o
                0x20001124                packetUBXESFALG
 .bss.packetUBXESFINS
                0x20001128        0x4 ./ZOE-M8Q_functions.o
                0x20001128                packetUBXESFINS
 .bss.packetUBXESFMEAS
                0x2000112c        0x4 ./ZOE-M8Q_functions.o
                0x2000112c                packetUBXESFMEAS
 .bss.packetUBXESFRAW
                0x20001130        0x4 ./ZOE-M8Q_functions.o
                0x20001130                packetUBXESFRAW
 .bss.packetUBXESFSTATUS
                0x20001134        0x4 ./ZOE-M8Q_functions.o
                0x20001134                packetUBXESFSTATUS
 .bss.packetUBXHNRATT
                0x20001138        0x4 ./ZOE-M8Q_functions.o
                0x20001138                packetUBXHNRATT
 .bss.packetUBXHNRINS
                0x2000113c        0x4 ./ZOE-M8Q_functions.o
                0x2000113c                packetUBXHNRINS
 .bss.packetUBXHNRPVT
                0x20001140        0x4 ./ZOE-M8Q_functions.o
                0x20001140                packetUBXHNRPVT
 .bss.packetUBXNAVATT
                0x20001144        0x4 ./ZOE-M8Q_functions.o
                0x20001144                packetUBXNAVATT
 .bss.packetUBXNAVCLOCK
                0x20001148        0x4 ./ZOE-M8Q_functions.o
                0x20001148                packetUBXNAVCLOCK
 .bss.packetUBXNAVDOP
                0x2000114c        0x4 ./ZOE-M8Q_functions.o
                0x2000114c                packetUBXNAVDOP
 .bss.packetUBXNAVHPPOSECEF
                0x20001150        0x4 ./ZOE-M8Q_functions.o
                0x20001150                packetUBXNAVHPPOSECEF
 .bss.packetUBXNAVHPPOSLLH
                0x20001154        0x4 ./ZOE-M8Q_functions.o
                0x20001154                packetUBXNAVHPPOSLLH
 .bss.packetUBXNAVODO
                0x20001158        0x4 ./ZOE-M8Q_functions.o
                0x20001158                packetUBXNAVODO
 .bss.packetUBXNAVPOSECEF
                0x2000115c        0x4 ./ZOE-M8Q_functions.o
                0x2000115c                packetUBXNAVPOSECEF
 .bss.packetUBXNAVPVT
                0x20001160        0x4 ./ZOE-M8Q_functions.o
                0x20001160                packetUBXNAVPVT
 .bss.packetUBXNAVRELPOSNED
                0x20001164        0x4 ./ZOE-M8Q_functions.o
                0x20001164                packetUBXNAVRELPOSNED
 .bss.packetUBXNAVSTATUS
                0x20001168        0x4 ./ZOE-M8Q_functions.o
                0x20001168                packetUBXNAVSTATUS
 .bss.packetUBXNAVSVIN
                0x2000116c        0x4 ./ZOE-M8Q_functions.o
                0x2000116c                packetUBXNAVSVIN
 .bss.packetUBXNAVTIMELS
                0x20001170        0x4 ./ZOE-M8Q_functions.o
                0x20001170                packetUBXNAVTIMELS
 .bss.packetUBXNAVVELECEF
                0x20001174        0x4 ./ZOE-M8Q_functions.o
                0x20001174                packetUBXNAVVELECEF
 .bss.packetUBXNAVVELNED
                0x20001178        0x4 ./ZOE-M8Q_functions.o
                0x20001178                packetUBXNAVVELNED
 .bss.packetUBXRXMRAWX
                0x2000117c        0x4 ./ZOE-M8Q_functions.o
                0x2000117c                packetUBXRXMRAWX
 .bss.packetUBXRXMSFRBX
                0x20001180        0x4 ./ZOE-M8Q_functions.o
                0x20001180                packetUBXRXMSFRBX
 .bss.packetUBXTIMTM2
                0x20001184        0x4 ./ZOE-M8Q_functions.o
                0x20001184                packetUBXTIMTM2
 .bss.payloadAck
                0x20001188        0x2 ./ZOE-M8Q_functions.o
                0x20001188                payloadAck
 *fill*         0x2000118a        0x2 
 .bss.payloadAuto
                0x2000118c        0x4 ./ZOE-M8Q_functions.o
                0x2000118c                payloadAuto
 .bss.payloadBuf
                0x20001190        0x2 ./ZOE-M8Q_functions.o
                0x20001190                payloadBuf
 *fill*         0x20001192        0x2 
 .bss.payloadCfg
                0x20001194        0x4 ./ZOE-M8Q_functions.o
                0x20001194                payloadCfg
 .bss.rollingChecksumA
                0x20001198        0x1 ./ZOE-M8Q_functions.o
                0x20001198                rollingChecksumA
 .bss.rollingChecksumB
                0x20001199        0x1 ./ZOE-M8Q_functions.o
                0x20001199                rollingChecksumB
 *fill*         0x2000119a        0x2 
 .bss.spiBuffer
                0x2000119c        0x4 ./ZOE-M8Q_functions.o
                0x2000119c                spiBuffer
 .bss.spiBufferIndex
                0x200011a0        0x1 ./ZOE-M8Q_functions.o
                0x200011a0                spiBufferIndex
 *fill*         0x200011a1        0x3 
 .bss.ubxFileBuffer
                0x200011a4        0x4 ./ZOE-M8Q_functions.o
                0x200011a4                ubxFileBuffer
 .bss.ubxFrameCounter
                0x200011a8        0x2 ./ZOE-M8Q_functions.o
                0x200011a8                ubxFrameCounter
 *fill*         0x200011aa        0x2 
 .bss.counter   0x200011ac        0x4 ./spidrv_zoe.o
 .bss.sl_spidrv_exp_handle_data
                0x200011b0       0x78 ./autogen/sl_spidrv_init.o
                0x200011b0                sl_spidrv_exp_handle_data
 .bss.chTable   0x20001228       0x80 ./gecko_sdk_3.2.3/platform/emdrv/dmadrv/src/dmadrv.o
 .bss.dmaXfer   0x200012a8      0x100 ./gecko_sdk_3.2.3/platform/emdrv/dmadrv/src/dmadrv.o
 .bss.initialized
                0x200013a8        0x1 ./gecko_sdk_3.2.3/platform/emdrv/dmadrv/src/dmadrv.o
 .bss.spidrvIsInitialized
                0x200013a9        0x1 ./gecko_sdk_3.2.3/platform/emdrv/spidrv/src/spidrv.o
 *fill*         0x200013aa        0x2 
 .bss.freq      0x200013ac        0x4 ./gecko_sdk_3.2.3/platform/emdrv/ustimer/src/ustimer.o
 .bss.minTicks  0x200013b0        0x4 ./gecko_sdk_3.2.3/platform/emdrv/ustimer/src/ustimer.o
 .bss.timeElapsed
                0x200013b4        0x1 ./gecko_sdk_3.2.3/platform/emdrv/ustimer/src/ustimer.o
 *fill*         0x200013b5        0x1 
 .bss.dcdcEm01LoadCurrent_mA
                0x200013b6        0x2 ./gecko_sdk_3.2.3/platform/emlib/src/em_emu.o
 .bss.dcdcMaxCurrent_mA
                0x200013b8        0x2 ./gecko_sdk_3.2.3/platform/emlib/src/em_emu.o
 .bss.dcdcReverseCurrentControl
                0x200013ba        0x2 ./gecko_sdk_3.2.3/platform/emlib/src/em_emu.o
 .bss.vScaleEM01Config
                0x200013bc        0x1 ./gecko_sdk_3.2.3/platform/emlib/src/em_emu.o
 .bss.is_sleeptimer_initialized
                0x200013bd        0x1 ./gecko_sdk_3.2.3/platform/service/sleeptimer/src/sl_sleeptimer.o
 *fill*         0x200013be        0x2 
 .bss.last_delta_update_count
                0x200013c0        0x4 ./gecko_sdk_3.2.3/platform/service/sleeptimer/src/sl_sleeptimer.o
 .bss.max_millisecond_conversion
                0x200013c4        0x4 ./gecko_sdk_3.2.3/platform/service/sleeptimer/src/sl_sleeptimer.o
 .bss.next_timer_to_expire_is_power_manager
                0x200013c8        0x1 ./gecko_sdk_3.2.3/platform/service/sleeptimer/src/sl_sleeptimer.o
 *fill*         0x200013c9        0x1 
 .bss.overflow_counter
                0x200013ca        0x2 ./gecko_sdk_3.2.3/platform/service/sleeptimer/src/sl_sleeptimer.o
 .bss.sleep_on_isr_exit
                0x200013cc        0x1 ./gecko_sdk_3.2.3/platform/service/sleeptimer/src/sl_sleeptimer.o
 *fill*         0x200013cd        0x3 
 .bss.timer_frequency
                0x200013d0        0x4 ./gecko_sdk_3.2.3/platform/service/sleeptimer/src/sl_sleeptimer.o
 .bss.timer_head
                0x200013d4        0x4 ./gecko_sdk_3.2.3/platform/service/sleeptimer/src/sl_sleeptimer.o
 .bss.__malloc_free_list
                0x200013d8        0x4 d:/programme/siliconlabs/simplicitystudio/v5/developer/toolchains/gnu_arm/10.2_2020q4/bin/../lib/gcc/arm-none-eabi/10.2.1/../../../../arm-none-eabi/lib/thumb/v7e-m+fp/softfp\libc_nano.a(lib_a-nano-mallocr.o)
                0x200013d8                __malloc_free_list
 .bss.__malloc_sbrk_start
                0x200013dc        0x4 d:/programme/siliconlabs/simplicitystudio/v5/developer/toolchains/gnu_arm/10.2_2020q4/bin/../lib/gcc/arm-none-eabi/10.2.1/../../../../arm-none-eabi/lib/thumb/v7e-m+fp/softfp\libc_nano.a(lib_a-nano-mallocr.o)
                0x200013dc                __malloc_sbrk_start
 .bss.__lock___malloc_recursive_mutex
                0x200013e0        0x1 d:/programme/siliconlabs/simplicitystudio/v5/developer/toolchains/gnu_arm/10.2_2020q4/bin/../lib/gcc/arm-none-eabi/10.2.1/../../../../arm-none-eabi/lib/thumb/v7e-m+fp/softfp\libc_nano.a(lib_a-lock.o)
                0x200013e0                __lock___malloc_recursive_mutex
 .bss.__lock___sfp_recursive_mutex
                0x200013e1        0x1 d:/programme/siliconlabs/simplicitystudio/v5/developer/toolchains/gnu_arm/10.2_2020q4/bin/../lib/gcc/arm-none-eabi/10.2.1/../../../../arm-none-eabi/lib/thumb/v7e-m+fp/softfp\libc_nano.a(lib_a-lock.o)
                0x200013e1                __lock___sfp_recursive_mutex
 .bss.__lock___sinit_recursive_mutex
                0x200013e2        0x1 d:/programme/siliconlabs/simplicitystudio/v5/developer/toolchains/gnu_arm/10.2_2020q4/bin/../lib/gcc/arm-none-eabi/10.2.1/../../../../arm-none-eabi/lib/thumb/v7e-m+fp/softfp\libc_nano.a(lib_a-lock.o)
                0x200013e2                __lock___sinit_recursive_mutex
 *fill*         0x200013e3        0x1 
 .bss.errno     0x200013e4        0x4 d:/programme/siliconlabs/simplicitystudio/v5/developer/toolchains/gnu_arm/10.2_2020q4/bin/../lib/gcc/arm-none-eabi/10.2.1/../../../../arm-none-eabi/lib/thumb/v7e-m+fp/softfp\libc_nano.a(lib_a-reent.o)
                0x200013e4                errno
 *(COMMON)
                0x200013e8                . = ALIGN (0x4)
                0x200013e8                __bss_end__ = .

.heap           0x200013e8     0x6c18
                0x200013e8                __HeapBase = .
                0x200013e8                __end__ = .
                0x200013e8                end = __end__
                0x200013e8                _end = __end__
 *(.heap*)
 .heap          0x200013e8      0x800 ./gecko_sdk_3.2.3/platform/common/toolchain/src/sl_memory.o
                0x20008000                . = (ORIGIN (RAM) + LENGTH (RAM))
 *fill*         0x20001be8     0x6418 
                0x20008000                __HeapLimit = .
                0x00006c18                __heap_size = (__HeapLimit - __HeapBase)
                0x00040000                __main_flash_end__ = 0x40000

.internal_storage
                0x00006340        0x0
 *(.internal_storage*)

.nvm            0x00006340        0x0
 *(.simee*)
                0x00040000                linker_nvm_end = __main_flash_end__
                0x00040000                linker_nvm_begin = (linker_nvm_end - SIZEOF (.nvm))
                0x00000000                linker_nvm_size = SIZEOF (.nvm)
                0x00040000                linker_storage_end = linker_nvm_begin
                0x00040000                linker_storage_begin = (linker_storage_end - SIZEOF (.internal_storage))
                0x00000000                linker_storage_size = SIZEOF (.internal_storage)
                0x00040000                __nvm3Base = linker_nvm_begin
OUTPUT(SPI.axf elf32-littlearm)
LOAD linker stubs

.ARM.attributes
                0x00000000       0x2e
 .ARM.attributes
                0x00000000       0x1e d:/programme/siliconlabs/simplicitystudio/v5/developer/toolchains/gnu_arm/10.2_2020q4/bin/../lib/gcc/arm-none-eabi/10.2.1/thumb/v7e-m+fp/softfp/crti.o
 .ARM.attributes
                0x0000001e       0x32 d:/programme/siliconlabs/simplicitystudio/v5/developer/toolchains/gnu_arm/10.2_2020q4/bin/../lib/gcc/arm-none-eabi/10.2.1/thumb/v7e-m+fp/softfp/crtbegin.o
 .ARM.attributes
                0x00000050       0x1c d:/programme/siliconlabs/simplicitystudio/v5/developer/toolchains/gnu_arm/10.2_2020q4/bin/../lib/gcc/arm-none-eabi/10.2.1/../../../../arm-none-eabi/lib/thumb/v7e-m+fp/softfp/crt0.o
 .ARM.attributes
                0x0000006c       0x32 ./ZOE-M8Q_functions.o
 .ARM.attributes
                0x0000009e       0x32 ./app.o
 .ARM.attributes
                0x000000d0       0x32 ./main.o
 .ARM.attributes
                0x00000102       0x32 ./spidrv_zoe.o
 .ARM.attributes
                0x00000134       0x32 ./autogen/sl_board_default_init.o
 .ARM.attributes
                0x00000166       0x32 ./autogen/sl_device_init_clocks.o
 .ARM.attributes
                0x00000198       0x32 ./autogen/sl_event_handler.o
 .ARM.attributes
                0x000001ca       0x32 ./autogen/sl_simple_led_instances.o
 .ARM.attributes
                0x000001fc       0x32 ./autogen/sl_spidrv_init.o
 .ARM.attributes
                0x0000022e       0x32 ./gecko_sdk_3.2.3/hardware/board/src/sl_board_control_gpio.o
 .ARM.attributes
                0x00000260       0x32 ./gecko_sdk_3.2.3/hardware/board/src/sl_board_init.o
 .ARM.attributes
                0x00000292       0x32 ./gecko_sdk_3.2.3/hardware/driver/mx25_flash_shutdown/src/sl_mx25_flash_shutdown_usart/sl_mx25_flash_shutdown.o
 .ARM.attributes
                0x000002c4       0x32 ./gecko_sdk_3.2.3/platform/Device/SiliconLabs/EFR32FG14P/Source/GCC/startup_efr32fg14p.o
 .ARM.attributes
                0x000002f6       0x32 ./gecko_sdk_3.2.3/platform/Device/SiliconLabs/EFR32FG14P/Source/system_efr32fg14p.o
 .ARM.attributes
                0x00000328       0x32 ./gecko_sdk_3.2.3/platform/common/toolchain/src/sl_memory.o
 .ARM.attributes
                0x0000035a       0x32 ./gecko_sdk_3.2.3/platform/driver/leddrv/src/sl_led.o
 .ARM.attributes
                0x0000038c       0x32 ./gecko_sdk_3.2.3/platform/driver/leddrv/src/sl_simple_led.o
 .ARM.attributes
                0x000003be       0x32 ./gecko_sdk_3.2.3/platform/emdrv/dmadrv/src/dmadrv.o
 .ARM.attributes
                0x000003f0       0x32 ./gecko_sdk_3.2.3/platform/emdrv/spidrv/src/spidrv.o
 .ARM.attributes
                0x00000422       0x32 ./gecko_sdk_3.2.3/platform/emdrv/ustimer/src/ustimer.o
 .ARM.attributes
                0x00000454       0x32 ./gecko_sdk_3.2.3/platform/emlib/src/em_assert.o
 .ARM.attributes
                0x00000486       0x32 ./gecko_sdk_3.2.3/platform/emlib/src/em_cmu.o
 .ARM.attributes
                0x000004b8       0x32 ./gecko_sdk_3.2.3/platform/emlib/src/em_core.o
 .ARM.attributes
                0x000004ea       0x32 ./gecko_sdk_3.2.3/platform/emlib/src/em_emu.o
 .ARM.attributes
                0x0000051c       0x32 ./gecko_sdk_3.2.3/platform/emlib/src/em_gpio.o
 .ARM.attributes
                0x0000054e       0x32 ./gecko_sdk_3.2.3/platform/emlib/src/em_ldma.o
 .ARM.attributes
                0x00000580       0x32 ./gecko_sdk_3.2.3/platform/emlib/src/em_rtcc.o
 .ARM.attributes
                0x000005b2       0x32 ./gecko_sdk_3.2.3/platform/emlib/src/em_timer.o
 .ARM.attributes
                0x000005e4       0x32 ./gecko_sdk_3.2.3/platform/emlib/src/em_usart.o
 .ARM.attributes
                0x00000616       0x32 ./gecko_sdk_3.2.3/platform/service/device_init/src/sl_device_init_dcdc_s1.o
 .ARM.attributes
                0x00000648       0x32 ./gecko_sdk_3.2.3/platform/service/device_init/src/sl_device_init_emu_s1.o
 .ARM.attributes
                0x0000067a       0x32 ./gecko_sdk_3.2.3/platform/service/device_init/src/sl_device_init_hfxo_s1.o
 .ARM.attributes
                0x000006ac       0x32 ./gecko_sdk_3.2.3/platform/service/device_init/src/sl_device_init_lfxo_s1.o
 .ARM.attributes
                0x000006de       0x32 ./gecko_sdk_3.2.3/platform/service/device_init/src/sl_device_init_nvic.o
 .ARM.attributes
                0x00000710       0x32 ./gecko_sdk_3.2.3/platform/service/sleeptimer/src/sl_sleeptimer.o
 .ARM.attributes
                0x00000742       0x32 ./gecko_sdk_3.2.3/platform/service/sleeptimer/src/sl_sleeptimer_hal_rtcc.o
 .ARM.attributes
                0x00000774       0x32 ./gecko_sdk_3.2.3/platform/service/system/src/sl_system_init.o
 .ARM.attributes
                0x000007a6       0x32 ./gecko_sdk_3.2.3/platform/service/system/src/sl_system_process_action.o
 .ARM.attributes
                0x000007d8       0x32 ./gecko_sdk_3.2.3/platform/service/udelay/src/sl_udelay.o
 .ARM.attributes
                0x0000080a       0x20 ./gecko_sdk_3.2.3/platform/service/udelay/src/sl_udelay_armv6m_gcc.o
 .ARM.attributes
                0x0000082a       0x1e d:/programme/siliconlabs/simplicitystudio/v5/developer/toolchains/gnu_arm/10.2_2020q4/bin/../lib/gcc/arm-none-eabi/10.2.1/thumb/v7e-m+fp/softfp\libgcc.a(_aeabi_uldivmod.o)
 .ARM.attributes
                0x00000848       0x32 d:/programme/siliconlabs/simplicitystudio/v5/developer/toolchains/gnu_arm/10.2_2020q4/bin/../lib/gcc/arm-none-eabi/10.2.1/thumb/v7e-m+fp/softfp\libgcc.a(_udivmoddi4.o)
 .ARM.attributes
                0x0000087a       0x1e d:/programme/siliconlabs/simplicitystudio/v5/developer/toolchains/gnu_arm/10.2_2020q4/bin/../lib/gcc/arm-none-eabi/10.2.1/thumb/v7e-m+fp/softfp\libgcc.a(_dvmd_tls.o)
 .ARM.attributes
                0x00000898       0x32 d:/programme/siliconlabs/simplicitystudio/v5/developer/toolchains/gnu_arm/10.2_2020q4/bin/../lib/gcc/arm-none-eabi/10.2.1/../../../../arm-none-eabi/lib/thumb/v7e-m+fp/softfp\libc_nano.a(lib_a-exit.o)
 .ARM.attributes
                0x000008ca       0x30 d:/programme/siliconlabs/simplicitystudio/v5/developer/toolchains/gnu_arm/10.2_2020q4/bin/../lib/gcc/arm-none-eabi/10.2.1/../../../../arm-none-eabi/lib/thumb/v7e-m+fp/softfp\libc_nano.a(lib_a-impure.o)
 .ARM.attributes
                0x000008fa       0x32 d:/programme/siliconlabs/simplicitystudio/v5/developer/toolchains/gnu_arm/10.2_2020q4/bin/../lib/gcc/arm-none-eabi/10.2.1/../../../../arm-none-eabi/lib/thumb/v7e-m+fp/softfp\libc_nano.a(lib_a-init.o)
 .ARM.attributes
                0x0000092c       0x32 d:/programme/siliconlabs/simplicitystudio/v5/developer/toolchains/gnu_arm/10.2_2020q4/bin/../lib/gcc/arm-none-eabi/10.2.1/../../../../arm-none-eabi/lib/thumb/v7e-m+fp/softfp\libc_nano.a(lib_a-malloc.o)
 .ARM.attributes
                0x0000095e       0x32 d:/programme/siliconlabs/simplicitystudio/v5/developer/toolchains/gnu_arm/10.2_2020q4/bin/../lib/gcc/arm-none-eabi/10.2.1/../../../../arm-none-eabi/lib/thumb/v7e-m+fp/softfp\libc_nano.a(lib_a-memcpy-stub.o)
 .ARM.attributes
                0x00000990       0x32 d:/programme/siliconlabs/simplicitystudio/v5/developer/toolchains/gnu_arm/10.2_2020q4/bin/../lib/gcc/arm-none-eabi/10.2.1/../../../../arm-none-eabi/lib/thumb/v7e-m+fp/softfp\libc_nano.a(lib_a-memset.o)
 .ARM.attributes
                0x000009c2       0x32 d:/programme/siliconlabs/simplicitystudio/v5/developer/toolchains/gnu_arm/10.2_2020q4/bin/../lib/gcc/arm-none-eabi/10.2.1/../../../../arm-none-eabi/lib/thumb/v7e-m+fp/softfp\libc_nano.a(lib_a-nano-freer.o)
 .ARM.attributes
                0x000009f4       0x32 d:/programme/siliconlabs/simplicitystudio/v5/developer/toolchains/gnu_arm/10.2_2020q4/bin/../lib/gcc/arm-none-eabi/10.2.1/../../../../arm-none-eabi/lib/thumb/v7e-m+fp/softfp\libc_nano.a(lib_a-nano-mallocr.o)
 .ARM.attributes
                0x00000a26       0x32 d:/programme/siliconlabs/simplicitystudio/v5/developer/toolchains/gnu_arm/10.2_2020q4/bin/../lib/gcc/arm-none-eabi/10.2.1/../../../../arm-none-eabi/lib/thumb/v7e-m+fp/softfp\libc_nano.a(lib_a-printf.o)
 .ARM.attributes
                0x00000a58       0x32 d:/programme/siliconlabs/simplicitystudio/v5/developer/toolchains/gnu_arm/10.2_2020q4/bin/../lib/gcc/arm-none-eabi/10.2.1/../../../../arm-none-eabi/lib/thumb/v7e-m+fp/softfp\libc_nano.a(lib_a-sbrkr.o)
 .ARM.attributes
                0x00000a8a       0x32 d:/programme/siliconlabs/simplicitystudio/v5/developer/toolchains/gnu_arm/10.2_2020q4/bin/../lib/gcc/arm-none-eabi/10.2.1/../../../../arm-none-eabi/lib/thumb/v7e-m+fp/softfp\libc_nano.a(lib_a-findfp.o)
 .ARM.attributes
                0x00000abc       0x32 d:/programme/siliconlabs/simplicitystudio/v5/developer/toolchains/gnu_arm/10.2_2020q4/bin/../lib/gcc/arm-none-eabi/10.2.1/../../../../arm-none-eabi/lib/thumb/v7e-m+fp/softfp\libc_nano.a(lib_a-fwalk.o)
 .ARM.attributes
                0x00000aee       0x32 d:/programme/siliconlabs/simplicitystudio/v5/developer/toolchains/gnu_arm/10.2_2020q4/bin/../lib/gcc/arm-none-eabi/10.2.1/../../../../arm-none-eabi/lib/thumb/v7e-m+fp/softfp\libc_nano.a(lib_a-lock.o)
 .ARM.attributes
                0x00000b20       0x32 d:/programme/siliconlabs/simplicitystudio/v5/developer/toolchains/gnu_arm/10.2_2020q4/bin/../lib/gcc/arm-none-eabi/10.2.1/../../../../arm-none-eabi/lib/thumb/v7e-m+fp/softfp\libc_nano.a(lib_a-mlock.o)
 .ARM.attributes
                0x00000b52       0x32 d:/programme/siliconlabs/simplicitystudio/v5/developer/toolchains/gnu_arm/10.2_2020q4/bin/../lib/gcc/arm-none-eabi/10.2.1/../../../../arm-none-eabi/lib/thumb/v7e-m+fp/softfp\libc_nano.a(lib_a-nano-vfprintf.o)
 .ARM.attributes
                0x00000b84       0x32 d:/programme/siliconlabs/simplicitystudio/v5/developer/toolchains/gnu_arm/10.2_2020q4/bin/../lib/gcc/arm-none-eabi/10.2.1/../../../../arm-none-eabi/lib/thumb/v7e-m+fp/softfp\libc_nano.a(lib_a-nano-vfprintf_i.o)
 .ARM.attributes
                0x00000bb6       0x32 d:/programme/siliconlabs/simplicitystudio/v5/developer/toolchains/gnu_arm/10.2_2020q4/bin/../lib/gcc/arm-none-eabi/10.2.1/../../../../arm-none-eabi/lib/thumb/v7e-m+fp/softfp\libc_nano.a(lib_a-reent.o)
 .ARM.attributes
                0x00000be8       0x32 d:/programme/siliconlabs/simplicitystudio/v5/developer/toolchains/gnu_arm/10.2_2020q4/bin/../lib/gcc/arm-none-eabi/10.2.1/../../../../arm-none-eabi/lib/thumb/v7e-m+fp/softfp\libc_nano.a(lib_a-stdio.o)
 .ARM.attributes
                0x00000c1a       0x32 d:/programme/siliconlabs/simplicitystudio/v5/developer/toolchains/gnu_arm/10.2_2020q4/bin/../lib/gcc/arm-none-eabi/10.2.1/../../../../arm-none-eabi/lib/thumb/v7e-m+fp/softfp\libc_nano.a(lib_a-wbuf.o)
 .ARM.attributes
                0x00000c4c       0x32 d:/programme/siliconlabs/simplicitystudio/v5/developer/toolchains/gnu_arm/10.2_2020q4/bin/../lib/gcc/arm-none-eabi/10.2.1/../../../../arm-none-eabi/lib/thumb/v7e-m+fp/softfp\libc_nano.a(lib_a-writer.o)
 .ARM.attributes
                0x00000c7e       0x32 d:/programme/siliconlabs/simplicitystudio/v5/developer/toolchains/gnu_arm/10.2_2020q4/bin/../lib/gcc/arm-none-eabi/10.2.1/../../../../arm-none-eabi/lib/thumb/v7e-m+fp/softfp\libc_nano.a(lib_a-wsetup.o)
 .ARM.attributes
                0x00000cb0       0x32 d:/programme/siliconlabs/simplicitystudio/v5/developer/toolchains/gnu_arm/10.2_2020q4/bin/../lib/gcc/arm-none-eabi/10.2.1/../../../../arm-none-eabi/lib/thumb/v7e-m+fp/softfp\libc_nano.a(lib_a-closer.o)
 .ARM.attributes
                0x00000ce2       0x32 d:/programme/siliconlabs/simplicitystudio/v5/developer/toolchains/gnu_arm/10.2_2020q4/bin/../lib/gcc/arm-none-eabi/10.2.1/../../../../arm-none-eabi/lib/thumb/v7e-m+fp/softfp\libc_nano.a(lib_a-fflush.o)
 .ARM.attributes
                0x00000d14       0x32 d:/programme/siliconlabs/simplicitystudio/v5/developer/toolchains/gnu_arm/10.2_2020q4/bin/../lib/gcc/arm-none-eabi/10.2.1/../../../../arm-none-eabi/lib/thumb/v7e-m+fp/softfp\libc_nano.a(lib_a-lseekr.o)
 .ARM.attributes
                0x00000d46       0x32 d:/programme/siliconlabs/simplicitystudio/v5/developer/toolchains/gnu_arm/10.2_2020q4/bin/../lib/gcc/arm-none-eabi/10.2.1/../../../../arm-none-eabi/lib/thumb/v7e-m+fp/softfp\libc_nano.a(lib_a-makebuf.o)
 .ARM.attributes
                0x00000d78       0x1c d:/programme/siliconlabs/simplicitystudio/v5/developer/toolchains/gnu_arm/10.2_2020q4/bin/../lib/gcc/arm-none-eabi/10.2.1/../../../../arm-none-eabi/lib/thumb/v7e-m+fp/softfp\libc_nano.a(lib_a-memchr.o)
 .ARM.attributes
                0x00000d94       0x32 d:/programme/siliconlabs/simplicitystudio/v5/developer/toolchains/gnu_arm/10.2_2020q4/bin/../lib/gcc/arm-none-eabi/10.2.1/../../../../arm-none-eabi/lib/thumb/v7e-m+fp/softfp\libc_nano.a(lib_a-readr.o)
 .ARM.attributes
                0x00000dc6       0x32 d:/programme/siliconlabs/simplicitystudio/v5/developer/toolchains/gnu_arm/10.2_2020q4/bin/../lib/gcc/arm-none-eabi/10.2.1/../../../../arm-none-eabi/lib/thumb/v7e-m+fp/softfp\libc_nano.a(lib_a-fstatr.o)
 .ARM.attributes
                0x00000df8       0x32 d:/programme/siliconlabs/simplicitystudio/v5/developer/toolchains/gnu_arm/10.2_2020q4/bin/../lib/gcc/arm-none-eabi/10.2.1/../../../../arm-none-eabi/lib/thumb/v7e-m+fp/softfp\libc_nano.a(lib_a-isattyr.o)
 .ARM.attributes
                0x00000e2a       0x32 d:/programme/siliconlabs/simplicitystudio/v5/developer/toolchains/gnu_arm/10.2_2020q4/bin/../lib/gcc/arm-none-eabi/10.2.1/../../../../arm-none-eabi/lib/thumb/v7e-m+fp/softfp\libnosys.a(close.o)
 .ARM.attributes
                0x00000e5c       0x32 d:/programme/siliconlabs/simplicitystudio/v5/developer/toolchains/gnu_arm/10.2_2020q4/bin/../lib/gcc/arm-none-eabi/10.2.1/../../../../arm-none-eabi/lib/thumb/v7e-m+fp/softfp\libnosys.a(fstat.o)
 .ARM.attributes
                0x00000e8e       0x32 d:/programme/siliconlabs/simplicitystudio/v5/developer/toolchains/gnu_arm/10.2_2020q4/bin/../lib/gcc/arm-none-eabi/10.2.1/../../../../arm-none-eabi/lib/thumb/v7e-m+fp/softfp\libnosys.a(isatty.o)
 .ARM.attributes
                0x00000ec0       0x32 d:/programme/siliconlabs/simplicitystudio/v5/developer/toolchains/gnu_arm/10.2_2020q4/bin/../lib/gcc/arm-none-eabi/10.2.1/../../../../arm-none-eabi/lib/thumb/v7e-m+fp/softfp\libnosys.a(lseek.o)
 .ARM.attributes
                0x00000ef2       0x32 d:/programme/siliconlabs/simplicitystudio/v5/developer/toolchains/gnu_arm/10.2_2020q4/bin/../lib/gcc/arm-none-eabi/10.2.1/../../../../arm-none-eabi/lib/thumb/v7e-m+fp/softfp\libnosys.a(read.o)
 .ARM.attributes
                0x00000f24       0x32 d:/programme/siliconlabs/simplicitystudio/v5/developer/toolchains/gnu_arm/10.2_2020q4/bin/../lib/gcc/arm-none-eabi/10.2.1/../../../../arm-none-eabi/lib/thumb/v7e-m+fp/softfp\libnosys.a(write.o)
 .ARM.attributes
                0x00000f56       0x32 d:/programme/siliconlabs/simplicitystudio/v5/developer/toolchains/gnu_arm/10.2_2020q4/bin/../lib/gcc/arm-none-eabi/10.2.1/../../../../arm-none-eabi/lib/thumb/v7e-m+fp/softfp\libnosys.a(_exit.o)
 .ARM.attributes
                0x00000f88       0x1e d:/programme/siliconlabs/simplicitystudio/v5/developer/toolchains/gnu_arm/10.2_2020q4/bin/../lib/gcc/arm-none-eabi/10.2.1/thumb/v7e-m+fp/softfp/crtn.o

.comment        0x00000000       0x4d
 .comment       0x00000000       0x4d ./ZOE-M8Q_functions.o
                                 0x4e (size before relaxing)
 .comment       0x0000004d       0x4e ./app.o
 .comment       0x0000004d       0x4e ./main.o
 .comment       0x0000004d       0x4e ./spidrv_zoe.o
 .comment       0x0000004d       0x4e ./autogen/sl_board_default_init.o
 .comment       0x0000004d       0x4e ./autogen/sl_device_init_clocks.o
 .comment       0x0000004d       0x4e ./autogen/sl_event_handler.o
 .comment       0x0000004d       0x4e ./autogen/sl_simple_led_instances.o
 .comment       0x0000004d       0x4e ./autogen/sl_spidrv_init.o
 .comment       0x0000004d       0x4e ./gecko_sdk_3.2.3/hardware/board/src/sl_board_control_gpio.o
 .comment       0x0000004d       0x4e ./gecko_sdk_3.2.3/hardware/board/src/sl_board_init.o
 .comment       0x0000004d       0x4e ./gecko_sdk_3.2.3/hardware/driver/mx25_flash_shutdown/src/sl_mx25_flash_shutdown_usart/sl_mx25_flash_shutdown.o
 .comment       0x0000004d       0x4e ./gecko_sdk_3.2.3/platform/Device/SiliconLabs/EFR32FG14P/Source/GCC/startup_efr32fg14p.o
 .comment       0x0000004d       0x4e ./gecko_sdk_3.2.3/platform/Device/SiliconLabs/EFR32FG14P/Source/system_efr32fg14p.o
 .comment       0x0000004d       0x4e ./gecko_sdk_3.2.3/platform/common/toolchain/src/sl_memory.o
 .comment       0x0000004d       0x4e ./gecko_sdk_3.2.3/platform/driver/leddrv/src/sl_led.o
 .comment       0x0000004d       0x4e ./gecko_sdk_3.2.3/platform/driver/leddrv/src/sl_simple_led.o
 .comment       0x0000004d       0x4e ./gecko_sdk_3.2.3/platform/emdrv/dmadrv/src/dmadrv.o
 .comment       0x0000004d       0x4e ./gecko_sdk_3.2.3/platform/emdrv/spidrv/src/spidrv.o
 .comment       0x0000004d       0x4e ./gecko_sdk_3.2.3/platform/emdrv/ustimer/src/ustimer.o
 .comment       0x0000004d       0x4e ./gecko_sdk_3.2.3/platform/emlib/src/em_assert.o
 .comment       0x0000004d       0x4e ./gecko_sdk_3.2.3/platform/emlib/src/em_cmu.o
 .comment       0x0000004d       0x4e ./gecko_sdk_3.2.3/platform/emlib/src/em_core.o
 .comment       0x0000004d       0x4e ./gecko_sdk_3.2.3/platform/emlib/src/em_emu.o
 .comment       0x0000004d       0x4e ./gecko_sdk_3.2.3/platform/emlib/src/em_gpio.o
 .comment       0x0000004d       0x4e ./gecko_sdk_3.2.3/platform/emlib/src/em_ldma.o
 .comment       0x0000004d       0x4e ./gecko_sdk_3.2.3/platform/emlib/src/em_rtcc.o
 .comment       0x0000004d       0x4e ./gecko_sdk_3.2.3/platform/emlib/src/em_timer.o
 .comment       0x0000004d       0x4e ./gecko_sdk_3.2.3/platform/emlib/src/em_usart.o
 .comment       0x0000004d       0x4e ./gecko_sdk_3.2.3/platform/service/device_init/src/sl_device_init_dcdc_s1.o
 .comment       0x0000004d       0x4e ./gecko_sdk_3.2.3/platform/service/device_init/src/sl_device_init_emu_s1.o
 .comment       0x0000004d       0x4e ./gecko_sdk_3.2.3/platform/service/device_init/src/sl_device_init_hfxo_s1.o
 .comment       0x0000004d       0x4e ./gecko_sdk_3.2.3/platform/service/device_init/src/sl_device_init_lfxo_s1.o
 .comment       0x0000004d       0x4e ./gecko_sdk_3.2.3/platform/service/device_init/src/sl_device_init_nvic.o
 .comment       0x0000004d       0x4e ./gecko_sdk_3.2.3/platform/service/sleeptimer/src/sl_sleeptimer.o
 .comment       0x0000004d       0x4e ./gecko_sdk_3.2.3/platform/service/sleeptimer/src/sl_sleeptimer_hal_rtcc.o
 .comment       0x0000004d       0x4e ./gecko_sdk_3.2.3/platform/service/system/src/sl_system_init.o
 .comment       0x0000004d       0x4e ./gecko_sdk_3.2.3/platform/service/system/src/sl_system_process_action.o
 .comment       0x0000004d       0x4e ./gecko_sdk_3.2.3/platform/service/udelay/src/sl_udelay.o

.debug_info     0x00000000    0x2d788
 .debug_info    0x00000000     0xa824 ./ZOE-M8Q_functions.o
 .debug_info    0x0000a824      0x269 ./app.o
 .debug_info    0x0000aa8d       0xb1 ./main.o
 .debug_info    0x0000ab3e     0x6bdc ./spidrv_zoe.o
 .debug_info    0x0001171a       0xa7 ./autogen/sl_board_default_init.o
 .debug_info    0x000117c1      0x316 ./autogen/sl_device_init_clocks.o
 .debug_info    0x00011ad7      0x446 ./autogen/sl_event_handler.o
 .debug_info    0x00011f1d      0x288 ./autogen/sl_simple_led_instances.o
 .debug_info    0x000121a5      0xaef ./autogen/sl_spidrv_init.o
 .debug_info    0x00012c94      0x444 ./gecko_sdk_3.2.3/hardware/board/src/sl_board_control_gpio.o
 .debug_info    0x000130d8      0x27b ./gecko_sdk_3.2.3/hardware/board/src/sl_board_init.o
 .debug_info    0x00013353      0xd25 ./gecko_sdk_3.2.3/hardware/driver/mx25_flash_shutdown/src/sl_mx25_flash_shutdown_usart/sl_mx25_flash_shutdown.o
 .debug_info    0x00014078      0x247 ./gecko_sdk_3.2.3/platform/Device/SiliconLabs/EFR32FG14P/Source/GCC/startup_efr32fg14p.o
 .debug_info    0x000142bf      0xa34 ./gecko_sdk_3.2.3/platform/Device/SiliconLabs/EFR32FG14P/Source/system_efr32fg14p.o
 .debug_info    0x00014cf3      0x209 ./gecko_sdk_3.2.3/platform/common/toolchain/src/sl_memory.o
 .debug_info    0x00014efc      0x262 ./gecko_sdk_3.2.3/platform/driver/leddrv/src/sl_led.o
 .debug_info    0x0001515e      0xa8a ./gecko_sdk_3.2.3/platform/driver/leddrv/src/sl_simple_led.o
 .debug_info    0x00015be8     0x1b22 ./gecko_sdk_3.2.3/platform/emdrv/dmadrv/src/dmadrv.o
 .debug_info    0x0001770a     0x3431 ./gecko_sdk_3.2.3/platform/emdrv/spidrv/src/spidrv.o
 .debug_info    0x0001ab3b     0x17db ./gecko_sdk_3.2.3/platform/emdrv/ustimer/src/ustimer.o
 .debug_info    0x0001c316       0x8a ./gecko_sdk_3.2.3/platform/emlib/src/em_assert.o
 .debug_info    0x0001c3a0     0x3e7a ./gecko_sdk_3.2.3/platform/emlib/src/em_cmu.o
 .debug_info    0x0002021a     0x1125 ./gecko_sdk_3.2.3/platform/emlib/src/em_core.o
 .debug_info    0x0002133f     0x3779 ./gecko_sdk_3.2.3/platform/emlib/src/em_emu.o
 .debug_info    0x00024ab8      0xf10 ./gecko_sdk_3.2.3/platform/emlib/src/em_gpio.o
 .debug_info    0x000259c8     0x16bd ./gecko_sdk_3.2.3/platform/emlib/src/em_ldma.o
 .debug_info    0x00027085      0x751 ./gecko_sdk_3.2.3/platform/emlib/src/em_rtcc.o
 .debug_info    0x000277d6      0xcaa ./gecko_sdk_3.2.3/platform/emlib/src/em_timer.o
 .debug_info    0x00028480     0x14d1 ./gecko_sdk_3.2.3/platform/emlib/src/em_usart.o
 .debug_info    0x00029951      0x271 ./gecko_sdk_3.2.3/platform/service/device_init/src/sl_device_init_dcdc_s1.o
 .debug_info    0x00029bc2      0x1e3 ./gecko_sdk_3.2.3/platform/service/device_init/src/sl_device_init_emu_s1.o
 .debug_info    0x00029da5      0x818 ./gecko_sdk_3.2.3/platform/service/device_init/src/sl_device_init_hfxo_s1.o
 .debug_info    0x0002a5bd      0x1b0 ./gecko_sdk_3.2.3/platform/service/device_init/src/sl_device_init_lfxo_s1.o
 .debug_info    0x0002a76d      0x5d7 ./gecko_sdk_3.2.3/platform/service/device_init/src/sl_device_init_nvic.o
 .debug_info    0x0002ad44     0x1529 ./gecko_sdk_3.2.3/platform/service/sleeptimer/src/sl_sleeptimer.o
 .debug_info    0x0002c26d     0x1256 ./gecko_sdk_3.2.3/platform/service/sleeptimer/src/sl_sleeptimer_hal_rtcc.o
 .debug_info    0x0002d4c3       0xbe ./gecko_sdk_3.2.3/platform/service/system/src/sl_system_init.o
 .debug_info    0x0002d581       0xa7 ./gecko_sdk_3.2.3/platform/service/system/src/sl_system_process_action.o
 .debug_info    0x0002d628      0x13a ./gecko_sdk_3.2.3/platform/service/udelay/src/sl_udelay.o
 .debug_info    0x0002d762       0x26 ./gecko_sdk_3.2.3/platform/service/udelay/src/sl_udelay_armv6m_gcc.o

.debug_abbrev   0x00000000     0x556b
 .debug_abbrev  0x00000000      0x564 ./ZOE-M8Q_functions.o
 .debug_abbrev  0x00000564      0x114 ./app.o
 .debug_abbrev  0x00000678       0x61 ./main.o
 .debug_abbrev  0x000006d9      0x2d1 ./spidrv_zoe.o
 .debug_abbrev  0x000009aa       0x6d ./autogen/sl_board_default_init.o
 .debug_abbrev  0x00000a17       0xd1 ./autogen/sl_device_init_clocks.o
 .debug_abbrev  0x00000ae8      0x14d ./autogen/sl_event_handler.o
 .debug_abbrev  0x00000c35      0x13b ./autogen/sl_simple_led_instances.o
 .debug_abbrev  0x00000d70      0x1c0 ./autogen/sl_spidrv_init.o
 .debug_abbrev  0x00000f30      0x16f ./gecko_sdk_3.2.3/hardware/board/src/sl_board_control_gpio.o
 .debug_abbrev  0x0000109f       0xfd ./gecko_sdk_3.2.3/hardware/board/src/sl_board_init.o
 .debug_abbrev  0x0000119c      0x266 ./gecko_sdk_3.2.3/hardware/driver/mx25_flash_shutdown/src/sl_mx25_flash_shutdown_usart/sl_mx25_flash_shutdown.o
 .debug_abbrev  0x00001402      0x157 ./gecko_sdk_3.2.3/platform/Device/SiliconLabs/EFR32FG14P/Source/GCC/startup_efr32fg14p.o
 .debug_abbrev  0x00001559      0x239 ./gecko_sdk_3.2.3/platform/Device/SiliconLabs/EFR32FG14P/Source/system_efr32fg14p.o
 .debug_abbrev  0x00001792      0x121 ./gecko_sdk_3.2.3/platform/common/toolchain/src/sl_memory.o
 .debug_abbrev  0x000018b3      0x100 ./gecko_sdk_3.2.3/platform/driver/leddrv/src/sl_led.o
 .debug_abbrev  0x000019b3      0x31a ./gecko_sdk_3.2.3/platform/driver/leddrv/src/sl_simple_led.o
 .debug_abbrev  0x00001ccd      0x397 ./gecko_sdk_3.2.3/platform/emdrv/dmadrv/src/dmadrv.o
 .debug_abbrev  0x00002064      0x4a4 ./gecko_sdk_3.2.3/platform/emdrv/spidrv/src/spidrv.o
 .debug_abbrev  0x00002508      0x3cd ./gecko_sdk_3.2.3/platform/emdrv/ustimer/src/ustimer.o
 .debug_abbrev  0x000028d5       0x6f ./gecko_sdk_3.2.3/platform/emlib/src/em_assert.o
 .debug_abbrev  0x00002944      0x558 ./gecko_sdk_3.2.3/platform/emlib/src/em_cmu.o
 .debug_abbrev  0x00002e9c      0x316 ./gecko_sdk_3.2.3/platform/emlib/src/em_core.o
 .debug_abbrev  0x000031b2      0x58b ./gecko_sdk_3.2.3/platform/emlib/src/em_emu.o
 .debug_abbrev  0x0000373d      0x328 ./gecko_sdk_3.2.3/platform/emlib/src/em_gpio.o
 .debug_abbrev  0x00003a65      0x3fd ./gecko_sdk_3.2.3/platform/emlib/src/em_ldma.o
 .debug_abbrev  0x00003e62      0x258 ./gecko_sdk_3.2.3/platform/emlib/src/em_rtcc.o
 .debug_abbrev  0x000040ba      0x259 ./gecko_sdk_3.2.3/platform/emlib/src/em_timer.o
 .debug_abbrev  0x00004313      0x319 ./gecko_sdk_3.2.3/platform/emlib/src/em_usart.o
 .debug_abbrev  0x0000462c       0xf6 ./gecko_sdk_3.2.3/platform/service/device_init/src/sl_device_init_dcdc_s1.o
 .debug_abbrev  0x00004722       0xf6 ./gecko_sdk_3.2.3/platform/service/device_init/src/sl_device_init_emu_s1.o
 .debug_abbrev  0x00004818      0x169 ./gecko_sdk_3.2.3/platform/service/device_init/src/sl_device_init_hfxo_s1.o
 .debug_abbrev  0x00004981       0xf0 ./gecko_sdk_3.2.3/platform/service/device_init/src/sl_device_init_lfxo_s1.o
 .debug_abbrev  0x00004a71      0x156 ./gecko_sdk_3.2.3/platform/service/device_init/src/sl_device_init_nvic.o
 .debug_abbrev  0x00004bc7      0x3e3 ./gecko_sdk_3.2.3/platform/service/sleeptimer/src/sl_sleeptimer.o
 .debug_abbrev  0x00004faa      0x43a ./gecko_sdk_3.2.3/platform/service/sleeptimer/src/sl_sleeptimer_hal_rtcc.o
 .debug_abbrev  0x000053e4       0x62 ./gecko_sdk_3.2.3/platform/service/system/src/sl_system_init.o
 .debug_abbrev  0x00005446       0x62 ./gecko_sdk_3.2.3/platform/service/system/src/sl_system_process_action.o
 .debug_abbrev  0x000054a8       0xaf ./gecko_sdk_3.2.3/platform/service/udelay/src/sl_udelay.o
 .debug_abbrev  0x00005557       0x14 ./gecko_sdk_3.2.3/platform/service/udelay/src/sl_udelay_armv6m_gcc.o

.debug_loc      0x00000000    0x112e1
 .debug_loc     0x00000000     0x312d ./ZOE-M8Q_functions.o
 .debug_loc     0x0000312d       0x58 ./app.o
 .debug_loc     0x00003185       0x20 ./main.o
 .debug_loc     0x000031a5       0xb7 ./spidrv_zoe.o
 .debug_loc     0x0000325c       0x20 ./autogen/sl_device_init_clocks.o
 .debug_loc     0x0000327c       0x58 ./autogen/sl_event_handler.o
 .debug_loc     0x000032d4      0x1d7 ./gecko_sdk_3.2.3/hardware/board/src/sl_board_control_gpio.o
 .debug_loc     0x000034ab       0x2c ./gecko_sdk_3.2.3/hardware/board/src/sl_board_init.o
 .debug_loc     0x000034d7      0x124 ./gecko_sdk_3.2.3/hardware/driver/mx25_flash_shutdown/src/sl_mx25_flash_shutdown_usart/sl_mx25_flash_shutdown.o
 .debug_loc     0x000035fb       0xda ./gecko_sdk_3.2.3/platform/Device/SiliconLabs/EFR32FG14P/Source/GCC/startup_efr32fg14p.o
 .debug_loc     0x000036d5       0xd8 ./gecko_sdk_3.2.3/platform/Device/SiliconLabs/EFR32FG14P/Source/system_efr32fg14p.o
 .debug_loc     0x000037ad       0x9c ./gecko_sdk_3.2.3/platform/common/toolchain/src/sl_memory.o
 .debug_loc     0x00003849       0xb9 ./gecko_sdk_3.2.3/platform/driver/leddrv/src/sl_led.o
 .debug_loc     0x00003902      0x498 ./gecko_sdk_3.2.3/platform/driver/leddrv/src/sl_simple_led.o
 .debug_loc     0x00003d9a     0x11ad ./gecko_sdk_3.2.3/platform/emdrv/dmadrv/src/dmadrv.o
 .debug_loc     0x00004f47     0x23ed ./gecko_sdk_3.2.3/platform/emdrv/spidrv/src/spidrv.o
 .debug_loc     0x00007334      0x649 ./gecko_sdk_3.2.3/platform/emdrv/ustimer/src/ustimer.o
 .debug_loc     0x0000797d       0x2a ./gecko_sdk_3.2.3/platform/emlib/src/em_assert.o
 .debug_loc     0x000079a7     0x316e ./gecko_sdk_3.2.3/platform/emlib/src/em_cmu.o
 .debug_loc     0x0000ab15      0x8ae ./gecko_sdk_3.2.3/platform/emlib/src/em_core.o
 .debug_loc     0x0000b3c3     0x2314 ./gecko_sdk_3.2.3/platform/emlib/src/em_emu.o
 .debug_loc     0x0000d6d7      0x9e1 ./gecko_sdk_3.2.3/platform/emlib/src/em_gpio.o
 .debug_loc     0x0000e0b8      0x63a ./gecko_sdk_3.2.3/platform/emlib/src/em_ldma.o
 .debug_loc     0x0000e6f2      0x172 ./gecko_sdk_3.2.3/platform/emlib/src/em_rtcc.o
 .debug_loc     0x0000e864      0x3de ./gecko_sdk_3.2.3/platform/emlib/src/em_timer.o
 .debug_loc     0x0000ec42      0xa54 ./gecko_sdk_3.2.3/platform/emlib/src/em_usart.o
 .debug_loc     0x0000f696       0x2c ./gecko_sdk_3.2.3/platform/service/device_init/src/sl_device_init_dcdc_s1.o
 .debug_loc     0x0000f6c2       0x2c ./gecko_sdk_3.2.3/platform/service/device_init/src/sl_device_init_emu_s1.o
 .debug_loc     0x0000f6ee       0x77 ./gecko_sdk_3.2.3/platform/service/device_init/src/sl_device_init_hfxo_s1.o
 .debug_loc     0x0000f765       0x2c ./gecko_sdk_3.2.3/platform/service/device_init/src/sl_device_init_lfxo_s1.o
 .debug_loc     0x0000f791       0x6f ./gecko_sdk_3.2.3/platform/service/device_init/src/sl_device_init_nvic.o
 .debug_loc     0x0000f800     0x14be ./gecko_sdk_3.2.3/platform/service/sleeptimer/src/sl_sleeptimer.o
 .debug_loc     0x00010cbe      0x493 ./gecko_sdk_3.2.3/platform/service/sleeptimer/src/sl_sleeptimer_hal_rtcc.o
 .debug_loc     0x00011151       0x2c ./gecko_sdk_3.2.3/platform/service/system/src/sl_system_init.o
 .debug_loc     0x0001117d       0x2c ./gecko_sdk_3.2.3/platform/service/system/src/sl_system_process_action.o
 .debug_loc     0x000111a9      0x138 ./gecko_sdk_3.2.3/platform/service/udelay/src/sl_udelay.o

.debug_aranges  0x00000000      0xe58
 .debug_aranges
                0x00000000      0x108 ./ZOE-M8Q_functions.o
 .debug_aranges
                0x00000108       0x28 ./app.o
 .debug_aranges
                0x00000130       0x20 ./main.o
 .debug_aranges
                0x00000150       0x30 ./spidrv_zoe.o
 .debug_aranges
                0x00000180       0x20 ./autogen/sl_board_default_init.o
 .debug_aranges
                0x000001a0       0x20 ./autogen/sl_device_init_clocks.o
 .debug_aranges
                0x000001c0       0x38 ./autogen/sl_event_handler.o
 .debug_aranges
                0x000001f8       0x20 ./autogen/sl_simple_led_instances.o
 .debug_aranges
                0x00000218       0x20 ./autogen/sl_spidrv_init.o
 .debug_aranges
                0x00000238       0x50 ./gecko_sdk_3.2.3/hardware/board/src/sl_board_control_gpio.o
 .debug_aranges
                0x00000288       0x28 ./gecko_sdk_3.2.3/hardware/board/src/sl_board_init.o
 .debug_aranges
                0x000002b0       0x30 ./gecko_sdk_3.2.3/hardware/driver/mx25_flash_shutdown/src/sl_mx25_flash_shutdown_usart/sl_mx25_flash_shutdown.o
 .debug_aranges
                0x000002e0       0x28 ./gecko_sdk_3.2.3/platform/Device/SiliconLabs/EFR32FG14P/Source/GCC/startup_efr32fg14p.o
 .debug_aranges
                0x00000308       0x68 ./gecko_sdk_3.2.3/platform/Device/SiliconLabs/EFR32FG14P/Source/system_efr32fg14p.o
 .debug_aranges
                0x00000370       0x30 ./gecko_sdk_3.2.3/platform/common/toolchain/src/sl_memory.o
 .debug_aranges
                0x000003a0       0x40 ./gecko_sdk_3.2.3/platform/driver/leddrv/src/sl_led.o
 .debug_aranges
                0x000003e0       0x50 ./gecko_sdk_3.2.3/platform/driver/leddrv/src/sl_simple_led.o
 .debug_aranges
                0x00000430       0xa8 ./gecko_sdk_3.2.3/platform/emdrv/dmadrv/src/dmadrv.o
 .debug_aranges
                0x000004d8      0x118 ./gecko_sdk_3.2.3/platform/emdrv/spidrv/src/spidrv.o
 .debug_aranges
                0x000005f0       0x48 ./gecko_sdk_3.2.3/platform/emdrv/ustimer/src/ustimer.o
 .debug_aranges
                0x00000638       0x20 ./gecko_sdk_3.2.3/platform/emlib/src/em_assert.o
 .debug_aranges
                0x00000658      0x168 ./gecko_sdk_3.2.3/platform/emlib/src/em_cmu.o
 .debug_aranges
                0x000007c0       0xe8 ./gecko_sdk_3.2.3/platform/emlib/src/em_core.o
 .debug_aranges
                0x000008a8      0x158 ./gecko_sdk_3.2.3/platform/emlib/src/em_emu.o
 .debug_aranges
                0x00000a00       0x60 ./gecko_sdk_3.2.3/platform/emlib/src/em_gpio.o
 .debug_aranges
                0x00000a60       0x50 ./gecko_sdk_3.2.3/platform/emlib/src/em_ldma.o
 .debug_aranges
                0x00000ab0       0x40 ./gecko_sdk_3.2.3/platform/emlib/src/em_rtcc.o
 .debug_aranges
                0x00000af0       0x38 ./gecko_sdk_3.2.3/platform/emlib/src/em_timer.o
 .debug_aranges
                0x00000b28       0xb8 ./gecko_sdk_3.2.3/platform/emlib/src/em_usart.o
 .debug_aranges
                0x00000be0       0x20 ./gecko_sdk_3.2.3/platform/service/device_init/src/sl_device_init_dcdc_s1.o
 .debug_aranges
                0x00000c00       0x20 ./gecko_sdk_3.2.3/platform/service/device_init/src/sl_device_init_emu_s1.o
 .debug_aranges
                0x00000c20       0x20 ./gecko_sdk_3.2.3/platform/service/device_init/src/sl_device_init_hfxo_s1.o
 .debug_aranges
                0x00000c40       0x20 ./gecko_sdk_3.2.3/platform/service/device_init/src/sl_device_init_lfxo_s1.o
 .debug_aranges
                0x00000c60       0x20 ./gecko_sdk_3.2.3/platform/service/device_init/src/sl_device_init_nvic.o
 .debug_aranges
                0x00000c80       0xf0 ./gecko_sdk_3.2.3/platform/service/sleeptimer/src/sl_sleeptimer.o
 .debug_aranges
                0x00000d70       0x68 ./gecko_sdk_3.2.3/platform/service/sleeptimer/src/sl_sleeptimer_hal_rtcc.o
 .debug_aranges
                0x00000dd8       0x20 ./gecko_sdk_3.2.3/platform/service/system/src/sl_system_init.o
 .debug_aranges
                0x00000df8       0x20 ./gecko_sdk_3.2.3/platform/service/system/src/sl_system_process_action.o
 .debug_aranges
                0x00000e18       0x20 ./gecko_sdk_3.2.3/platform/service/udelay/src/sl_udelay.o
 .debug_aranges
                0x00000e38       0x20 ./gecko_sdk_3.2.3/platform/service/udelay/src/sl_udelay_armv6m_gcc.o

.debug_ranges   0x00000000     0x1ff0
 .debug_ranges  0x00000000      0x7f0 ./ZOE-M8Q_functions.o
 .debug_ranges  0x000007f0       0x18 ./app.o
 .debug_ranges  0x00000808       0x10 ./main.o
 .debug_ranges  0x00000818       0x38 ./spidrv_zoe.o
 .debug_ranges  0x00000850       0x10 ./autogen/sl_board_default_init.o
 .debug_ranges  0x00000860       0x10 ./autogen/sl_device_init_clocks.o
 .debug_ranges  0x00000870       0x40 ./autogen/sl_event_handler.o
 .debug_ranges  0x000008b0       0x10 ./autogen/sl_simple_led_instances.o
 .debug_ranges  0x000008c0       0x10 ./autogen/sl_spidrv_init.o
 .debug_ranges  0x000008d0       0x40 ./gecko_sdk_3.2.3/hardware/board/src/sl_board_control_gpio.o
 .debug_ranges  0x00000910       0x18 ./gecko_sdk_3.2.3/hardware/board/src/sl_board_init.o
 .debug_ranges  0x00000928       0x50 ./gecko_sdk_3.2.3/hardware/driver/mx25_flash_shutdown/src/sl_mx25_flash_shutdown_usart/sl_mx25_flash_shutdown.o
 .debug_ranges  0x00000978       0x18 ./gecko_sdk_3.2.3/platform/Device/SiliconLabs/EFR32FG14P/Source/GCC/startup_efr32fg14p.o
 .debug_ranges  0x00000990       0x58 ./gecko_sdk_3.2.3/platform/Device/SiliconLabs/EFR32FG14P/Source/system_efr32fg14p.o
 .debug_ranges  0x000009e8       0x20 ./gecko_sdk_3.2.3/platform/common/toolchain/src/sl_memory.o
 .debug_ranges  0x00000a08       0x30 ./gecko_sdk_3.2.3/platform/driver/leddrv/src/sl_led.o
 .debug_ranges  0x00000a38       0xd0 ./gecko_sdk_3.2.3/platform/driver/leddrv/src/sl_simple_led.o
 .debug_ranges  0x00000b08       0x98 ./gecko_sdk_3.2.3/platform/emdrv/dmadrv/src/dmadrv.o
 .debug_ranges  0x00000ba0      0x258 ./gecko_sdk_3.2.3/platform/emdrv/spidrv/src/spidrv.o
 .debug_ranges  0x00000df8      0x1a0 ./gecko_sdk_3.2.3/platform/emdrv/ustimer/src/ustimer.o
 .debug_ranges  0x00000f98       0x10 ./gecko_sdk_3.2.3/platform/emlib/src/em_assert.o
 .debug_ranges  0x00000fa8      0x380 ./gecko_sdk_3.2.3/platform/emlib/src/em_cmu.o
 .debug_ranges  0x00001328      0x188 ./gecko_sdk_3.2.3/platform/emlib/src/em_core.o
 .debug_ranges  0x000014b0      0x3b0 ./gecko_sdk_3.2.3/platform/emlib/src/em_emu.o
 .debug_ranges  0x00001860      0x100 ./gecko_sdk_3.2.3/platform/emlib/src/em_gpio.o
 .debug_ranges  0x00001960       0x70 ./gecko_sdk_3.2.3/platform/emlib/src/em_ldma.o
 .debug_ranges  0x000019d0       0x50 ./gecko_sdk_3.2.3/platform/emlib/src/em_rtcc.o
 .debug_ranges  0x00001a20      0x178 ./gecko_sdk_3.2.3/platform/emlib/src/em_timer.o
 .debug_ranges  0x00001b98       0xa8 ./gecko_sdk_3.2.3/platform/emlib/src/em_usart.o
 .debug_ranges  0x00001c40       0x10 ./gecko_sdk_3.2.3/platform/service/device_init/src/sl_device_init_dcdc_s1.o
 .debug_ranges  0x00001c50       0x10 ./gecko_sdk_3.2.3/platform/service/device_init/src/sl_device_init_emu_s1.o
 .debug_ranges  0x00001c60       0x10 ./gecko_sdk_3.2.3/platform/service/device_init/src/sl_device_init_hfxo_s1.o
 .debug_ranges  0x00001c70       0x10 ./gecko_sdk_3.2.3/platform/service/device_init/src/sl_device_init_lfxo_s1.o
 .debug_ranges  0x00001c80       0x58 ./gecko_sdk_3.2.3/platform/service/device_init/src/sl_device_init_nvic.o
 .debug_ranges  0x00001cd8      0x1a0 ./gecko_sdk_3.2.3/platform/service/sleeptimer/src/sl_sleeptimer.o
 .debug_ranges  0x00001e78      0x148 ./gecko_sdk_3.2.3/platform/service/sleeptimer/src/sl_sleeptimer_hal_rtcc.o
 .debug_ranges  0x00001fc0       0x10 ./gecko_sdk_3.2.3/platform/service/system/src/sl_system_init.o
 .debug_ranges  0x00001fd0       0x10 ./gecko_sdk_3.2.3/platform/service/system/src/sl_system_process_action.o
 .debug_ranges  0x00001fe0       0x10 ./gecko_sdk_3.2.3/platform/service/udelay/src/sl_udelay.o

.debug_macro    0x00000000    0x355a4
 .debug_macro   0x00000000      0x3e5 ./ZOE-M8Q_functions.o
 .debug_macro   0x000003e5      0xa78 ./ZOE-M8Q_functions.o
 .debug_macro   0x00000e5d       0x10 ./ZOE-M8Q_functions.o
 .debug_macro   0x00000e6d       0x22 ./ZOE-M8Q_functions.o
 .debug_macro   0x00000e8f       0x56 ./ZOE-M8Q_functions.o
 .debug_macro   0x00000ee5       0x51 ./ZOE-M8Q_functions.o
 .debug_macro   0x00000f36      0x103 ./ZOE-M8Q_functions.o
 .debug_macro   0x00001039       0x6a ./ZOE-M8Q_functions.o
 .debug_macro   0x000010a3      0x1df ./ZOE-M8Q_functions.o
 .debug_macro   0x00001282       0x22 ./ZOE-M8Q_functions.o
 .debug_macro   0x000012a4      0x16d ./ZOE-M8Q_functions.o
 .debug_macro   0x00001411       0x64 ./ZOE-M8Q_functions.o
 .debug_macro   0x00001475       0x18 ./ZOE-M8Q_functions.o
 .debug_macro   0x0000148d       0x35 ./ZOE-M8Q_functions.o
 .debug_macro   0x000014c2       0x34 ./ZOE-M8Q_functions.o
 .debug_macro   0x000014f6       0x16 ./ZOE-M8Q_functions.o
 .debug_macro   0x0000150c       0x35 ./ZOE-M8Q_functions.o
 .debug_macro   0x00001541      0x356 ./ZOE-M8Q_functions.o
 .debug_macro   0x00001897       0x10 ./ZOE-M8Q_functions.o
 .debug_macro   0x000018a7       0x16 ./ZOE-M8Q_functions.o
 .debug_macro   0x000018bd       0x43 ./ZOE-M8Q_functions.o
 .debug_macro   0x00001900       0x34 ./ZOE-M8Q_functions.o
 .debug_macro   0x00001934       0x10 ./ZOE-M8Q_functions.o
 .debug_macro   0x00001944       0x58 ./ZOE-M8Q_functions.o
 .debug_macro   0x0000199c      0x182 ./ZOE-M8Q_functions.o
 .debug_macro   0x00001b1e       0xbe ./ZOE-M8Q_functions.o
 .debug_macro   0x00001bdc       0x16 ./ZOE-M8Q_functions.o
 .debug_macro   0x00001bf2      0x129 ./ZOE-M8Q_functions.o
 .debug_macro   0x00001d1b       0x16 ./ZOE-M8Q_functions.o
 .debug_macro   0x00001d31       0x22 ./ZOE-M8Q_functions.o
 .debug_macro   0x00001d53       0x19 ./ZOE-M8Q_functions.o
 .debug_macro   0x00001d6c       0x4c ./ZOE-M8Q_functions.o
 .debug_macro   0x00001db8       0x1c ./ZOE-M8Q_functions.o
 .debug_macro   0x00001dd4      0x44f ./ZOE-M8Q_functions.o
 .debug_macro   0x00002223       0x1c ./ZOE-M8Q_functions.o
 .debug_macro   0x0000223f       0x22 ./ZOE-M8Q_functions.o
 .debug_macro   0x00002261       0xd9 ./ZOE-M8Q_functions.o
 .debug_macro   0x0000233a      0xff5 ./ZOE-M8Q_functions.o
 .debug_macro   0x0000332f       0xe2 ./ZOE-M8Q_functions.o
 .debug_macro   0x00003411      0xcd6 ./ZOE-M8Q_functions.o
 .debug_macro   0x000040e7     0x201c ./ZOE-M8Q_functions.o
 .debug_macro   0x00006103      0x329 ./ZOE-M8Q_functions.o
 .debug_macro   0x0000642c     0x3269 ./ZOE-M8Q_functions.o
 .debug_macro   0x00009695     0x1b2e ./ZOE-M8Q_functions.o
 .debug_macro   0x0000b1c3     0x2172 ./ZOE-M8Q_functions.o
 .debug_macro   0x0000d335     0x19bb ./ZOE-M8Q_functions.o
 .debug_macro   0x0000ecf0      0xca3 ./ZOE-M8Q_functions.o
 .debug_macro   0x0000f993      0x344 ./ZOE-M8Q_functions.o
 .debug_macro   0x0000fcd7      0x29d ./ZOE-M8Q_functions.o
 .debug_macro   0x0000ff74     0x2786 ./ZOE-M8Q_functions.o
 .debug_macro   0x000126fa     0x31cc ./ZOE-M8Q_functions.o
 .debug_macro   0x000158c6     0x136b ./ZOE-M8Q_functions.o
 .debug_macro   0x00016c31      0xde2 ./ZOE-M8Q_functions.o
 .debug_macro   0x00017a13      0x249 ./ZOE-M8Q_functions.o
 .debug_macro   0x00017c5c     0x1042 ./ZOE-M8Q_functions.o
 .debug_macro   0x00018c9e     0x1605 ./ZOE-M8Q_functions.o
 .debug_macro   0x0001a2a3     0x3cb7 ./ZOE-M8Q_functions.o
 .debug_macro   0x0001df5a     0x23fc ./ZOE-M8Q_functions.o
 .debug_macro   0x00020356     0x2479 ./ZOE-M8Q_functions.o
 .debug_macro   0x000227cf     0x2efb ./ZOE-M8Q_functions.o
 .debug_macro   0x000256ca      0xfaf ./ZOE-M8Q_functions.o
 .debug_macro   0x00026679      0x6c3 ./ZOE-M8Q_functions.o
 .debug_macro   0x00026d3c      0x65d ./ZOE-M8Q_functions.o
 .debug_macro   0x00027399      0x731 ./ZOE-M8Q_functions.o
 .debug_macro   0x00027aca      0x4ff ./ZOE-M8Q_functions.o
 .debug_macro   0x00027fc9     0x1a91 ./ZOE-M8Q_functions.o
 .debug_macro   0x00029a5a       0x40 ./ZOE-M8Q_functions.o
 .debug_macro   0x00029a9a      0x25e ./ZOE-M8Q_functions.o
 .debug_macro   0x00029cf8      0x2ee ./ZOE-M8Q_functions.o
 .debug_macro   0x00029fe6      0x10c ./ZOE-M8Q_functions.o
 .debug_macro   0x0002a0f2     0x29fd ./ZOE-M8Q_functions.o
 .debug_macro   0x0002caef      0x22a ./ZOE-M8Q_functions.o
 .debug_macro   0x0002cd19      0x22a ./ZOE-M8Q_functions.o
 .debug_macro   0x0002cf43       0xeb ./ZOE-M8Q_functions.o
 .debug_macro   0x0002d02e       0x16 ./ZOE-M8Q_functions.o
 .debug_macro   0x0002d044      0x31a ./app.o
 .debug_macro   0x0002d35e      0x72c ./app.o
 .debug_macro   0x0002da8a       0x10 ./app.o
 .debug_macro   0x0002da9a       0x10 ./app.o
 .debug_macro   0x0002daaa       0x77 ./app.o
 .debug_macro   0x0002db21       0x2e ./app.o
 .debug_macro   0x0002db4f       0x10 ./app.o
 .debug_macro   0x0002db5f       0xf6 ./app.o
 .debug_macro   0x0002dc55       0xe4 ./app.o
 .debug_macro   0x0002dd39       0x10 ./app.o
 .debug_macro   0x0002dd49       0x16 ./app.o
 .debug_macro   0x0002dd5f       0x41 ./main.o
 .debug_macro   0x0002dda0      0x4b2 ./spidrv_zoe.o
 .debug_macro   0x0002e252       0x5e ./spidrv_zoe.o
 .debug_macro   0x0002e2b0       0x5c ./spidrv_zoe.o
 .debug_macro   0x0002e30c       0x57 ./spidrv_zoe.o
 .debug_macro   0x0002e363       0x10 ./spidrv_zoe.o
 .debug_macro   0x0002e373       0x1c ./spidrv_zoe.o
 .debug_macro   0x0002e38f       0x10 ./spidrv_zoe.o
 .debug_macro   0x0002e39f       0xb2 ./spidrv_zoe.o
 .debug_macro   0x0002e451       0xea ./spidrv_zoe.o
 .debug_macro   0x0002e53b      0x35a ./spidrv_zoe.o
 .debug_macro   0x0002e895       0x10 ./spidrv_zoe.o
 .debug_macro   0x0002e8a5       0x4c ./spidrv_zoe.o
 .debug_macro   0x0002e8f1       0x10 ./spidrv_zoe.o
 .debug_macro   0x0002e901       0x16 ./spidrv_zoe.o
 .debug_macro   0x0002e917       0xc0 ./spidrv_zoe.o
 .debug_macro   0x0002e9d7       0x1c ./spidrv_zoe.o
 .debug_macro   0x0002e9f3       0x3b ./spidrv_zoe.o
 .debug_macro   0x0002ea2e       0x5c ./spidrv_zoe.o
 .debug_macro   0x0002ea8a       0x10 ./spidrv_zoe.o
 .debug_macro   0x0002ea9a       0xf1 ./spidrv_zoe.o
 .debug_macro   0x0002eb8b       0x8e ./autogen/sl_board_default_init.o
 .debug_macro   0x0002ec19      0x726 ./autogen/sl_board_default_init.o
 .debug_macro   0x0002f33f       0x16 ./autogen/sl_board_default_init.o
 .debug_macro   0x0002f355      0x2de ./autogen/sl_device_init_clocks.o
 .debug_macro   0x0002f633      0x3d5 ./autogen/sl_event_handler.o
 .debug_macro   0x0002fa08       0x71 ./autogen/sl_event_handler.o
 .debug_macro   0x0002fa79       0x16 ./autogen/sl_event_handler.o
 .debug_macro   0x0002fa8f       0x10 ./autogen/sl_event_handler.o
 .debug_macro   0x0002fa9f      0x2e2 ./autogen/sl_simple_led_instances.o
 .debug_macro   0x0002fd81       0x1c ./autogen/sl_simple_led_instances.o
 .debug_macro   0x0002fd9d      0x347 ./autogen/sl_spidrv_init.o
 .debug_macro   0x000300e4       0x88 ./autogen/sl_spidrv_init.o
 .debug_macro   0x0003016c      0x2dd ./gecko_sdk_3.2.3/hardware/board/src/sl_board_control_gpio.o
 .debug_macro   0x00030449       0x46 ./gecko_sdk_3.2.3/hardware/board/src/sl_board_control_gpio.o
 .debug_macro   0x0003048f      0x303 ./gecko_sdk_3.2.3/hardware/board/src/sl_board_init.o
 .debug_macro   0x00030792       0x58 ./gecko_sdk_3.2.3/hardware/board/src/sl_board_init.o
 .debug_macro   0x000307ea      0x307 ./gecko_sdk_3.2.3/hardware/driver/mx25_flash_shutdown/src/sl_mx25_flash_shutdown_usart/sl_mx25_flash_shutdown.o
 .debug_macro   0x00030af1      0x26d ./gecko_sdk_3.2.3/platform/Device/SiliconLabs/EFR32FG14P/Source/GCC/startup_efr32fg14p.o
 .debug_macro   0x00030d5e      0x281 ./gecko_sdk_3.2.3/platform/Device/SiliconLabs/EFR32FG14P/Source/system_efr32fg14p.o
 .debug_macro   0x00030fdf       0x92 ./gecko_sdk_3.2.3/platform/common/toolchain/src/sl_memory.o
 .debug_macro   0x00031071       0x16 ./gecko_sdk_3.2.3/platform/common/toolchain/src/sl_memory.o
 .debug_macro   0x00031087       0x84 ./gecko_sdk_3.2.3/platform/driver/leddrv/src/sl_led.o
 .debug_macro   0x0003110b      0x2f6 ./gecko_sdk_3.2.3/platform/driver/leddrv/src/sl_simple_led.o
 .debug_macro   0x00031401      0x301 ./gecko_sdk_3.2.3/platform/emdrv/dmadrv/src/dmadrv.o
 .debug_macro   0x00031702       0x10 ./gecko_sdk_3.2.3/platform/emdrv/dmadrv/src/dmadrv.o
 .debug_macro   0x00031712      0x40b ./gecko_sdk_3.2.3/platform/emdrv/spidrv/src/spidrv.o
 .debug_macro   0x00031b1d      0x368 ./gecko_sdk_3.2.3/platform/emdrv/ustimer/src/ustimer.o
 .debug_macro   0x00031e85       0x87 ./gecko_sdk_3.2.3/platform/emdrv/ustimer/src/ustimer.o
 .debug_macro   0x00031f0c       0x7f ./gecko_sdk_3.2.3/platform/emdrv/ustimer/src/ustimer.o
 .debug_macro   0x00031f8b       0x2c ./gecko_sdk_3.2.3/platform/emlib/src/em_assert.o
 .debug_macro   0x00031fb7      0x3ce ./gecko_sdk_3.2.3/platform/emlib/src/em_cmu.o
 .debug_macro   0x00032385       0x7c ./gecko_sdk_3.2.3/platform/emlib/src/em_cmu.o
 .debug_macro   0x00032401       0x17 ./gecko_sdk_3.2.3/platform/emlib/src/em_cmu.o
 .debug_macro   0x00032418       0xee ./gecko_sdk_3.2.3/platform/emlib/src/em_cmu.o
 .debug_macro   0x00032506      0x2b1 ./gecko_sdk_3.2.3/platform/emlib/src/em_core.o
 .debug_macro   0x000327b7      0x3ff ./gecko_sdk_3.2.3/platform/emlib/src/em_emu.o
 .debug_macro   0x00032bb6       0x81 ./gecko_sdk_3.2.3/platform/emlib/src/em_emu.o
 .debug_macro   0x00032c37       0x34 ./gecko_sdk_3.2.3/platform/emlib/src/em_emu.o
 .debug_macro   0x00032c6b      0x2be ./gecko_sdk_3.2.3/platform/emlib/src/em_gpio.o
 .debug_macro   0x00032f29      0x2e9 ./gecko_sdk_3.2.3/platform/emlib/src/em_ldma.o
 .debug_macro   0x00033212       0xba ./gecko_sdk_3.2.3/platform/emlib/src/em_ldma.o
 .debug_macro   0x000332cc      0x2b2 ./gecko_sdk_3.2.3/platform/emlib/src/em_rtcc.o
 .debug_macro   0x0003357e       0x7b ./gecko_sdk_3.2.3/platform/emlib/src/em_rtcc.o
 .debug_macro   0x000335f9      0x282 ./gecko_sdk_3.2.3/platform/emlib/src/em_timer.o
 .debug_macro   0x0003387b       0x79 ./gecko_sdk_3.2.3/platform/emlib/src/em_timer.o
 .debug_macro   0x000338f4      0x307 ./gecko_sdk_3.2.3/platform/emlib/src/em_usart.o
 .debug_macro   0x00033bfb      0x2d4 ./gecko_sdk_3.2.3/platform/service/device_init/src/sl_device_init_dcdc_s1.o
 .debug_macro   0x00033ecf       0x16 ./gecko_sdk_3.2.3/platform/service/device_init/src/sl_device_init_dcdc_s1.o
 .debug_macro   0x00033ee5      0x2da ./gecko_sdk_3.2.3/platform/service/device_init/src/sl_device_init_emu_s1.o
 .debug_macro   0x000341bf       0x28 ./gecko_sdk_3.2.3/platform/service/device_init/src/sl_device_init_emu_s1.o
 .debug_macro   0x000341e7      0x2f3 ./gecko_sdk_3.2.3/platform/service/device_init/src/sl_device_init_hfxo_s1.o
 .debug_macro   0x000344da       0x28 ./gecko_sdk_3.2.3/platform/service/device_init/src/sl_device_init_hfxo_s1.o
 .debug_macro   0x00034502      0x2e7 ./gecko_sdk_3.2.3/platform/service/device_init/src/sl_device_init_lfxo_s1.o
 .debug_macro   0x000347e9       0x22 ./gecko_sdk_3.2.3/platform/service/device_init/src/sl_device_init_lfxo_s1.o
 .debug_macro   0x0003480b      0x2ae ./gecko_sdk_3.2.3/platform/service/device_init/src/sl_device_init_nvic.o
 .debug_macro   0x00034ab9      0x468 ./gecko_sdk_3.2.3/platform/service/sleeptimer/src/sl_sleeptimer.o
 .debug_macro   0x00034f21       0x10 ./gecko_sdk_3.2.3/platform/service/sleeptimer/src/sl_sleeptimer.o
 .debug_macro   0x00034f31       0x10 ./gecko_sdk_3.2.3/platform/service/sleeptimer/src/sl_sleeptimer.o
 .debug_macro   0x00034f41       0x10 ./gecko_sdk_3.2.3/platform/service/sleeptimer/src/sl_sleeptimer.o
 .debug_macro   0x00034f51       0x2e ./gecko_sdk_3.2.3/platform/service/sleeptimer/src/sl_sleeptimer.o
 .debug_macro   0x00034f7f       0x16 ./gecko_sdk_3.2.3/platform/service/sleeptimer/src/sl_sleeptimer.o
 .debug_macro   0x00034f95       0x10 ./gecko_sdk_3.2.3/platform/service/sleeptimer/src/sl_sleeptimer.o
 .debug_macro   0x00034fa5       0x16 ./gecko_sdk_3.2.3/platform/service/sleeptimer/src/sl_sleeptimer.o
 .debug_macro   0x00034fbb      0x334 ./gecko_sdk_3.2.3/platform/service/sleeptimer/src/sl_sleeptimer_hal_rtcc.o
 .debug_macro   0x000352ef       0x24 ./gecko_sdk_3.2.3/platform/service/system/src/sl_system_init.o
 .debug_macro   0x00035313       0x24 ./gecko_sdk_3.2.3/platform/service/system/src/sl_system_process_action.o
 .debug_macro   0x00035337      0x26d ./gecko_sdk_3.2.3/platform/service/udelay/src/sl_udelay.o

.debug_line     0x00000000    0x2413a
 .debug_line    0x00000000     0x37b3 ./ZOE-M8Q_functions.o
 .debug_line    0x000037b3      0xc5f ./app.o
 .debug_line    0x00004412      0x1e7 ./main.o
 .debug_line    0x000045f9      0xf5e ./spidrv_zoe.o
 .debug_line    0x00005557      0x40c ./autogen/sl_board_default_init.o
 .debug_line    0x00005963      0xb41 ./autogen/sl_device_init_clocks.o
 .debug_line    0x000064a4      0xfe1 ./autogen/sl_event_handler.o
 .debug_line    0x00007485      0xb30 ./autogen/sl_simple_led_instances.o
 .debug_line    0x00007fb5      0xd10 ./autogen/sl_spidrv_init.o
 .debug_line    0x00008cc5      0xc92 ./gecko_sdk_3.2.3/hardware/board/src/sl_board_control_gpio.o
 .debug_line    0x00009957      0xc9b ./gecko_sdk_3.2.3/hardware/board/src/sl_board_init.o
 .debug_line    0x0000a5f2      0xd0c ./gecko_sdk_3.2.3/hardware/driver/mx25_flash_shutdown/src/sl_mx25_flash_shutdown_usart/sl_mx25_flash_shutdown.o
 .debug_line    0x0000b2fe      0x9b6 ./gecko_sdk_3.2.3/platform/Device/SiliconLabs/EFR32FG14P/Source/GCC/startup_efr32fg14p.o
 .debug_line    0x0000bcb4      0xab7 ./gecko_sdk_3.2.3/platform/Device/SiliconLabs/EFR32FG14P/Source/system_efr32fg14p.o
 .debug_line    0x0000c76b      0x454 ./gecko_sdk_3.2.3/platform/common/toolchain/src/sl_memory.o
 .debug_line    0x0000cbbf      0x4af ./gecko_sdk_3.2.3/platform/driver/leddrv/src/sl_led.o
 .debug_line    0x0000d06e      0xdcb ./gecko_sdk_3.2.3/platform/driver/leddrv/src/sl_simple_led.o
 .debug_line    0x0000de39     0x135a ./gecko_sdk_3.2.3/platform/emdrv/dmadrv/src/dmadrv.o
 .debug_line    0x0000f193     0x21e5 ./gecko_sdk_3.2.3/platform/emdrv/spidrv/src/spidrv.o
 .debug_line    0x00011378     0x1100 ./gecko_sdk_3.2.3/platform/emdrv/ustimer/src/ustimer.o
 .debug_line    0x00012478      0x240 ./gecko_sdk_3.2.3/platform/emlib/src/em_assert.o
 .debug_line    0x000126b8     0x2979 ./gecko_sdk_3.2.3/platform/emlib/src/em_cmu.o
 .debug_line    0x00015031     0x115a ./gecko_sdk_3.2.3/platform/emlib/src/em_core.o
 .debug_line    0x0001618b     0x2385 ./gecko_sdk_3.2.3/platform/emlib/src/em_emu.o
 .debug_line    0x00018510      0xf4f ./gecko_sdk_3.2.3/platform/emlib/src/em_gpio.o
 .debug_line    0x0001945f      0xeb1 ./gecko_sdk_3.2.3/platform/emlib/src/em_ldma.o
 .debug_line    0x0001a310      0xc9f ./gecko_sdk_3.2.3/platform/emlib/src/em_rtcc.o
 .debug_line    0x0001afaf      0xe59 ./gecko_sdk_3.2.3/platform/emlib/src/em_timer.o
 .debug_line    0x0001be08     0x131b ./gecko_sdk_3.2.3/platform/emlib/src/em_usart.o
 .debug_line    0x0001d123      0xba6 ./gecko_sdk_3.2.3/platform/service/device_init/src/sl_device_init_dcdc_s1.o
 .debug_line    0x0001dcc9      0xbc1 ./gecko_sdk_3.2.3/platform/service/device_init/src/sl_device_init_emu_s1.o
 .debug_line    0x0001e88a      0xc0f ./gecko_sdk_3.2.3/platform/service/device_init/src/sl_device_init_hfxo_s1.o
 .debug_line    0x0001f499      0xbd7 ./gecko_sdk_3.2.3/platform/service/device_init/src/sl_device_init_lfxo_s1.o
 .debug_line    0x00020070      0xb4a ./gecko_sdk_3.2.3/platform/service/device_init/src/sl_device_init_nvic.o
 .debug_line    0x00020bba     0x1797 ./gecko_sdk_3.2.3/platform/service/sleeptimer/src/sl_sleeptimer.o
 .debug_line    0x00022351     0x1042 ./gecko_sdk_3.2.3/platform/service/sleeptimer/src/sl_sleeptimer_hal_rtcc.o
 .debug_line    0x00023393      0x19c ./gecko_sdk_3.2.3/platform/service/system/src/sl_system_init.o
 .debug_line    0x0002352f      0x1a5 ./gecko_sdk_3.2.3/platform/service/system/src/sl_system_process_action.o
 .debug_line    0x000236d4      0x9b0 ./gecko_sdk_3.2.3/platform/service/udelay/src/sl_udelay.o
 .debug_line    0x00024084       0xb6 ./gecko_sdk_3.2.3/platform/service/udelay/src/sl_udelay_armv6m_gcc.o

.debug_str      0x00000000   0x149bcb
 .debug_str     0x00000000   0x135c3c ./ZOE-M8Q_functions.o
                             0x136c2e (size before relaxing)
 .debug_str     0x00135c3c     0x515c ./app.o
                             0x135e1f (size before relaxing)
 .debug_str     0x0013ad98       0x6c ./main.o
                               0x2e9f (size before relaxing)
 .debug_str     0x0013ae04     0x4de0 ./spidrv_zoe.o
                             0x1403e7 (size before relaxing)
 .debug_str     0x0013fbe4       0xe4 ./autogen/sl_board_default_init.o
                               0x78b0 (size before relaxing)
 .debug_str     0x0013fcc8      0x144 ./autogen/sl_device_init_clocks.o
                             0x136a01 (size before relaxing)
 .debug_str     0x0013fe0c      0x302 ./autogen/sl_event_handler.o
                             0x13a9d1 (size before relaxing)
 .debug_str     0x0014010e      0x12e ./autogen/sl_simple_led_instances.o
                             0x135b75 (size before relaxing)
 .debug_str     0x0014023c      0xc82 ./autogen/sl_spidrv_init.o
                             0x13b669 (size before relaxing)
 .debug_str     0x00140ebe      0x39b ./gecko_sdk_3.2.3/hardware/board/src/sl_board_control_gpio.o
                             0x135f0a (size before relaxing)
 .debug_str     0x00141259      0x2a0 ./gecko_sdk_3.2.3/hardware/board/src/sl_board_init.o
                             0x136d5f (size before relaxing)
 .debug_str     0x001414f9      0x281 ./gecko_sdk_3.2.3/hardware/driver/mx25_flash_shutdown/src/sl_mx25_flash_shutdown_usart/sl_mx25_flash_shutdown.o
                             0x133b9e (size before relaxing)
 .debug_str     0x0014177a      0x146 ./gecko_sdk_3.2.3/platform/Device/SiliconLabs/EFR32FG14P/Source/GCC/startup_efr32fg14p.o
                             0x130ab6 (size before relaxing)
 .debug_str     0x001418c0      0x530 ./gecko_sdk_3.2.3/platform/Device/SiliconLabs/EFR32FG14P/Source/system_efr32fg14p.o
                             0x130efb (size before relaxing)
 .debug_str     0x00141df0      0x163 ./gecko_sdk_3.2.3/platform/common/toolchain/src/sl_memory.o
                               0x403c (size before relaxing)
 .debug_str     0x00141f53       0xb0 ./gecko_sdk_3.2.3/platform/driver/leddrv/src/sl_led.o
                               0x7950 (size before relaxing)
 .debug_str     0x00142003      0x123 ./gecko_sdk_3.2.3/platform/driver/leddrv/src/sl_simple_led.o
                             0x136de0 (size before relaxing)
 .debug_str     0x00142126      0xa7e ./gecko_sdk_3.2.3/platform/emdrv/dmadrv/src/dmadrv.o
                             0x137106 (size before relaxing)
 .debug_str     0x00142ba4      0x7af ./gecko_sdk_3.2.3/platform/emdrv/spidrv/src/spidrv.o
                             0x13ef25 (size before relaxing)
 .debug_str     0x00143353      0xfa7 ./gecko_sdk_3.2.3/platform/emdrv/ustimer/src/ustimer.o
                             0x1343a7 (size before relaxing)
 .debug_str     0x001442fa       0x75 ./gecko_sdk_3.2.3/platform/emlib/src/em_assert.o
                               0x2e4b (size before relaxing)
 .debug_str     0x0014436f     0x175a ./gecko_sdk_3.2.3/platform/emlib/src/em_cmu.o
                             0x1367d9 (size before relaxing)
 .debug_str     0x00145ac9      0x35a ./gecko_sdk_3.2.3/platform/emlib/src/em_core.o
                             0x131c16 (size before relaxing)
 .debug_str     0x00145e23     0x13f1 ./gecko_sdk_3.2.3/platform/emlib/src/em_emu.o
                             0x136ca7 (size before relaxing)
 .debug_str     0x00147214      0x267 ./gecko_sdk_3.2.3/platform/emlib/src/em_gpio.o
                             0x13247f (size before relaxing)
 .debug_str     0x0014747b       0x87 ./gecko_sdk_3.2.3/platform/emlib/src/em_ldma.o
                             0x136504 (size before relaxing)
 .debug_str     0x00147502      0x7e3 ./gecko_sdk_3.2.3/platform/emlib/src/em_rtcc.o
                             0x131d4d (size before relaxing)
 .debug_str     0x00147ce5      0x276 ./gecko_sdk_3.2.3/platform/emlib/src/em_timer.o
                             0x131520 (size before relaxing)
 .debug_str     0x00147f5b      0x67d ./gecko_sdk_3.2.3/platform/emlib/src/em_usart.o
                             0x133c13 (size before relaxing)
 .debug_str     0x001485d8       0xe3 ./gecko_sdk_3.2.3/platform/service/device_init/src/sl_device_init_dcdc_s1.o
                             0x13581f (size before relaxing)
 .debug_str     0x001486bb      0x1c3 ./gecko_sdk_3.2.3/platform/service/device_init/src/sl_device_init_emu_s1.o
                             0x135817 (size before relaxing)
 .debug_str     0x0014887e      0x1ab ./gecko_sdk_3.2.3/platform/service/device_init/src/sl_device_init_hfxo_s1.o
                             0x136d59 (size before relaxing)
 .debug_str     0x00148a29      0x14e ./gecko_sdk_3.2.3/platform/service/device_init/src/sl_device_init_lfxo_s1.o
                             0x1368b2 (size before relaxing)
 .debug_str     0x00148b77       0x88 ./gecko_sdk_3.2.3/platform/service/device_init/src/sl_device_init_nvic.o
                             0x135506 (size before relaxing)
 .debug_str     0x00148bff      0xb78 ./gecko_sdk_3.2.3/platform/service/sleeptimer/src/sl_sleeptimer.o
                             0x138f31 (size before relaxing)
 .debug_str     0x00149777      0x204 ./gecko_sdk_3.2.3/platform/service/sleeptimer/src/sl_sleeptimer_hal_rtcc.o
                             0x137d04 (size before relaxing)
 .debug_str     0x0014997b       0x7e ./gecko_sdk_3.2.3/platform/service/system/src/sl_system_init.o
                               0x2e1d (size before relaxing)
 .debug_str     0x001499f9       0x88 ./gecko_sdk_3.2.3/platform/service/system/src/sl_system_process_action.o
                               0x2e4a (size before relaxing)
 .debug_str     0x00149a81       0xb8 ./gecko_sdk_3.2.3/platform/service/udelay/src/sl_udelay.o
                             0x1309e9 (size before relaxing)
 .debug_str     0x00149b39       0x92 ./gecko_sdk_3.2.3/platform/service/udelay/src/sl_udelay_armv6m_gcc.o
                                 0xdd (size before relaxing)

.debug_frame    0x00000000     0x2f44
 .debug_frame   0x00000000      0x330 ./ZOE-M8Q_functions.o
 .debug_frame   0x00000330       0x48 ./app.o
 .debug_frame   0x00000378       0x28 ./main.o
 .debug_frame   0x000003a0       0x68 ./spidrv_zoe.o
 .debug_frame   0x00000408       0x20 ./autogen/sl_board_default_init.o
 .debug_frame   0x00000428       0x28 ./autogen/sl_device_init_clocks.o
 .debug_frame   0x00000450       0xb8 ./autogen/sl_event_handler.o
 .debug_frame   0x00000508       0x20 ./autogen/sl_simple_led_instances.o
 .debug_frame   0x00000528       0x20 ./autogen/sl_spidrv_init.o
 .debug_frame   0x00000548       0xe0 ./gecko_sdk_3.2.3/hardware/board/src/sl_board_control_gpio.o
 .debug_frame   0x00000628       0x3c ./gecko_sdk_3.2.3/hardware/board/src/sl_board_init.o
 .debug_frame   0x00000664       0x54 ./gecko_sdk_3.2.3/hardware/driver/mx25_flash_shutdown/src/sl_mx25_flash_shutdown_usart/sl_mx25_flash_shutdown.o
 .debug_frame   0x000006b8       0x38 ./gecko_sdk_3.2.3/platform/Device/SiliconLabs/EFR32FG14P/Source/GCC/startup_efr32fg14p.o
 .debug_frame   0x000006f0       0xb8 ./gecko_sdk_3.2.3/platform/Device/SiliconLabs/EFR32FG14P/Source/system_efr32fg14p.o
 .debug_frame   0x000007a8       0x40 ./gecko_sdk_3.2.3/platform/common/toolchain/src/sl_memory.o
 .debug_frame   0x000007e8       0x60 ./gecko_sdk_3.2.3/platform/driver/leddrv/src/sl_led.o
 .debug_frame   0x00000848       0xb8 ./gecko_sdk_3.2.3/platform/driver/leddrv/src/sl_simple_led.o
 .debug_frame   0x00000900      0x210 ./gecko_sdk_3.2.3/platform/emdrv/dmadrv/src/dmadrv.o
 .debug_frame   0x00000b10      0x420 ./gecko_sdk_3.2.3/platform/emdrv/spidrv/src/spidrv.o
 .debug_frame   0x00000f30       0xb8 ./gecko_sdk_3.2.3/platform/emdrv/ustimer/src/ustimer.o
 .debug_frame   0x00000fe8       0x20 ./gecko_sdk_3.2.3/platform/emlib/src/em_assert.o
 .debug_frame   0x00001008      0x4a0 ./gecko_sdk_3.2.3/platform/emlib/src/em_cmu.o
 .debug_frame   0x000014a8      0x244 ./gecko_sdk_3.2.3/platform/emlib/src/em_core.o
 .debug_frame   0x000016ec      0x464 ./gecko_sdk_3.2.3/platform/emlib/src/em_emu.o
 .debug_frame   0x00001b50      0x138 ./gecko_sdk_3.2.3/platform/emlib/src/em_gpio.o
 .debug_frame   0x00001c88       0xd4 ./gecko_sdk_3.2.3/platform/emlib/src/em_ldma.o
 .debug_frame   0x00001d5c       0x80 ./gecko_sdk_3.2.3/platform/emlib/src/em_rtcc.o
 .debug_frame   0x00001ddc       0x90 ./gecko_sdk_3.2.3/platform/emlib/src/em_timer.o
 .debug_frame   0x00001e6c      0x1f0 ./gecko_sdk_3.2.3/platform/emlib/src/em_usart.o
 .debug_frame   0x0000205c       0x30 ./gecko_sdk_3.2.3/platform/service/device_init/src/sl_device_init_dcdc_s1.o
 .debug_frame   0x0000208c       0x2c ./gecko_sdk_3.2.3/platform/service/device_init/src/sl_device_init_emu_s1.o
 .debug_frame   0x000020b8       0x34 ./gecko_sdk_3.2.3/platform/service/device_init/src/sl_device_init_hfxo_s1.o
 .debug_frame   0x000020ec       0x28 ./gecko_sdk_3.2.3/platform/service/device_init/src/sl_device_init_lfxo_s1.o
 .debug_frame   0x00002114       0x28 ./gecko_sdk_3.2.3/platform/service/device_init/src/sl_device_init_nvic.o
 .debug_frame   0x0000213c      0x300 ./gecko_sdk_3.2.3/platform/service/sleeptimer/src/sl_sleeptimer.o
 .debug_frame   0x0000243c       0xd4 ./gecko_sdk_3.2.3/platform/service/sleeptimer/src/sl_sleeptimer_hal_rtcc.o
 .debug_frame   0x00002510       0x2c ./gecko_sdk_3.2.3/platform/service/system/src/sl_system_init.o
 .debug_frame   0x0000253c       0x2c ./gecko_sdk_3.2.3/platform/service/system/src/sl_system_process_action.o
 .debug_frame   0x00002568       0x30 ./gecko_sdk_3.2.3/platform/service/udelay/src/sl_udelay.o
 .debug_frame   0x00002598       0x2c d:/programme/siliconlabs/simplicitystudio/v5/developer/toolchains/gnu_arm/10.2_2020q4/bin/../lib/gcc/arm-none-eabi/10.2.1/thumb/v7e-m+fp/softfp\libgcc.a(_aeabi_uldivmod.o)
 .debug_frame   0x000025c4       0x34 d:/programme/siliconlabs/simplicitystudio/v5/developer/toolchains/gnu_arm/10.2_2020q4/bin/../lib/gcc/arm-none-eabi/10.2.1/thumb/v7e-m+fp/softfp\libgcc.a(_udivmoddi4.o)
 .debug_frame   0x000025f8       0x28 d:/programme/siliconlabs/simplicitystudio/v5/developer/toolchains/gnu_arm/10.2_2020q4/bin/../lib/gcc/arm-none-eabi/10.2.1/../../../../arm-none-eabi/lib/thumb/v7e-m+fp/softfp\libc_nano.a(lib_a-exit.o)
 .debug_frame   0x00002620       0x2c d:/programme/siliconlabs/simplicitystudio/v5/developer/toolchains/gnu_arm/10.2_2020q4/bin/../lib/gcc/arm-none-eabi/10.2.1/../../../../arm-none-eabi/lib/thumb/v7e-m+fp/softfp\libc_nano.a(lib_a-init.o)
 .debug_frame   0x0000264c       0x30 d:/programme/siliconlabs/simplicitystudio/v5/developer/toolchains/gnu_arm/10.2_2020q4/bin/../lib/gcc/arm-none-eabi/10.2.1/../../../../arm-none-eabi/lib/thumb/v7e-m+fp/softfp\libc_nano.a(lib_a-malloc.o)
 .debug_frame   0x0000267c       0x28 d:/programme/siliconlabs/simplicitystudio/v5/developer/toolchains/gnu_arm/10.2_2020q4/bin/../lib/gcc/arm-none-eabi/10.2.1/../../../../arm-none-eabi/lib/thumb/v7e-m+fp/softfp\libc_nano.a(lib_a-memcpy-stub.o)
 .debug_frame   0x000026a4       0x20 d:/programme/siliconlabs/simplicitystudio/v5/developer/toolchains/gnu_arm/10.2_2020q4/bin/../lib/gcc/arm-none-eabi/10.2.1/../../../../arm-none-eabi/lib/thumb/v7e-m+fp/softfp\libc_nano.a(lib_a-memset.o)
 .debug_frame   0x000026c4       0x38 d:/programme/siliconlabs/simplicitystudio/v5/developer/toolchains/gnu_arm/10.2_2020q4/bin/../lib/gcc/arm-none-eabi/10.2.1/../../../../arm-none-eabi/lib/thumb/v7e-m+fp/softfp\libc_nano.a(lib_a-nano-freer.o)
 .debug_frame   0x000026fc       0x30 d:/programme/siliconlabs/simplicitystudio/v5/developer/toolchains/gnu_arm/10.2_2020q4/bin/../lib/gcc/arm-none-eabi/10.2.1/../../../../arm-none-eabi/lib/thumb/v7e-m+fp/softfp\libc_nano.a(lib_a-nano-mallocr.o)
 .debug_frame   0x0000272c       0x74 d:/programme/siliconlabs/simplicitystudio/v5/developer/toolchains/gnu_arm/10.2_2020q4/bin/../lib/gcc/arm-none-eabi/10.2.1/../../../../arm-none-eabi/lib/thumb/v7e-m+fp/softfp\libc_nano.a(lib_a-printf.o)
 .debug_frame   0x000027a0       0x2c d:/programme/siliconlabs/simplicitystudio/v5/developer/toolchains/gnu_arm/10.2_2020q4/bin/../lib/gcc/arm-none-eabi/10.2.1/../../../../arm-none-eabi/lib/thumb/v7e-m+fp/softfp\libc_nano.a(lib_a-sbrkr.o)
 .debug_frame   0x000027cc      0x14c d:/programme/siliconlabs/simplicitystudio/v5/developer/toolchains/gnu_arm/10.2_2020q4/bin/../lib/gcc/arm-none-eabi/10.2.1/../../../../arm-none-eabi/lib/thumb/v7e-m+fp/softfp\libc_nano.a(lib_a-findfp.o)
 .debug_frame   0x00002918       0x54 d:/programme/siliconlabs/simplicitystudio/v5/developer/toolchains/gnu_arm/10.2_2020q4/bin/../lib/gcc/arm-none-eabi/10.2.1/../../../../arm-none-eabi/lib/thumb/v7e-m+fp/softfp\libc_nano.a(lib_a-fwalk.o)
 .debug_frame   0x0000296c       0xb0 d:/programme/siliconlabs/simplicitystudio/v5/developer/toolchains/gnu_arm/10.2_2020q4/bin/../lib/gcc/arm-none-eabi/10.2.1/../../../../arm-none-eabi/lib/thumb/v7e-m+fp/softfp\libc_nano.a(lib_a-lock.o)
 .debug_frame   0x00002a1c       0x30 d:/programme/siliconlabs/simplicitystudio/v5/developer/toolchains/gnu_arm/10.2_2020q4/bin/../lib/gcc/arm-none-eabi/10.2.1/../../../../arm-none-eabi/lib/thumb/v7e-m+fp/softfp\libc_nano.a(lib_a-mlock.o)
 .debug_frame   0x00002a4c       0xac d:/programme/siliconlabs/simplicitystudio/v5/developer/toolchains/gnu_arm/10.2_2020q4/bin/../lib/gcc/arm-none-eabi/10.2.1/../../../../arm-none-eabi/lib/thumb/v7e-m+fp/softfp\libc_nano.a(lib_a-nano-vfprintf.o)
 .debug_frame   0x00002af8       0x60 d:/programme/siliconlabs/simplicitystudio/v5/developer/toolchains/gnu_arm/10.2_2020q4/bin/../lib/gcc/arm-none-eabi/10.2.1/../../../../arm-none-eabi/lib/thumb/v7e-m+fp/softfp\libc_nano.a(lib_a-nano-vfprintf_i.o)
 .debug_frame   0x00002b58       0x5c d:/programme/siliconlabs/simplicitystudio/v5/developer/toolchains/gnu_arm/10.2_2020q4/bin/../lib/gcc/arm-none-eabi/10.2.1/../../../../arm-none-eabi/lib/thumb/v7e-m+fp/softfp\libc_nano.a(lib_a-reent.o)
 .debug_frame   0x00002bb4       0x88 d:/programme/siliconlabs/simplicitystudio/v5/developer/toolchains/gnu_arm/10.2_2020q4/bin/../lib/gcc/arm-none-eabi/10.2.1/../../../../arm-none-eabi/lib/thumb/v7e-m+fp/softfp\libc_nano.a(lib_a-stdio.o)
 .debug_frame   0x00002c3c       0x40 d:/programme/siliconlabs/simplicitystudio/v5/developer/toolchains/gnu_arm/10.2_2020q4/bin/../lib/gcc/arm-none-eabi/10.2.1/../../../../arm-none-eabi/lib/thumb/v7e-m+fp/softfp\libc_nano.a(lib_a-wbuf.o)
 .debug_frame   0x00002c7c       0x2c d:/programme/siliconlabs/simplicitystudio/v5/developer/toolchains/gnu_arm/10.2_2020q4/bin/../lib/gcc/arm-none-eabi/10.2.1/../../../../arm-none-eabi/lib/thumb/v7e-m+fp/softfp\libc_nano.a(lib_a-writer.o)
 .debug_frame   0x00002ca8       0x2c d:/programme/siliconlabs/simplicitystudio/v5/developer/toolchains/gnu_arm/10.2_2020q4/bin/../lib/gcc/arm-none-eabi/10.2.1/../../../../arm-none-eabi/lib/thumb/v7e-m+fp/softfp\libc_nano.a(lib_a-wsetup.o)
 .debug_frame   0x00002cd4       0x2c d:/programme/siliconlabs/simplicitystudio/v5/developer/toolchains/gnu_arm/10.2_2020q4/bin/../lib/gcc/arm-none-eabi/10.2.1/../../../../arm-none-eabi/lib/thumb/v7e-m+fp/softfp\libc_nano.a(lib_a-closer.o)
 .debug_frame   0x00002d00       0x5c d:/programme/siliconlabs/simplicitystudio/v5/developer/toolchains/gnu_arm/10.2_2020q4/bin/../lib/gcc/arm-none-eabi/10.2.1/../../../../arm-none-eabi/lib/thumb/v7e-m+fp/softfp\libc_nano.a(lib_a-fflush.o)
 .debug_frame   0x00002d5c       0x2c d:/programme/siliconlabs/simplicitystudio/v5/developer/toolchains/gnu_arm/10.2_2020q4/bin/../lib/gcc/arm-none-eabi/10.2.1/../../../../arm-none-eabi/lib/thumb/v7e-m+fp/softfp\libc_nano.a(lib_a-lseekr.o)
 .debug_frame   0x00002d88       0x58 d:/programme/siliconlabs/simplicitystudio/v5/developer/toolchains/gnu_arm/10.2_2020q4/bin/../lib/gcc/arm-none-eabi/10.2.1/../../../../arm-none-eabi/lib/thumb/v7e-m+fp/softfp\libc_nano.a(lib_a-makebuf.o)
 .debug_frame   0x00002de0       0x2c d:/programme/siliconlabs/simplicitystudio/v5/developer/toolchains/gnu_arm/10.2_2020q4/bin/../lib/gcc/arm-none-eabi/10.2.1/../../../../arm-none-eabi/lib/thumb/v7e-m+fp/softfp\libc_nano.a(lib_a-readr.o)
 .debug_frame   0x00002e0c       0x2c d:/programme/siliconlabs/simplicitystudio/v5/developer/toolchains/gnu_arm/10.2_2020q4/bin/../lib/gcc/arm-none-eabi/10.2.1/../../../../arm-none-eabi/lib/thumb/v7e-m+fp/softfp\libc_nano.a(lib_a-fstatr.o)
 .debug_frame   0x00002e38       0x2c d:/programme/siliconlabs/simplicitystudio/v5/developer/toolchains/gnu_arm/10.2_2020q4/bin/../lib/gcc/arm-none-eabi/10.2.1/../../../../arm-none-eabi/lib/thumb/v7e-m+fp/softfp\libc_nano.a(lib_a-isattyr.o)
 .debug_frame   0x00002e64       0x20 d:/programme/siliconlabs/simplicitystudio/v5/developer/toolchains/gnu_arm/10.2_2020q4/bin/../lib/gcc/arm-none-eabi/10.2.1/../../../../arm-none-eabi/lib/thumb/v7e-m+fp/softfp\libnosys.a(close.o)
 .debug_frame   0x00002e84       0x20 d:/programme/siliconlabs/simplicitystudio/v5/developer/toolchains/gnu_arm/10.2_2020q4/bin/../lib/gcc/arm-none-eabi/10.2.1/../../../../arm-none-eabi/lib/thumb/v7e-m+fp/softfp\libnosys.a(fstat.o)
 .debug_frame   0x00002ea4       0x20 d:/programme/siliconlabs/simplicitystudio/v5/developer/toolchains/gnu_arm/10.2_2020q4/bin/../lib/gcc/arm-none-eabi/10.2.1/../../../../arm-none-eabi/lib/thumb/v7e-m+fp/softfp\libnosys.a(isatty.o)
 .debug_frame   0x00002ec4       0x20 d:/programme/siliconlabs/simplicitystudio/v5/developer/toolchains/gnu_arm/10.2_2020q4/bin/../lib/gcc/arm-none-eabi/10.2.1/../../../../arm-none-eabi/lib/thumb/v7e-m+fp/softfp\libnosys.a(lseek.o)
 .debug_frame   0x00002ee4       0x20 d:/programme/siliconlabs/simplicitystudio/v5/developer/toolchains/gnu_arm/10.2_2020q4/bin/../lib/gcc/arm-none-eabi/10.2.1/../../../../arm-none-eabi/lib/thumb/v7e-m+fp/softfp\libnosys.a(read.o)
 .debug_frame   0x00002f04       0x20 d:/programme/siliconlabs/simplicitystudio/v5/developer/toolchains/gnu_arm/10.2_2020q4/bin/../lib/gcc/arm-none-eabi/10.2.1/../../../../arm-none-eabi/lib/thumb/v7e-m+fp/softfp\libnosys.a(write.o)
 .debug_frame   0x00002f24       0x20 d:/programme/siliconlabs/simplicitystudio/v5/developer/toolchains/gnu_arm/10.2_2020q4/bin/../lib/gcc/arm-none-eabi/10.2.1/../../../../arm-none-eabi/lib/thumb/v7e-m+fp/softfp\libnosys.a(_exit.o)

.stab           0x00000000       0x9c
 .stab          0x00000000       0x24 d:/programme/siliconlabs/simplicitystudio/v5/developer/toolchains/gnu_arm/10.2_2020q4/bin/../lib/gcc/arm-none-eabi/10.2.1/../../../../arm-none-eabi/lib/thumb/v7e-m+fp/softfp\libnosys.a(close.o)
 .stab          0x00000024       0x18 d:/programme/siliconlabs/simplicitystudio/v5/developer/toolchains/gnu_arm/10.2_2020q4/bin/../lib/gcc/arm-none-eabi/10.2.1/../../../../arm-none-eabi/lib/thumb/v7e-m+fp/softfp\libnosys.a(fstat.o)
                                 0x24 (size before relaxing)
 .stab          0x0000003c       0x18 d:/programme/siliconlabs/simplicitystudio/v5/developer/toolchains/gnu_arm/10.2_2020q4/bin/../lib/gcc/arm-none-eabi/10.2.1/../../../../arm-none-eabi/lib/thumb/v7e-m+fp/softfp\libnosys.a(isatty.o)
                                 0x24 (size before relaxing)
 .stab          0x00000054       0x18 d:/programme/siliconlabs/simplicitystudio/v5/developer/toolchains/gnu_arm/10.2_2020q4/bin/../lib/gcc/arm-none-eabi/10.2.1/../../../../arm-none-eabi/lib/thumb/v7e-m+fp/softfp\libnosys.a(lseek.o)
                                 0x24 (size before relaxing)
 .stab          0x0000006c       0x18 d:/programme/siliconlabs/simplicitystudio/v5/developer/toolchains/gnu_arm/10.2_2020q4/bin/../lib/gcc/arm-none-eabi/10.2.1/../../../../arm-none-eabi/lib/thumb/v7e-m+fp/softfp\libnosys.a(read.o)
                                 0x24 (size before relaxing)
 .stab          0x00000084       0x18 d:/programme/siliconlabs/simplicitystudio/v5/developer/toolchains/gnu_arm/10.2_2020q4/bin/../lib/gcc/arm-none-eabi/10.2.1/../../../../arm-none-eabi/lib/thumb/v7e-m+fp/softfp\libnosys.a(write.o)
                                 0x24 (size before relaxing)

.stabstr        0x00000000      0x14d
 .stabstr       0x00000000      0x14d d:/programme/siliconlabs/simplicitystudio/v5/developer/toolchains/gnu_arm/10.2_2020q4/bin/../lib/gcc/arm-none-eabi/10.2.1/../../../../arm-none-eabi/lib/thumb/v7e-m+fp/softfp\libnosys.a(close.o)
